:020000040002F8
:10600000784D0020C1630200C9630200CB63020027
:10601000CD630200CF630200D163020000000000E4
:10602000000000000000000000000000D363020038
:10603000D563020000000000D7630200D9630200AC
:106040002D670200DB630200CD6A0200DB63020001
:10605000DB630200DB63020065650200DB630200B4
:10606000DB630200DB630200DB630200DB63020030
:10607000DB630200DB630200DB630200DB63020020
:10608000DB63020085670200DB630200DB63020062
:10609000A9670200DB630200AD670200DB63020058
:1060A000DB630200DB630200DB630200DB630200F0
:1060B000DB630200DB630200000000000000000060
:1060C000DB630200DB630200DB630200DB630200D0
:1060D000DB630200DB630200DB6302000000000000
:1060E00000000000000000000000000000000000B0
:1060F00000000000000000000000000000000000A0
:10610000000000000000000000000000000000008F
:10611000000000000000000000000000000000007F
:10612000000000000000000000000000000000006F
:10613000000000000000000000000000000000005F
:10614000000000000000000000000000000000004F
:10615000000000000000000000000000000000003F
:10616000000000000000000000000000000000002F
:10617000000000000000000000000000000000001F
:10618000000000000000000000000000000000000F
:1061900000000000000000000000000000000000FF
:1061A00000000000000000000000000000000000EF
:1061B00000000000000000000000000000000000DF
:1061C00000000000000000000000000000000000CF
:1061D00000000000000000000000000000000000BF
:1061E00000000000000000000000000000000000AF
:1061F000000000000000000000000000000000009F
:10620000DFF80CD000F070F900480047499F020009
:10621000784D002030B450E8012F93B2C489234454
:106220008489A34228BF1B1B0489A34202BFBFF37A
:106230002F8F002007E0C3EA020340E80134002C5E
:10624000E9D14FF001000A6030BC704750E8012FDF
:10625000C2EA024240E801210029F7D1704730B478
:1062600050E8022F1FFAA2F3C488A34202BFBFF373
:106270002F8F00200DE0C48923448489A34228BFC6
:106280001B1BC2EA034340E80234002CE8D14FF064
:1062900001000A6030BC704750E8022FC2EA224277
:1062A00040E802210029F7D17047034653E8022F46
:1062B000D988B2EB324F4FF0000017BF92B241EADB
:1062C000014142EA014104E05A68B2EB324F08BF93
:1062D000012043E80212002AE8D1704730B4044696
:1062E00054E8000F0D4644E80053002BF8D1156028
:1062F00030BC704730B4044654E8000F40EA010552
:1063000044E80053002BF7D1156030BC704730B41F
:10631000044654E8000F00EA010544E80053002B4E
:10632000F7D1156030BC704730B4044654E8000F14
:1063300080EA010544E80053002BF7D1156030BC1A
:10634000704730B4044654E8000F00EB010544E800
:106350000053002BF7D1156030BC704730B40446B1
:1063600054E8000FA0EB010544E80053002BF7D1DF
:10637000156030BC704770B404464FF0000054E81C
:10638000006F0D68AE4207BF44E80023012044E8D7
:1063900000630E60002B1CBF0020F0E770BC70474C
:1063A00030B4044654E8000F88422CBF451A054615
:1063B00044E80053002BF5D1156030BC7047000055
:1063C0000648804706480047FEE7FEE7FEE7FEE78F
:1063D000FEE7FEE7FEE7FEE7FEE7FEE7B167020045
:1063E000016202002DE9F05F0546002092469B46BF
:1063F00088460646814640241BE0284641464746DB
:10640000224600F060F853465A46C01A914110D314
:1064100011461846224600F016F82D1A67EB0108BF
:106420004F4622460120002100F00DF817EB00092D
:106430004E41201EA4F10104DFDC484631462A46C5
:106440004346BDE8F09F202A04DB203A00FA02F11F
:10645000002070479140C2F1200320FA03F3194352
:106460009040704740EA01039B0703D009E008C948
:10647000121F08C0042AFAD203E011F8013B00F809
:10648000013B521EF9D27047D2B201E000F8012B55
:10649000491EFBD270470022F6E710B513460A46A4
:1064A00004461946FFF7F0FF204610BD30B50446FC
:1064B0000020034600E05B1C934203D2E05CCD5C0D
:1064C000401BF8D030BD202A04DB203A21FA02F02C
:1064D0000021704721FA02F3D040C2F1200291401E
:1064E0000843194670470000064C074D06E0E06877
:1064F00040F0010394E8070098471034AC42F6D30B
:10650000FFF782FE88D80200A8D8020070B58C1868
:1065100010F8015B15F0070301D110F8013B2A11B7
:1065200006D110F8012B03E010F8016B01F8016BA4
:106530005B1EF9D12B0705D40023521E0DD401F8A0
:10654000013BFAE710F8013BCB1A921C03E013F869
:10655000015B01F8015B521EF9D5A142D8D300209E
:1065600070BD00002DE9F04700268AB0DFF8509199
:10657000B0464FF48075012437460696284604F04D
:10658000E1F938B1D9F80403204203D0284604F0D9
:10659000CFF926432D1D64007F1CADB2082FEDD32B
:1065A0004FF4BE74204604F0CDF948B1204604F003
:1065B000BFF946F0004606AA0121002004F0A4F924
:1065C000404D16F0FF0F15D00127002437420DD0A3
:1065D00009EB8401D1F81005D1F81015C0F304209F
:1065E00055F82420C1F3014102B190477F00641C9B
:1065F000082CEBD3002E5FDA4FF0FF30CDF810807F
:1066000054E0281910F8507F90F9000027F0C008D6
:10661000401C3BD007A9404603F0CAFE10B34FEA26
:106620009719404601F09CFE55F820701FB1B9F152
:10663000030F03D006E0B9F1030F27D104A94046A8
:1066400003F0BEFE4FF0A04101EB8800D0F8000738
:1066500006A9C0F3014A404603F0AAFE18B1BAF1F8
:10666000020F03D012E0BAF1030F0FD1B9F1030FFB
:1066700008D1BAF1020F1DD00221404604F027F9DB
:10668000761CF6B217B149464046B847641C042C44
:10669000B7D3002E10D06A460121002004F034F94F
:1066A00006990098884207D0069004980026344640
:1066B0000790A6E70321E0E70AB0BDE8F0870000F5
:1066C00000600040342A002000F01F0201219140A8
:1066D0004009800000F1E020C0F88012704700F00F
:1066E0001F02012191404009800000F1E020C0F824
:1066F0000011704700F01F02012191404009800005
:1067000000F1E020C0F8001270474907090E002888
:1067100006DA00F00F0000F1E02080F8141D704749
:1067200000F1E02080F800147047000070B54FF4CD
:106730008076304603F092FF114CB50560B13046CB
:1067400003F093FF0120C5F80803607920B9012008
:1067500060712168002088474FF48276304603F04C
:106760007DFF00280AD0304603F07FFF0220C5F8E5
:1067700008032168BDE870400120084770BD000093
:10678000C022002007480021C0F84011C0F8441181
:10679000C0F84811C0F84C11C0F80011C0F804113D
:1067A00006F0AEBB0010014006F0F8BA04F0F2B9F2
:1067B000F0B5B5480023021D0178101D01254FF0EA
:1067C000805406290BD11678360708D10678C6F30F
:1067D0000316032E06D0042E04D0052E02D006295F
:1067E00007D00EE0B4F82463A84FC6F304263E6039
:1067F00002E01678360704D10678C6F30316032E96
:1068000002D0062904D00FE0A24FA14E7E670EE011
:106810001678360708D10678C6F30316032E06D07D
:10682000042E04D0052E02D0062907D00EE0D4F89D
:106830004462994FC6F342363E6002E0167836074E
:1068400004D10678C6F30316032E02D0062906D01B
:1068500011E0924E376827F0807737600EE01678A7
:10686000360708D10678C6F30316032E06D0042E89
:1068700004D0052E02D006290AD011E04FF0804640
:10688000C6F80C31C6F81031834E361F336002E073
:106890001678360704D10678C6F30316032E02D005
:1068A000062905D00CE07C4F032664373E600AE0E1
:1068B0001678360704D10678C6F30316032E02D0E5
:1068C00006290DD014E0764F05263E60744E7836CA
:1068D0003560734E083633603F263F1D3E6002E050
:1068E0001678360704D10678C6F30316052E02D0B3
:1068F000062957D062E06B4E36686B4F3E60694E9A
:10690000361D36683F1D3E60664E083636683F1DB0
:106910003E60644E0C3636683F1D3E60614E103658
:1069200036683F1D3E605F4E143636683F1D3E6040
:106930005C4E183636685C4F20373E60594E1C3628
:1069400036683F1D3E60574E203636683F1D3E601C
:10695000544E243636683F1D3E60524E2836366807
:106960003F1D3E604F4E2C3636683F1D3E604D4EFB
:10697000303636684C4F40373E604A4E34363668C3
:106980003F1D3E60474E383636683F1D3E60454EDF
:106990003C3636683F1D3E60424E403636683F1DED
:1069A0003E6002E01678360708D10678C6F3031673
:1069B000032E06D0042E04D0052E02D0062907D0BF
:1069C00019E0D4F85812394A01F04F01116002E081
:1069D000117809070FD10078C0F30310032803D002
:1069E000042801D0052806D131480168C90702D022
:1069F0006FF001010160D4F83001062808D1D4F805
:106A00003401062804D12B48016841F480610160FB
:106A100022487438016841F470010160BFF34F8F60
:106A2000BFF36F8F4FF01021D1F80002002803DB75
:106A3000D1F80402002822DA1F4A15601F480468B2
:106A4000002CFCD01524C1F800420568002DFCD0B4
:106A5000C1F8044201680029FCD0136001680029D4
:106A6000FCD0BFF34F8F0D48F0380168144A01F491
:106A7000E06111430160BFF34F8F00BFFDE7124992
:106A800010480860F0BD0000E00F00F04035014004
:106A90000DF0ADBA00C007403C050040FCED00E041
:106AA000105600400404001020C50040E40E0040D1
:106AB000000400403C17004004E5014000E40140B0
:106AC0000400FA050090D003482300200148006824
:106AD00000470000C822002002E008C8121F08C1B9
:106AE000002AFAD170477047002001E001C1121F4F
:106AF000002AFBD1704700000121202803DA8140E1
:106B00000548014003E0402802DA2038814009B1FD
:106B10000120704700207047FC06FFBD10B560B132
:106B200059B102780B785208B2EB530F05D1062207
:106B3000401C491CFFF7BAFC08B1002010BD012021
:106B400010BD800701D00020704701207047C36846
:106B50008B4206D811440069491E814201D80120A8
:106B600070470020704710B501220221002001F07B
:106B700039FA08B1072810D107220221012001F0BB
:106B800031FA08B1072808D100210A22084601F08D
:106B900029FA08B1072800D1002010BD10B510B1A6
:106BA00005F044F903E00321044800F018FC002834
:106BB00003D0BDE8104000F09BB810BDB02300200A
:106BC00070B58CB015460E4600236C46C3F10F011C
:106BD000415CE1545B1C102BF8D30D2104F1100033
:106BE000FFF759FC0020C0F10F02315C2244401C29
:106BF00011740328F7D3684646DF0020C0F10F0167
:106C0000214491F820102954401C0328F6D30CB0DD
:106C100070BD022001F0E8B80149C97800F0D8BD84
:106C2000A022002070B50024064D06E0686801210E
:106C300010F8340004F058F8641C28788442F5D326
:106C4000002070BDD0220020F8B515460C4606463F
:106C5000052A01D20720F8BD04F042F918B904F062
:106C600007F90028F7D1124900224E600C708D60A0
:106C7000C1E90422C1E906220E4D0DE006EBC40075
:106C80002968009181788DF8011000780A4A6946D8
:106C900004F07CF80028DED1641EE4B2EED2BDE838
:106CA000F84004480021054A001D00F02DB80000FE
:106CB000D022002060D70200E5940200A1890200E2
:106CC00072B609480068C00700D000BEBFF34F8FFE
:106CD0000548E4380168054A01F4E06111430160A8
:106CE000BFF34F8F00BFFDE7F0ED00E00400FA05B1
:106CF0000EB500210091CDE901106A4644F2010071
:106D0000FFF7DEFF0EBD0000084B9B7823B12AB1D0
:106D100020B10068037C1BB1082070470720704732
:106D2000002303744174426118467047B02A002062
:106D300070B505F00DFB104800240B210470447061
:106D40000E4D817014206C602C706C70FFF7BCFCD1
:106D500006211420FFF7D9FC1420FFF7C0FC0848D7
:106D6000046006211120FFF7D0FC0548001F0068D1
:106D7000A860002070BD0000B02A0020F022002092
:106D8000081501402DE9FC47DFF8789099F80230AA
:106D900073B368B3052902D20720BDE8FC874369B5
:106DA00033B3437C012B25D00027044600258846B9
:106DB00016468DF80050684600F038F801A806F035
:106DC0005FF9C8B1012101700F4944600968C0E949
:106DD0000218C0E904769DF8040089F801009DF8C6
:106DE000000000F047F81420FFF784FC2846D4E7A1
:106DF0000820D2E70F46D8E704259DF8000000F0F0
:106E000039F8F3E7B02A00200415014006498978D3
:106E100039B130B1416921B100210174022106F07C
:106E20004BB8082070470000B02A002030B5EFF3BF
:106E3000108172B60D4A9468012324B103700029B1
:106E400000D162B630BD93604FF0E023D3F880519B
:106E5000074C25401560C3F88041D3F88441546045
:106E60005A17C3F8842100220270E8E7BC2B0020E7
:106E7000FC06FFBD0B498A68002A11D000280FD1FB
:106E8000EFF3108072B60B684FF0E022C2F80031C9
:106E90004B68C2F8043100228A60002800D162B633
:106EA00070470000BC2B002003F012B82DE9F0431E
:106EB00080460588384800268BB00178324628463F
:106EC00000F09EFC98F80500400701D4002154E032
:106ED00005F58077B8B203AB0122072104F002FA6E
:106EE000010003D0284605F0C9FBEFE7284602F071
:106EF000B7FD4FF6FF710446884225D189460498B4
:106F000002F018FD04464946484510D0014628467F
:106F100002F086FD2846FFF77FFEA8B9284605F057
:106F20007FFB2846FFF778FE0028CFD00CE00E4606
:106F300004F046FB0446B04201D10421D2E70146E9
:106F4000284602F06DFD0126B8B22246072104F062
:106F50002FFA010010D0862913D0284605F08EFBA9
:106F60000021404604F0FCF8002E02D0204602F03A
:106F700061FD0BB0BDE8F0830121404604F0F0F85C
:106F8000F7E71822054905A8FFF76CFAADF8165087
:106F900005A801F06BFEEFE7A022002010D7020049
:106FA00070B5044690B0087B0D468DF8380020215E
:106FB00005A8FFF770FA42F61920ADF81400012079
:106FC000ADF81800ADF81A000EA80790617C9DF886
:106FD0002100A21D61F3041040F002008DF8210091
:106FE000A87B8DF82700687B8DF82500A08805A96F
:106FF00001F0BEF900281CD1A968E1B10FA800F08A
:10700000ACFE064614216846FFF745FA42F6081022
:10701000ADF80000E87B8DF806000FA8ADF80A6017
:10702000ADF80E600490E08804F10E02694601F0AC
:1070300061FC10B070BD0020E081FAE72DE9FC474B
:10704000002517880646158090F82D0014468946BD
:1070500030B13A462146484600F0FCFB051E09D1F6
:10706000B0784FF00C0A18B32088C846001DB8420B
:1070700002D95046BDE8FC87684679DF0028F9D17F
:107080002088032108F8001020881921401C80B2B4
:10709000208008F800102088401C80B2208000EB7F
:1070A0000801BDF8000005F065FF21880844208034
:1070B000F0780222C8B1218896F9033001F1030C5F
:1070C0004846BC45D5D8425421884FF0010C491C94
:1070D00089B2218000F801C02188491C89B2218031
:1070E00009F801302088401C20807068B8B12188E0
:1070F00090F9003001F1030C4846BC45B9D8425420
:1071000021880A22491C89B2218042542188491CC5
:1071100089B2218009F801302088401C2080308904
:1071200050B1CDE900474B460622022106F1080086
:1071300005F0BEFF051E9DD1308A50B1CDE9004754
:107140004B460722032106F1100005F0B1FF051E92
:1071500090D1308B50B1CDE900474B461522142118
:1071600006F1180005F0A4FF051E83D1306A30B186
:107170003B462246494601F07AFA051EDBD1706A89
:1071800030B13B462246494602F0A0FF051ED2D14F
:1071900096F82C0038B13B4622464946304605F069
:1071A000F3FA051EC7D1307838B13B46224649462E
:1071B000304602F0C1FF051EBDD128465AE718B57A
:1071C00004460020ADF8000013466A46204600F051
:1071D00006F8002802D0BDF80000204418BD70B5A4
:1071E00088B182B10024158803E0065D641C344434
:1071F000A4B2A54203D8061976789E4201D08C42EB
:10720000F3D38C4201D3002070BDA11C1180005D1E
:10721000401E80B270BD80F8301070472DE9F047F5
:107220000D00044606D02CB195F87A0000260128FE
:1072300003D006E00E20BDE8F08795F898000128FD
:1072400029D0D5F8A000042825D0D5F89C00042822
:1072500021D04FF00109A6702C2205F17801201DE4
:10726000FFF700F984F83060D5F8A4006063D5F822
:10727000A800A0634FF6FF70A4F8480204F50D7053
:10728000C4F84402C4F84A62A4F84E6284F850621A
:10729000207810B104E00720CDE7FF2084F85400E7
:1072A00004F15501C4F8341294F82400EE274FF08D
:1072B0001F0801281FD0A4F8388200BF04F50E7201
:1072C0002846FFF7BBFE0028B5D115F13C0F18D0BA
:1072D00004F24311C4F83C1294F8240001280DD0A4
:1072E000A4F8408204F5107205F13C00FFF7A6FEF9
:1072F0000028A0D109E0A4F83872DFE7A4F84072B2
:10730000F0E7C4F83C62A4F8406284F85190208B06
:10731000A4F8480084F83C90266484F850606069C2
:1073200060644D4604F13C02002104F1540072DF18
:10733000002880D125707EE710B50288102A1BD066
:10734000112A20D0262A1DD1007A0C46012801D00E
:10735000022817D1A0780521401CB0FBF1F201FBF7
:107360001201204600F03BF800280BD0A16B002949
:1073700008D0BDE810400847C27B012A02D18088AE
:10738000A1F8480210BD0C46002184F852128088F2
:10739000B4F848128842F5D120790028F2D10121B1
:1073A000DFE7704710B5044690F8540074DF012001
:1073B00084F85202002084F8540284F85000062118
:1073C000204601F027FE002808D1A178204600F0D1
:1073D00006F810B1A16B01B18847002010BD2DE95E
:1073E000F05F044600780F4698B1A7700025C4F8F6
:1073F0004A52A4F84E5284F85052A079012608B19E
:10740000012F09D0E07980B1012F05D0022F03D0E0
:107410000BE00820BDE8F09F616B21B184F8516258
:107420000820884701E084F8515204F24B210020E3
:107430000A5C0AB1304603E0401C0628F8D300205D
:107440004FF002084FF0030B012F06D0022F0CD093
:10745000032F0FD0042F15D110E0A17929B194F892
:10746000241011B908B130460DE0E17911B108B12D
:10747000404608E0207A08B1584604E0607A08B136
:10748000042000E02846A070616B41B1032801D0C0
:10749000042804D1607910B194F85202A0B184F8A4
:1074A000535204F13C0018210746FEF7F4FF04F1A3
:1074B0002C0084F83C60814604F09EF958B194F8A1
:1074C0002C0084F8510008E084F8545284F8536288
:1074D00007208847E5E784F8516094F8240050B10C
:1074E000484604F089F920B194F8280084F8520045
:1074F00001E084F8526084F85050A27804F24A21E6
:1075000004F50D794FF0060A052A62D2DFE802F091
:107510007A030F22410084F83160C4F84452C4E970
:10752000101584F83C808020A4F8480053E084F8CB
:10753000318094F82420384612B10722027001E00D
:1075400080F800B0228A8281C4F844524160E16828
:10755000B96040E06069B860208BB88194F824007D
:107560003D4610B184F83CA001E084F83C60204620
:1075700005F062FD50B185F814800421204601F029
:1075800049FD30BB052184F8311020E084F831B08A
:107590001DE0E069B860208CB88194F824003D4675
:1075A00010B184F83CA001E084F83C60204605F06E
:1075B00043FD48B185F814800421204601F02AFDDE
:1075C00038B984F831A002E0042084F83100C4F80E
:1075D0004492A07878B13A4604F15400D4F84412A9
:1075E00072DF00287FF416AF94F8301094F854003E
:1075F00073DF0028F6D1616B11B194F83100884730
:10760000002007E784F83150F5E738B50D4604004F
:1076100018D0BDB12868206028796074FF202074DC
:1076200001208DF8020041F60F00ADF80000221D88
:1076300069460120A8DF002803D129462046FFF72C
:10764000AFFC38BD0E2038BD38B5002924D0002845
:1076500022D00288502A1FD10546487C0C460028BB
:107660001AD0E9886289A81D914215D14189022961
:1076700012D1216800290FD00C3000F06AFB08B14C
:10768000002000E001208DF80000A888ADF802007D
:10769000226869462046904738BD000070B5040056
:1076A00012D001461C221448FEF7DCFE1248134D8E
:1076B0000560206850B17ADF002806D12068016893
:1076C00029604068686005E00E2070BD0B487BDFD4
:1076D0000028FAD108484FF6FF711438084A20F8FC
:1076E000041B0549343901600021FFF70DFB002818
:1076F000EBD0032070BD0000A8260020442200200B
:10770000D1CF020010B5044600F09AF8002805D049
:107710002146BDE81040024802F00BBE10BD00003B
:10772000D426002070B515460E46044605F090FCA0
:10773000002809D0054800EB840080692A463146BC
:10774000BDE8704001F092BC70BD0000C42600206E
:1077500010B5044600F074F8002805D02146BDE8B5
:107760001040024802F0E5BD10BD0000D826002000
:1077700070B50546002400F063F838B12946044886
:1077800002F0D7FD08B1022400E00124204670BDBC
:10779000D026002070B50546002400F051F838B11D
:1077A0002946044802F0C5FD08B1022400E0012486
:1077B000204670BDCC26002010B51821034802F0E9
:1077C00093FD182800D0C0B210BD0000C4260020D0
:1077D00070B505460C46084605F03AFC60B12846EF
:1077E00000F02EF840B10548294600EB8400BDE8C2
:1077F0007040183002F09DBD002070BDC4260020EE
:1078000070B5054614460E46084605F021FC0028D2
:1078100012D0284600F014F800280DD00748294659
:1078200000EB860018301CB1BDE8704002F08CBD42
:10783000BDE8704002F03DBD70BD0000C4260020D0
:10784000142801D3002070470146014802F071BDA1
:10785000C82600207CB5054608880C4609309042B1
:1078600001D90C207CBD68466DDF0028FAD1218843
:107870000820685420881B21401C80B22080295495
:107880002088401C80B220802844DDF8011001606F
:10789000BDF8051081802088801D80B220809DF871
:1078A0000010490800D0012129542088401C208064
:1078B00000207CBD38B50446008821281CD013DC8C
:1078C000102822D1072000F0AFFB08B1FFF710FA13
:1078D0001048A1884180104802F048FE002814D0CA
:1078E000BDE83840FFF704BA3B280FD056280CD12A
:1078F000A088132176DFF1E700200090A088694678
:107900008FDF002801D0FFF7F3F938BDA0881321DD
:1079100076DFE3E718220020A423002010B51A4CDC
:107920000188606810290ED011292BD1401E60609B
:1079300028D1FFF718F9002824D02168002921D088
:10794000BDE810400847D0B900210122084600F0E8
:1079500049FB08B107280FD107220221012000F0BE
:1079600041FB08B1072807D104220221002000F0C2
:1079700039FB20B1072802D0216801B1884760682F
:10798000401C606010BD00003C2200202DE9F04743
:1079900001883B4E40F2F3194FF6FF7510291BD0BA
:1079A00011293ED0122954D0502946D1C188F289DC
:1079B000841D914241D1618902293ED18688304699
:1079C00002F0FCF8050038D004F10C0000F0C1F919
:1079D000A8B3294630464EE0C17B8788044601297A
:1079E0002BD1A846284602F0E9F8050017D02F80D1
:1079F00000202872234843464A460168C5F80A1009
:107A00004068C5F80E0004F1100105F10A0002F00B
:107A1000E7F86872F08900280FD129462AE004208F
:107A200013E0808802F0CAF8040006D06068FFF70F
:107A3000EDF908B104F006FE2580BDE8F087FFE708
:107A40006868FFF7E3F90028F7D0BDE8F04704F0D5
:107A5000F9BD87880646384602F0B0F80400ECD03D
:107A60002B464A4606F1080104F10A0002F0B8F874
:107A7000607221463846BDE8F04700F03FBE000086
:107A8000A8260020442200202DE9F04F07468588D3
:107A900002883D48012197B08346102A09D0112A57
:107AA00049D01A2A6CD1387AB1EB101F45D2012285
:107AB00044E0354C083CA068C0430B9061680BA8BB
:107AC00002F055FC0B990CA800F0B2FD2C220CA979
:107AD0006846FEF7C7FC0026E946A04610E000BF56
:107AE00009EB46005FF00004B0F804A008EB840046
:107AF0005146001D02F0DDFB641C1D2CF6D3761CE4
:107B00000098B042ECD8142D05D317B00420BDE87E
:107B1000F04FFFF7EDB82946584602F015FC29460C
:107B200008F1040002F010FCF87B012828D0164868
:107B30002946001D15E029461AE000220221B1EB7A
:107B4000101F01D2012600E000260F49083901F17B
:107B50001000041D294682B102F0F6FB36B1294619
:107B6000204617B0BDE8F04F02F0EEBB2946204694
:107B700017B0BDE8F04F02F09CBB02F09AFBF5E7AE
:107B800017B0BDE8F08F0000CC26002010B50446E9
:107B90000748007800280AD0204601F03DFE204624
:107BA00004F0A4FE2046BDE8104001F06FBB10BDFC
:107BB0007822002070B5044696B0086820604FF621
:107BC000FF70E082C879207601268DF8226041F6A8
:107BD00009000D46ADF82000221D08A93046A8DF97
:107BE00000284BD120216846FEF755FC202109A82A
:107BF000FEF751FC42F61C20ADF8000011AA09A9BD
:107C0000204601F093FDADF806001420ADF8040005
:107C100011A802908DF80C609DF80D00A21D40F097
:107C200020008DF80D0028798DF81300A088694692
:107C300000F09EFB002821D1A879F0B120216846F0
:107C4000FEF729FC42F61D20ADF800009DF80D005E
:107C5000ADF8046040F002008DF80D006879ED1D6C
:107C60008DF81100ADF806600295A08804F10E02AF
:107C7000694600F07DFB002800D1002016B070BDE1
:107C800030B50446C08A8BB0A0F57F42FF3A23D0BE
:107C900005AA204601F04AFD0546ADF80000002087
:107CA0000190029003900490E188ADF80410022145
:107CB000ADF808008DF8061005A8CDF80CD004909A
:107CC000E08A01A9AEDF002804D1BDF80010A94266
:107CD00000D00C200BB030BD0820FBE738B502887F
:107CE000102A12D0112A12D0502A14D0532A0BD1A4
:107CF0000A46C088C988884206D102208DF8000053
:107D0000136869461046984738BD808801E04FF6F1
:107D1000FF70C88238BD0C4630F8061F6289914258
:107D2000F8D141890229F5D121680029F2D00C301F
:107D300000F00BF808B1002000E001208DF80000F1
:107D4000226869462046904738BD0078C0F340005D
:107D50007047007800F0010070470A780270497897
:107D600041700220704700000149085C7047000024
:107D7000B4D502000649095C4FF0A040D0F81005C8
:107D8000C84010F0010000D0012080F001007047D1
:107D9000B4D502002DE9FC410646C0074FF00005AE
:107DA0000ED0104F00240122385D009500231146AB
:107DB000019502F068FD641C042CF4D300F046F831
:107DC000B0070DD5074E0024361D0022305D032379
:107DD00000951146019502F056FD641C042CF4D365
:107DE000BDE8FC81B0D5020007490B5C4FF0A04113
:107DF000D1F804250120984020EA0203C1F8083593
:107E00001040C1F80C057047B0D502000249085C6B
:107E1000012102F06DBD0000B0D502000249085CEE
:107E2000002102F065BD0000B0D502000649095CE2
:107E30004FF0A040D0F80405C84010F0010000D079
:107E4000012080F001007047B0D5020010B5002479
:107E50002046FFF7DBFF641C042CF9D310BD10B5DE
:107E600000242046FFF7DAFF641C042CF9D310BD70
:107E700010B50246064B4FF0FF3000215C5C944287
:107E800001D1084610BD491C0429F7D310BD0000DC
:107E9000B4D5020070B50C4E0C004FF000053060F8
:107EA0000BD0012000F06AF808B1022004E00020A5
:107EB00000F064F800B10B202070706810B9FEF774
:107EC00052FE0546284670BD3C22002010B5002019
:107ED00000F0E4F908B1062806D1012000F0DEF92F
:107EE00008B1062800D1002010BD00002DE9F047A0
:107EF0000D468146FFF7BCFF0446042836D2DFF862
:107F000074801B481C4EA8F10C0725B3012D0ED020
:107F1000022D2BD104EB440030444578002D25D0B0
:107F2000B968002922D02846BDE8F047084704EB8D
:107F30004401755C0E44717849B10E4A4FF400411A
:107F4000093A8068FEF71EFF08B987F80390B178F8
:107F500008F80410E2E78068FEF758FF04EB4401DC
:107F6000314418F804008D78A842D7D0BDE8F087D6
:107F7000B8D502003822002048260020042801D26B
:107F8000FFF7F8BE002070470246144810B540883D
:107F9000042A11D04FF6FF71072A16D00A2A07D0FB
:107FA0000E2A19D1884217D0BDE8104004F0DABE7D
:107FB000BDE8104004F086BC132176DF0AE00028FB
:107FC0000AD0BDE81040FEF793BE884204D10448B1
:107FD000FFF7E8F90828F2D110BD000018220020B0
:107FE000B023002070B50023042810D20D4D00EB03
:107FF0004004012A02D101290CD00022094E00EBD5
:108000004000304461B1012906D0022906D007237F
:10801000184670BD0E30C2B22A55F9E74270F7E734
:108020008270F5E748260020044A014600201279B4
:10803000D20702D0084600F04DB870472C2200202D
:1080400070B506461E480024C0E90161B00720D57E
:108050000025012211462846FFF7C4FF6D1C044687
:10806000042D02D2002CF4D013E094B940F26662E1
:1080700004211448FEF7E8FD04000AD1FEF7D2FD02
:10808000040006D10F48104A0021001FFEF73CFEF5
:108090000446F00712D00120FFF77CFE74B90948AE
:1080A0000A4A00210C38FEF72FFE040006D10548CD
:1080B000074A01210838FEF727FE0446204670BD16
:1080C0002C220020C4D50200A3820200759C02006D
:1080D000136C02002DE9F05F6E4C054600266078B7
:1080E000B34618B184F801B001F0ACFD6A4F4FF40B
:1080F0007A694FF4C87A4FF00108182D69D2DFE889
:1081000005F00C1313384754696E727B727BC5847B
:1081100084848484B3B6B9BCC5C501F093FD3868C6
:10812000FEF774FE06465CE00020FFF77FFE0028A5
:108130004FF0000008D0FFF769FE022D02D14FF486
:10814000E16008E0484606E0FFF768FE022D01D135
:10815000C82000E05046410CC0034FF4FA7280186A
:1081600041F10001257052000023FEF73BF9014662
:108170002AE00020FFF75AFE00284FF0000004D04C
:10818000FFF744FE4FF44870E5E7FFF747FEDFE7EF
:108190000020FFF74BFE00284FF0000002D0FFF751
:1081A00035FECFE7FFF73AFED4E70020FFF73EFEAB
:1081B00000284FF0000002D0FFF728FE01E0FFF793
:1081C0002DFE257041F69A1100223868FEF7DAFD7F
:1081D000064646E00020FFF707FE257008E0002075
:1081E00051E025703DE084F801800120FFF7FCFD9F
:1081F000002240F6CD41E8E784F801800120FFF736
:10820000F3FD00224FF48041DFE77868FEF7FEFDC2
:108210000646D5F1110000D02EB10220FFF7F6FD81
:1082200084F802B01DE0012816D980B2C821484365
:10823000C117C90341EA5041C0034FF4FA728018D4
:1082400041F1000152000023FEF7CCF80146002264
:108250007868FEF797FD06460220FFF7DFFD84F8F9
:1082600002803046BDE8F09F01F0ECFCB9E701F078
:10827000E9FCB4E701F0E6FC04E001F0E3FC0020D7
:10828000FFF7CCFD0120FFF7C9FDAAE7FFF7E7FDE7
:10829000A7E700002C220020B8D50200012104F03D
:1082A0006EBF00780221FFF721BE00001CB5044616
:1082B00001F0D6FB00236A46092103F00BF90528DB
:1082C00005D10348012241792046FFF799FA1CBDE8
:1082D0004C2200201CB50021009142F6A621ADF8E9
:1082E000001001218DF80210034901AA09680191CB
:1082F0006946A0DF1CBD0000E4D5020005494FF02F
:10830000FF32082841F8202002D3084480F8482092
:1083100070470000342A0020F0B54FF0FF3512B14D
:108320000023082601E008230C260C4C05E000BFC2
:1083300054F823707F1C04D05B1CB342F8D328464A
:10834000F0BD26185DB286F8305044F82310002A9C
:10835000F5D1E11881F84800F1E70000342A002047
:108360000249084490F9300070470000342A002088
:108370002DE9F0438146887891B090460C4600B9CB
:1083800001208DF83E002088ADF83C0000250095C6
:10839000607C694604F07EFA6E46A07C711C04F095
:1083A00079FAE07B00289DF8020002D040F0080036
:1083B00001E020F008008DF80200217C11B140F0AE
:1083C000100001E020F010008DF80200217B11B1B7
:1083D00040F0010001E020F001008DF80200217D55
:1083E00009B1022100E0012161F342008DF8020091
:1083F0001C2102A8FEF74FF8607BC10601D480065D
:1084000017D50E950EAFE07C791C04F043FA9DF869
:108410003800079720F00F00401C20F0F0001030CB
:108420008DF838009DF83A0020F00600801C8DF889
:108430003A00607B8DF80800A07B8DF809001421BC
:1084400009A8FEF728F80FA8CDE90906A088ADF81D
:108450003000A06820B1E088ADF82C00A0680D9035
:10846000A06998B301950088ADF81000A06901AD2E
:1084700001A94088ADF81200A069406806950390F4
:10848000A069007B04F006FAA069691C407B04F037
:1084900001FAA069807A00289DF8060002D040F019
:1084A000080001E020F008008DF80600A169C97AF3
:1084B00011B140F0100001E020F010008DF806002E
:1084C000A169097A19B140F0010002E00DE020F045
:1084D00001008DF80600A169897B09B1022100E045
:1084E000012161F342008DF80600E06900B10590BA
:1084F000434609AA02A94846AADF11B0BDE8F083A5
:1085000070B504464FF6FF750A462846AC4209D1BD
:108510004FF480742146104601F0E6FE80B2A0427E
:108520000BD070BDFF2CFCD82146104601F0CCFECC
:1085300090F0010F01D0204670BD284670BD0000AC
:1085400070B5084C050009D010342168002907D007
:1085500008682060496828468847F6E70834F4E749
:1085600070BD0000202A0020054A012120B1012809
:1085700005D19170FFF7E4BF51700020FAE7704712
:10858000202A00202DE9F05F26484168F1B3DFF88A
:1085900098B00E688146DBF8004087688078E11B60
:1085A00021F07F45ED1CB0B9DFF880804FF48030BA
:1085B000C8F84403C8F804031120FEF785F8112019
:1085C000FEF78DF84FF0010AC8F800A02F2002F046
:1085D00083FB89F802A0B54200D23546124BE81958
:1085E0003C3320F07F401860DBF800105A46091B2E
:1085F00021F07F41001B20F07F40C91C81420FD930
:10860000106818602F2002F067FB00E004E0BDE86E
:10861000F05F1120FEF76EB8BDE8F05F03F098BE82
:10862000BDE8F09FF0220020041501400010014039
:1086300073B58CB00646002000900D9880B10024E0
:108640006D4621460DA801F074FE30B1009805EB8F
:10865000400084800098401C0090641C142CF0D3CF
:108660002C2269463046FDF7FDFE0EB070BD2DE9A7
:10867000F04117880646B81D14460D46984202D9A7
:108680000C20BDE8F0813188072206290AD34FF477
:10869000486C4FF6FF73614501D9994202D1708849
:1086A000062801D21046ECE7604501D99842F9D17D
:1086B000994203D0984201D08142F3D80520E85571
:1086C00020881221401C80B2208029542088401C20
:1086D00080B220804119308804F04CFC2188084485
:1086E00080B220804119708804F044FC218808443D
:1086F00020800020C5E7FEF7FBBA000038B54A7AB3
:108700000F4B62B100220A725969002906D001227A
:108710008DF80020ADF802006846884738BD0A7A17
:1087200062B19B684C68024619462046FEF72AFB58
:108730000028F3D0BDE8384003F084BF5B68F1E760
:10874000A8260020F0B587B016460F4604461D4601
:1087500018220B496846FDF785FE0A488DF8087017
:10876000ADF80240ADF80A608DF80C500178002297
:108770002046FFF745F8684600F078FA07B0F0BDEC
:1087800028D70200A022002038B5044643F2020593
:1087900059B9694603F0C4F8A84202D008B1FEF7FF
:1087A000A7FA9DF80000800714D40021204603F0AA
:1087B000F3F800280ED011280CD00D2807D00B2874
:1087C00008D0A84206D0BDE83840FEF791BA132180
:1087D000204676DF38BD1FB500220092ADF80010AC
:1087E0000192ADF802100292039202AA694690DF4C
:1087F00004B010BD70B5044686B01C48012101F0DC
:10880000C6FDBFF35F8F0026002821D1002520463A
:1088100000F0F7FE68B1112812D086281AD0A0F512
:108820004051023903D00146204603F013FF294688
:1088300007E006B029462046BDE8704001F07CBB49
:108840000121204601F078FBBFF35F8F07480660E7
:1088500006B070BD182206496846FDF703FEADF864
:108860000240684600F0DEF9E1E7000058220020EF
:1088700010D602007FB50C4610B1012004B070BDC7
:108880002079002638B141F61D5501281BD0022859
:1088900026D00F20F2E70220207102960396E068AE
:1088A0000190694601A803F0AFFC50B1029881889D
:1088B000E18000882081BDF80010029803F022FDBD
:1088C000DCE70A20DAE70A4B6A460021A01D03F024
:1088D00057FC38B1064918398E61CE610A28CDD1CE
:1088E0002846CBE702488188019803F00BFDF5E7A5
:1088F0001C230020F0B587B00C460746164614210D
:1089000001A8FDF7C8FDA07800B901208DF81A0074
:108910002088ADF8180006A80190A079694603F0F8
:10892000B9FF6D46E079691C03F0B4FFE0780028D8
:108930009DF8020002D040F0080001E020F008009D
:108940008DF80200217911B140F0100001E020F013
:1089500010008DF80200617911B140F0010001E0D2
:1089600020F001008DF80200217A09B1022100E017
:10897000012161F342008DF8020002956089ADF893
:108980000C00A089ADF80E00E089ADF81000206958
:108990000590324601A93846ABDF07B0F0BD0000B4
:1089A0002DE9F0470025DFF88C803CE0606800216D
:1089B00000EBC506012032789146FDF744FDD4E96D
:1089C000062300EA020701EA030C57EA0C0728D045
:1089D00082438B434846C4E9062302F03FFA3278CB
:1089E0008246914601200021FDF72DFDD4E90423A4
:1089F00000EA020401EA03074A4650460021FDF757
:108A000022FD44404F403C430BD17078012801D0F7
:108A1000012100E00021726881EA0A010AB148469A
:108A200090476D1CEDB298F8000044468542BDD3D6
:108A3000BDE8F087D02200200E4910B50A784C78A6
:108A40000023A24212D0521CD2B20A70022A00D1D4
:108A50000B70084A0B780C3252F8232002608868A9
:108A6000104420F07F408860012010BD036000208A
:108A700010BD0000F022002013460A460021FFF737
:108A800061BE00002DE9F843104D0F4680461E469A
:108A900091466946286801F0E0FB040014D01C21CF
:108AA000FDF7F9FC01202071C4F81490380BC4F8CC
:108AB0000080C4E902606946286801F0EFFB03F01A
:108AC000DDFA0020BDE8F8830420FBE790D7020020
:108AD00010B503780022072B06D2DFE803F0050467
:108AE0000610202930000A7010BD01230B70038985
:108AF0008B818388CB81C06888600A7410BD022294
:108B00000A7002898A818288CA81C2688A60807DEF
:108B1000062802D00020087410BD0120FBE70322C4
:108B20000A70C2888A810289CA81C068886010BDC3
:108B300004230B70C0888881CA818A6010BD05201B
:108B4000087010BD70B5064D0646002455F8241077
:108B500009B130468847641C042CF7D370BD00006F
:108B6000E42B002030B50446006887B00D468068CD
:108B700000281FD018216846FDF78DFC0195A068DC
:108B80000590207910B1012810D107E001208DF85F
:108B9000000020690290E068039005E002208DF853
:108BA0000000E0680003029060690490206881681A
:108BB0006846884707B030BD70B586B015460C00D2
:108BC00006461AD0112C18D0082C16D01821684649
:108BD000FDF761FCADF80260304600F041FFADF8F2
:108BE000040000200D2C0AD007218DF800100294FB
:108BF0008DF80C00684600F047F806B070BD032100
:108C00008DF8001025B12978C90701D0012100E0B5
:108C100002218DF80C008DF8081041F20110ADF81A
:108C20000A00E7E710B50446408800F019FFA0806D
:108C3000024801682046BDE8104008475422002041
:108C40002DE9F04107460024064E074D05E000BF20
:108C500056F8241038468847641CE8788442F7DBCD
:108C6000BDE8F081D42900207822002010B5044608
:108C7000408800F0F5FEA080024801682046BDE86B
:108C800010400847DCD60200014909680847000087
:108C900058D7020070B586B0044618216846FDF723
:108CA000FAFBA0890125A0F54040ADF8040020782A
:108CB000324E062835D2DFE800F0340303032E4E8F
:108CC000A08900F08BF930B9E08943F6FE71A0F578
:108CD0004040884225D8A07B8DF8080020780328E2
:108CE00011D000208DF80900A0680390606860B181
:108CF00009208DF80000606804908DF814506846D3
:108D000002F072FB0DE00120ECE708208DF8000076
:108D10008DF81050F3E7A08900F060F908B1E08900
:108D200030B17078002801D002F05CFC06B070BD54
:108D3000606840B10B208DF80000606802908DF8EB
:108D40000C507570DBE70A208DF80000BDF80400B8
:108D500002F0D6FCF5E7606858B114208DF80000E9
:108D6000606802908DF80C504FF6FF70ADF804006B
:108D7000C5E713208DF80000F6E70000642200200C
:108D800038B504460E480078A8B1A4F57F40FF38F6
:108D90000FD0684603F0A4F878B1052101700121D5
:108DA0000171C480684603F0A9F803F059F9002066
:108DB00038BD042038BD022038BD082038BD000071
:108DC000242300200C4808B5007888B1684603F0D9
:108DD00087F878B106210170684603F08FF80748DC
:108DE000017809B10121017303F03AF9002008BDAF
:108DF000022008BD082008BD24230020A82C002044
:108E0000F0B587B014216846FDF745FB2B4C207860
:108E100018B16846FFF796FE4EE0201D01F09EFA5D
:108E2000B8BB4FF0102041690004026940694B1C37
:108E300001D100FB02F1224800220161A1F540515D
:108E4000C160204901F075FC002820D11F481C2377
:108E50008C221D49006801F0EDF902F0EDF8051EC5
:108E600014D0022812D000270126062D12D005A802
:108E700003F036F888B106700C2D18D2DFE805F043
:108E8000170F170F17161716171113110B2007B00E
:108E9000F0BD11E026706760BBE70820F7E70771B7
:108EA00005E0032100E00221017100E0067105A840
:108EB00003F024F803F0D4F80020E8E7242300208E
:108EC0004C230020A0D70200F42B002078D702000A
:108ED00038B5040014D0694603F096F9A0B1BDF886
:108EE000000000EB8001094800EB8100C16849B136
:108EF000A17A39B1C168491EC1600020A07238BD95
:108F0000052038BD062038BD0A2038BD802C002041
:108F10001FB501A9684603F033F904B010BD07B5C9
:108F200013460A466946002003F02AF90EBD07B52C
:108F300013460A460021684603F022F90EBD20B10F
:108F400019B10068086000207047052070470000D4
:108F5000F8B50D46040018D0BDB1694603F054F9C8
:108F6000A8B1BDF800000B4900EB800001EB8000C8
:108F700001210C30666801F0F4F92E6060680C3055
:108F800068600120A0720020F8BD0520F8BD0A200D
:108F9000F8BD0000802C002018B10323002204F04B
:108FA000DFB9052070470223002204F0D9B9000080
:108FB000084910B50A69042A0AD0074A096942F823
:108FC000210004480121103001F0CBF9002010BD30
:108FD0000C2010BD04230020E42B002043F6FE717A
:108FE000A0F54040884201D801207047002070471A
:108FF00010B504460078182802D1FEF7DDFB20707A
:1090000010BD10B504460078182802D1FEF7D4FB35
:10901000207010BD70B50D460446B0F83812D0F877
:1090200034020122FEF7CBF800B1057004F13C02D6
:1090300004F50D7104F1540072DF70BD70B5134674
:1090400000220546112900D10122074C33B12179B4
:10905000FEF7D6FB00226178284600E06178BDE883
:109060007040FEF7CDBB0000A8220020F7B51746E0
:109070000E0011D00098002560B1002421466846FA
:1090800001F057F918B1A0B23946B0476D1C641C05
:10909000142CF3D32846FEBD0020FEBD406802F02C
:1090A0003FBF000070B508B1012070BD1B4C00250A
:1090B000207B08B1257301E000F0A4F8207808288F
:1090C0002AD2DFE800F02904080C10291422BDE898
:1090D000704000F025B8BDE8704000F081B8BDE8F0
:1090E000704000F063B8BDE8704000F03FB8062063
:1090F00020706088094900EB8000283901EB80006E
:109100004068BDE8704001F077BF072020706560BF
:10911000BDE8704001F07EBF0F2070BDA82C00207C
:109120001149F0B48A1C00200346A1F128050C184F
:10913000A67A4EB1A37200EB800405EB8404E668C6
:1091400016B9247C012C0AD0401C80B20228EED330
:109150000B704B804B60F0BC41F61D507047108087
:10916000F0BC00F03DB80000A82C00200C4841885D
:1091700001EB8102A0F1280101EB8201CA6852B122
:109180000521017007480221818001680023012226
:10919000054801F0A7BA042202704968F6E700000A
:1091A000A82C00202C2300204C23002038B50A498D
:1091B000084803240B684268898803EB81015388BF
:1091C0000470DB1C00201B0400909B0B034801F083
:1091D00027FB38BDA82C00202C2300204C23002086
:1091E000074910B54888091D03F05EF818B1BDE8BD
:1091F0001040FFF7DBBFBDE81040FFF7B7BF00002E
:10920000A82C0020F0B51F481F490125067802242C
:109210008B88A0F12802082E19D2DFE806F0041886
:10922000181B222F2F170189491C01810021418021
:1092300080F80C1001EB810312F8233043B10023B6
:109240004418491C89B2A3720229F3D30570F0BDFA
:109250000123F5E742685288D21C1A448A800470C0
:10926000F0BD46880D6806EB860602EB860256685E
:109270000E60556013818C80062100E0072101708B
:10928000F0BD0000A82C00202C230020F0B50446DF
:10929000808821882E4D87B00646352937D0502941
:1092A00023D0522902D0542947D102E000F010FE09
:1092B00043E0182227496846FDF7D4F8ADF802606C
:1092C000304600F0CDFBADF8040000F04DF900226F
:1092D00029793046FEF794FA0022E9783046FEF705
:1092E0008FFA6846FFF79EFC27E0207B012824D1F7
:1092F000A07A012821D12089A0F5245102391CD15E
:109300000121304600F018FE03F04AFE15E0002768
:109310003A466979FEF774FAE088B0F5857F08D09F
:1093200038B9A089012804D1A07B08B1012700E049
:1093300000273946304603F0FFFC00220649A87892
:10934000FEF7F0F907B0BDE8F04003F0ABB900005C
:109350004C22002040D60200A96E020070B50446DF
:109360000078002814D1608800F0B2FD6588284696
:1093700000F094F928B107480122C1782846FEF789
:109380003FFA6088FEF792FFBDE8704003F008BE28
:1093900070BD00004C22002070B5154C00252570D2
:1093A000FEF70AFA6070FEF707FAA070FEF704FAFB
:1093B000E070FEF701FA2071FEF7FEF96071617846
:1093C000182913D0A178182910D0E17818290DD0C8
:1093D000217918290AD0182808D004F10C0005605A
:1093E000BFF35F8F01202070002070BD032070BD8F
:1093F0004C2200207CB504460078082837D1607ADA
:1094000058BB207A1C4E4FF6FF75012811D0072853
:1094100002D008282BD121E0A08800F06BFA044686
:10942000A84224D0012100F087FD2046FEF73EFF30
:109430001DE0A0886A46012101F034FF68B9019857
:10944000007850B1A08800F055FAA8420FD0012250
:10945000F178FEF7D5F903F025F908E0F068012866
:1094600005D1BFF35F8F044900200C310860BDE8CF
:109470007C4003F095BD00004C22002010B5002375
:1094800003700121164C41708170A1680A46491C85
:10949000A160991E017102F5FA628260017302EB0C
:1094A000C2010522B1FBF2F101F548610161E168F9
:1094B0004161216981610421017704F10C00817906
:1094C0001B31C9B281713B2908D93C39817141797D
:1094D000491CC9B241713B2900D9437110BD00003C
:1094E000182200202DE9F04180460246012000218B
:1094F000FCF7A9FF1A4F05460E467868FDF786FC73
:1095000000280CD1174CD4E9062110462A4001EA64
:1095100006031A4305D0A843B143C4E90601BDE8D8
:10952000F081404601F09AFC30B1D4E904012843AF
:109530003143C4E9040105E0D4E90410A943B04370
:10954000C4E90410D4E9060128433143C4E9060103
:10955000A1687868BDE8F0410022FDF713BC000067
:1095600060D70200D02200201CB5054AD2E90212C1
:10957000CDE900120022694601F0E5FF1CBD0000A4
:109580005CD6020003484FF6FF7181800121017013
:10959000002070475C2200202DE9FC41804600F04D
:1095A0005FFA002403250127A0F57F412646FF39F5
:1095B00008D06A46082101F075FE18B90198841D8B
:1095C0008688056832462B4621464046B1DF04288E
:1095D00004D0082804D00B2808D002E0112000E0B5
:1095E0000020002F00D10B20BDE8FC810027A80738
:1095F00001D50125E6E73443F5D0002426460325AE
:10960000E0E72DE9FC41804600F02AFA0646A0F585
:109610007F40FF380ED001252A466D1C0027ADB2D1
:109620006B460821304601F05DFE040006D0072C91
:1096300025D025E043F20200BDE8FC810199032317
:109640000A1D0B604046891DB2DF040004D00C2CBB
:1096500009D0052C09D009E032460821104601F056
:10966000A7FE04460CE0012700E000240821304654
:1096700001F094FE00B10324002FCDD100E00C24B2
:109680002046D9E704488088A0F57F41FF3901D002
:1096900003F012B8704700005C2200200EB502A94A
:1096A000019100F0DDF96A46012101F0FBFD08B1EE
:1096B00000200EBD019800780EBD00002DE9F0419C
:1096C00007464FF6FF760A48B3DF10B10320BDE826
:1096D000F081074C43F20305A41E324661883846E8
:1096E000AFDFA842F3D16088401C6080F5E700003E
:1096F0005E220020428800EB82020C328A4201D9AD
:10970000022070478188A1F57F42FF3A03D000888C
:1097100008B10020704701207047884204D20068D9
:10972000401C01D0012070470020704730B50878F8
:10973000002300B101234C780CB143F0020320B1A7
:1097400043F001030C7B086901E00C79886864F33D
:109750001F605070050A9570050CD570000E1071D1
:109760004C78052084B18C8A5471240A94718C7DC4
:10977000D471CC7D14720C7E54724C7E94728C7EAB
:1097800043F00203D4720C208C7824B1097F115469
:1097900043F00403401C137030BD3EB50278022331
:1097A0000C46B3EB520F17D1B0F80110ADF8001012
:1097B000C1788DF802108188ADF8041080798DF899
:1097C000060002AA01A92046FDF7FAF9032202A920
:1097D0006846FCF76BFE08B100203EBD01203EBD8F
:1097E00070B50D460446142810D2FEF729F868B16A
:1097F000084904EB840001EB4000D0F80210296016
:10980000C188A980007AA871002070BD43F20200CF
:1098100070BD00003C27002070B5018892B010296F
:1098200061D1011D2C226846FCF71CFE9DF8040046
:109830004FF6FF7603213446B1EB500F2BD001F0E9
:1098400041FE9DF804006D4640080ED001280CD062
:10985000022820D118E00D99281D1131FDF75EF97D
:1098600018B100BFBDF82C4015E00CAA0BA90720C9
:1098700001F0FCFD0028EED10DE00D99281D491CDA
:10988000FFF78BFF0028EDD10CAA0BA9072001F0F0
:10989000EDFD0028F1D1BDF80000B44200EB8001DD
:1098A000124820F8114000EB41000199C0F8021065
:1098B000BDF80810C1809DF80A10017213D0BDF8E0
:1098C0000000ADF82E000020ADF83040084E8DF8B5
:1098D0002C000BAD044600BF56F8241028468847DC
:1098E000641C022CF8D312B070BD00003C2700208D
:1098F00070D602002DE9F0414FF6FF760546B042E2
:1099000013D00B4F002400BF04EB840037F8100085
:10991000A84206D12046FDF793FF10B12046BDE8CE
:10992000F081641CA4B2142CEED33046F7E700009B
:109930003C2700203EB50C46054601F0C3FD0BE078
:10994000BDF80000A04207D02846029900F00EF8AA
:1099500010B1BDF800003EBD01AA6946072001F024
:1099600085FD0028ECD14FF6FF703EBD2DE9F0419A
:109970000C46054600F1110701F111061022491CA1
:10998000401CFCF793FD48B9681C00F04BF928B166
:10999000601C00F047F908B1012400E000243146C2
:1099A0003846FDF7BBF83B780222B2EB530F0CD0E0
:1099B0000321B1EB530F08D03378B2EB530F04D02F
:1099C000B1EB530F01D0012100E00021084201D189
:1099D0008C4302D00120BDE8F0810020FBE7018824
:1099E00011B9421892780AB101207047491C082920
:1099F000F7D30020704710B50C460346FFF7EFFF82
:109A000000280AD018882188884205D10822A11C84
:109A1000981CFCF74BFD08B1002010BD012010BDC3
:109A2000142804D2024A00EB800022F8101070477C
:109A30003C27002070B50546FFF75CFF044628462A
:109A400001F033FC002808D1142C06D2034B04EBA0
:109A500084024FF6FF7123F8121070BD3C270020DE
:109A600010B50446142808D2FDF7EAFE28B10449CF
:109A700004EB840031F8100010BD4FF6FF7010BDEC
:109A80003C2700203EB5044601F01CFD0EE0019984
:109A900020464631FFF7AFFF28B9019920462A3109
:109AA000FFF7A9FF10B1BDF808003EBD6A4602A944
:109AB000072001F0DBFC0028E9D14FF6FF703EBD26
:109AC00010B50A4941600A4800F048FC58B901F055
:109AD00073F807491C238C22087404488C39001F32
:109AE000006800F0A7FB002010BD000094D7020022
:109AF000542D00202DE9F0412D4F002518B17D6037
:109B00000120BDE8F0810879012258B1294E0128D1
:109B10000CD0274C4FF002080834022821D003282B
:109B200042D128E00A7101F075FA3BE05FF00000D5
:109B300000EB800116F82110022908D0401C80B2E9
:109B40000228F5D33A707D6041F61D50D9E700EB4D
:109B5000800006F8205006EB8000406801F04CFAC7
:109B600020E00D71A4F8048000230122124821682E
:109B700000F0B8FD16E00D71206801F03DFA0D49C6
:109B800023682831498801EB810206EB8201D1F874
:109B900004C0C4F800C04B60A3880B81A4F8048003
:109BA00006F822500028ACD07D600E20A9E7000006
:109BB00024230020802C00204C2300200146034851
:109BC00002888A4200D000207047000094260020BE
:109BD0000248007A002800D001207047542D002050
:109BE000F0B58488A518944200D82246A41AC288E9
:109BF000D6189A4200D81346D21A4B880788BB421F
:109C00000CD34088834209D88888A04206D3A84252
:109C100004D8C888904201D3B04201D90020F0BDD9
:109C20000120F0BD0021425C0AB101207047491CAF
:109C30001029F8D300207047800701D0002070471A
:109C4000012070470A4810B5807860B1002401E017
:109C5000022C06D02046FEF7D9F8641C042CF7D35A
:109C600010BD0324F6E7BDE81040FEF7EFB8000092
:109C70002C22002003480179C90702D00078FEF7A2
:109C800029BA70472C220020172101804180002131
:109C9000017141711B218171C17170472DE9FE4F26
:109CA000254F984691460D00824601D000260DE0D2
:109CB000684600F095FA6A460021504601F06AFABB
:109CC0003878009E10B99DF8090098B14A4631468F
:109CD000504602F051FF0446014600225046FFF76D
:109CE000ADF90D2C26D008DC24B3082C22D00B2C87
:109CF00009D11FE00520BDE8FE8F112C0ED0A4F580
:109D00004050023816D00325B8F1000F04D0324677
:109D100021465046FEF750FF2846ECE72A46F978E0
:109D20005046FDF76DFD4A46B9785046FDF768FD8F
:109D30000025E9E72546E7E7A82200202DE9F041C4
:109D4000194F0E46154604463978FDF741FD0028A7
:109D500027D0204601F0FEF9E0B12046B978FDF7A2
:109D600037FD08B1012700E0022704F5807080B2BA
:109D7000072101F013FB010004D0052902D0204681
:109D800002F07CFC2B46324639462046BDE8F041C5
:109D9000FEF7D8BC2A4631462046BDE8F041FEF722
:109DA0006BBEBDE8F0810000A022002070B5094D17
:109DB0000646A978FDF70CFD0446E9783046FDF724
:109DC00007FD014622463046BDE870400123FFF7FB
:109DD00065BF0000A82200202DE9F047394E00277A
:109DE00080463D46DFF8E090D6F804A057E003D067
:109DF0000446D0F81C8035E099F8002002EB4201BF
:109E0000521CD2B289F8002009EBC10199F8023046
:109E1000091D9A4201D189F8005048680A78044621
:109E2000012A12D0022A02D0032A3BD108E003F013
:109E300013F800B10127257434E00574C06900E00F
:109E400070680028F9D170602CE0207C50BB8868D5
:109E50006060C868A0600869E0604869A061F07847
:109E600000B165606268B168184B501A20F07F40FD
:109E7000984202D2A168084406E0881AA16820F03E
:109E80007F40814202D9081A206000E025606560A9
:109E90000120A56020742046E56102F0BFFFB8F103
:109EA0000000A4D199F8001099F801008142A3D1D3
:109EB00017B97168514502D00120BDE8F087002034
:109EC000FBE70000F0220020B02A0020FFFF7F0007
:109ED00030B587B00546002418216846FCF7DBFA48
:109EE000A5F57F40ADF80250FF3815D02846FFF7A2
:109EF00053FB98B10B2815D0112811D0A0F5405173
:109F0000023903D00146284602F0A4FB0948224644
:109F100081782846FDF774FC07B030BD0E2002E0C2
:109F20000124F3E70F208DF800006846FEF77AFE63
:109F3000ECE700004C2200200A4602494978FDF770
:109F40005FBC00004C220020ACB0FCF7F1FE08B171
:109F5000FCF7CEFE55490320FEF772F808B1FCF776
:109F6000C7FE69460020FDF795FF08B1FCF7C0FE6B
:109F70009DF8000002287CD05FF0000500F0EAFCAC
:109F800008B1FCF7B5FE00F0CBFD08B1FCF7B0FE60
:109F9000002469460120009400F01EFD08B1FCF782
:109FA000A7FE684600F05AFD08B1FCF7A1FE9DF837
:109FB00008003FA120F00F00401C20F0F0001030FE
:109FC0008DF80800062202A87CDF08B1FCF790FE9D
:109FD00000945020ADF80000A0200194ADF80200DC
:109FE000ADF804404FF4C870ADF8060068467ADF5B
:109FF00008B1FCF77DFE00212F4800F0EBF908B115
:10A00000FCF776FEAC216846FCF745FA02208DF895
:10A01000000001208DF802000621ADF810008DF837
:10A020007C008DF803104FF496702449229005911E
:10A0300044F250602390224829901F4869462030FE
:10A04000FDF7ECF808B1FCF753FE1B480121203066
:10A05000FDF7E1F802F0DCFB1C216846FCF71BFA77
:10A060004FF42030CDE900404FF4702002900320DF
:10A0700000E018E08DF80C00124805901248069098
:10A08000ADF80E408DF810406846FDF707FB08B1AB
:10A09000FCF72EFE01F07AFB2846FCF77FFD00BF9F
:10A0A00000F06CFCFCE7012568E70000897F0200F6
:10A0B0006167617A6F720000902300201C220020EB
:10A0C000F5AE020019AF0200F786020070B5144623
:10A0D00082880E4605462088111D0144921C994233
:10A0E00001D8FE2A01D90C2070BD521C32542088A0
:10A0F000FF21401C80B2208031542088401C80B257
:10A1000020808119288802F035FF2188084480B218
:10A110002080AA8842B1A96841B13044FCF7A2F975
:10A120002088A98808442080002070BD072070BDC9
:10A13000BFF35F8F00F0FDB8F8B50F460178144605
:10A140000546012901D1687830B12088821C9A42E5
:10A1500032D8012902D006E00720F8BD6978014411
:10A16000891C994228D8181A801E86B2ADF8006062
:10A170002188B81C084469467DDF0028EDD1297884
:10A18000022904D06878BDF80020904205D3BDF8BC
:10A190000000B04201D809200AE00820012905D1B9
:10A1A0006978B14202D8ADF8001001E0ADF8006066
:10A1B000BDF80010FE2901D90C20F8BD2288491CE9
:10A1C000B9542188491C89B2218078542088401CC8
:10A1D0002080BDF80010084420800020F8BD000059
:10A1E000034A00219268C0E90021816070470000A5
:10A1F000A822002070B54FF6FF750E46A84201D187
:10A20000002000E0401C84B208E02146304600F007
:10A2100090F808B1204670BD641CA4B2FF2CF4D99C
:10A22000284670BD10B5FCF740F808B1002010BDFD
:10A23000112010BD10B531B1B2FBF3F403FB1424AF
:10A240001CB1092010BD0E2010BD0160002141602D
:10A2500081608281C381084610BD70B50C460546F9
:10A26000FBF7D8FF002802D021882868084470BD79
:10A2700010B50A8849888A4203D1FCF70DF80120FD
:10A2800010BD002010BD70B50C460546FBF7E7FF7A
:10A29000002802D061882868084470BD10B50A887B
:10A2A00049888A4203D1FBF7D1FF012010BD00206D
:10A2B00010BD01F01F0301229A40D243490900EB6F
:10A2C0008100114600F053B80A4601F01F03012136
:10A2D000994010B552090C4600EB820000F052F88C
:10A2E000204000D0012010BD2DE9F04180460D46F0
:10A2F0000024481E012101EB501716E058F82400F5
:10A30000C04390FAA0F0B0FA80F020280CD200EB05
:10A310004416AE4208D231464046FFF7D5FF00282A
:10A32000ECD13046BDE8F081641CA742E6D828464F
:10A33000F8E74A0950F8220001F01F02012191407C
:10A34000084000D00120704701F01F0301229A400D
:10A35000490900EB8100114600F01EB8012100F010
:10A3600011B808B56A46FBF7ECFF009808BD08B5C0
:10A370006A46FBF7CCFF009808BD08B56A46FBF7B4
:10A38000E0FF08BD08B56A46FBF7B4FF08BD08B595
:10A390006A46FBF7A3FF08BD08B56A46FBF7AAFFAC
:10A3A000009808BD08B56A46FBF7D8FF009808BDBD
:10A3B000C20800F007030120895C984008407047FC
:10A3C00010B5C20800F00703885C01249C402043BC
:10A3D000885410BD10B560B10161172120F8021B2F
:10A3E00020F8021B1B2100F8021BFFF74DFC002088
:10A3F00010BD0E2010BD00002DE9F047B0F804A0FC
:10A400008EB00C465FEA0A0957D10188564E0127E3
:10A41000002524297BD006DC102909D0112929D058
:10A42000232926D199E03A2928D0552921D147E07E
:10A4300021792173C07BA61D012802D0022804D1F6
:10A4400001E0208800E06088308031887088814297
:10A4500008D94846A5DF10B1112802D002E0777173
:10A4600000E03771B179F07981426BD94846FEF747
:10A47000B2F967E0A01DFFF707FC63E022464089C0
:10A4800034F8061F814200D808466080172800D2A1
:10A4900017206080106970B1607960B1D6E9000161
:10A4A000CDE90001ADF802906088ADF804001369B1
:10A4B000694610469847657125710EB0BDE8F08772
:10A4C000C08804F10608172800D21720B8F8001039
:10A4D000814200D80846A8F8020088F804502846AF
:10A4E000B8F80010B5DF98F8050058BB206948B3EC
:10A4F000D6E90201CDE90001ADF80290B8F80200FA
:10A50000ADF804002046694622691AE0FFE7011D04
:10A510002C226846FBF7A6FFBDF80000BDF804201A
:10A5200004EBC0014A73226962B1D6E90423CDE984
:10A530000B23ADF82E00487B8DF8300022692046B1
:10A540000BA99047A07A0028B7D0E1885046A5DF34
:10A550000028B2D1A572E772AFE7017A207B88426A
:10A5600084D2014682E7000078D6020020B102784A
:10A57000DE2A03D0082070470E207047418000205B
:10A58000704760B159B10278DE2A0AD0096841608B
:10A59000DE2101704FF6FF714180002070470E20D0
:10A5A0007047082070477FB5054600294DD0002D23
:10A5B0004BD008780C46DE2847D1A88861888842AD
:10A5C00002D1204602F04AFD2888012825D0022821
:10A5D0003BD011283AD0512837D135F8040F618883
:10A5E000884232D1A978A81C02292ED1017A0429E7
:10A5F00003D0062901D0052927D10021009102228C
:10A600008DF8002001914FF4C07202910391ADF8D2
:10A610000420007A05280FD010E0297A204601296D
:10A6200013D1A988428891420FD10121017204B04F
:10A63000BDE8704002F012BDADF8041028886946EC
:10A64000B0DF002801D0616888477FBDA888618895
:10A650008842FAD14FF6FF7060807FBD00F18040E4
:10A660000068002800D00120704708B500F1804044
:10A67000002101600068009008BD000070B50B4C1F
:10A68000207808B185250FE00020A060606020617F
:10A69000E060074800F002FB054600F08DFA08B9BB
:10A6A00000F0E4FA01202070284670BD202A002026
:10A6B0006985020038B500258DF800506846FCF722
:10A6C000B5FB074CE068401EE060E06810B900F0A0
:10A6D000F5FAA5709DF80000FCF7CCFB38BD000032
:10A6E000202A00202DE9F0411F46164604000D46A1
:10A6F00016D02068B8B1C6B160680268501E284202
:10A7000015D172432046FCF722FA80B120683B46FF
:10A710003246D0F810C029462046BDE8F0416047D7
:10A720000E20BDE8F0810820FBE70920F9E71020A2
:10A73000F7E720B119B101600B68114618470E20E8
:10A7400070470000044801214174007A08B10020DC
:10A750007047012070470000542D0020012801D0CF
:10A76000032808D10449002201284A7400D000209F
:10A77000087401F025BC7047542D002070B50246C6
:10A78000022801D0032A45D1234C207A002841D049
:10A79000012833D0022831D120480023022A006842
:10A7A00002D0032A2AD11BE0E360017911B101290B
:10A7B00024D10DE0D0E90565711B4FF48056B142FC
:10A7C00000D33146294481614569A9420ED015E084
:10A7D0000169491C0161426991420FD1237213E062
:10A7E000E168491CE160082908D9E3602372022A64
:10A7F0000AD00D21FEF7B6F901F088FB607C28B184
:10A80000BDE8704000F0DEB90021F3E7BDE870401C
:10A8100001F0D6BB70BD0000542D00203423002071
:10A820002DE9F8431D46089F1646884604000DD0C2
:10A8300066B1206860B135B160684068B5FBF0F181
:10A8400000FB115030B10920BDE8F8830E20FBE772
:10A850000820F9E74046FCF774F990B13046FCF760
:10A8600070F970B12A4641462046FCF770F940B1B4
:10A87000009720682B463246C76841462046B847B5
:10A88000E2E71020E0E770B541EA4201DDE9045655
:10A890004FF0A04441EA830141EA052104EB800026
:10A8A00041EA0641C0F8001770BD70B541EA4201A7
:10A8B000DDE904564FF0A04441EA830141EA052155
:10A8C00004EB800041EA0641C0F8001770BD4FF06C
:10A8D000A04202EB8000D0F8002722F44032C0F8FA
:10A8E0000027D0F8002742EA0141C0F8001770475E
:10A8F00001224FF0A043824011B1C3F808257047F0
:10A90000C3F80C257047000018B5084B6C4601448D
:10A910001B68009306E000BF54F82030D3F81035D0
:10A92000401C08C28142F7D818BD00005CD7020065
:10A93000034908B50844002101600068009008BD83
:10A940000060004002494058012800D000207047B4
:10A9500000600040064910B500204870091D0860DD
:10A96000BFF35F8F0349044800F058F9002010BD81
:10A970003C230020D8D70200682D002008B5002015
:10A980008DF800006846FCF751FAF1EE100A20F04D
:10A990009F00E1EE100ABFF35F8F08494020C1F825
:10A9A00080029DF80000FCF765FA00F005F908B197
:10A9B00041DF08BD20BF40BF20BF08BD04E000E06C
:10A9C000FCF796B920B1034909680160002070477F
:10A9D0000E2070475CD80200FEB502460D460846C0
:10A9E000FFF7F0FF002838D10024009401940126DD
:10A9F00006208DF80020ADF8040002948DF8026066
:10AA0000694620202A6869DF00948DF801608DF87E
:10AA10000240019402948DF80340694640202A6860
:10AA200069DF0094019402948DF80040694601208A
:10AA30002A6869DF4FF4B06000900194029469467F
:10AA4000A1202A6869DF0094019402948DF80060C7
:10AA50006946A0202A6869DF0020FEBD60DF00286B
:10AA600002D1024A012111707047000047230020E3
:10AA700030B5144891B00078002820D05FF034053C
:10AA8000ADF8405010A903A861DF30B1052816D0F9
:10AA900011B0BDE83040FCF72BB903AC0A49684659
:10AAA00000F0BCF807E000BFD0E900212046904745
:10AAB000684600F0CAF802980028E1D0F4E711B027
:10AAC00030BD00004723002060D80200F8B5134CC9
:10AAD0002078C0B10120A07001F092FC112814D0A0
:10AAE000022001F0A5FC00258DF800506846FCF717
:10AAF0009DF911DF064625709DF80000FCF7BAF9B4
:10AB00002EB13046F8BD0820F8BD0020F8BDA57074
:10AB100002F0CAF8032001F08BFCF6E74423002082
:10AB20007CB5194C207808B108207CBD0120A070AC
:10AB3000002001F065FC112819D0002001F078FCFC
:10AB400012480026006801908DF800606846FCF706
:10AB50006DF90F4901A810DF05000AD00020207010
:10AB60009DF80000FCF786F92DB128467CBD002039
:10AB70007CBD0120F3E7A670667002F0B1F80120F9
:10AB800001F056FCF3E7000044230020F4D7020054
:10AB9000C16C02000EB50749684600F03FF805E0B9
:10ABA000D0E900108847684600F04FF80298002866
:10ABB000F6D10EBD10D802000148007870470000A1
:10ABC000442300200548817819B1007818B1FFF7B7
:10ABD0007DBF08207047FFF7A3BF0000442300207B
:10ABE0001FB568464BDF30B1052814D004B0BDE86E
:10ABF0001040FCF77DB8084901A800F00FF806E006
:10AC0000D0E900210098904701A800F01EF80398B1
:10AC10000028E6D0F4E71FBD7CD802000160096877
:10AC20004160AFF3008010B5D0E90021536899422C
:10AC300001D1002104E0D1E90034A34202D0194639
:10AC4000816010BD08314160F0E7816800290BD0B8
:10AC5000026892680A44826041684B689A4203D154
:10AC600008314160FFF7DFBF704700000948006806
:10AC7000012110F0010F08D14FF0E020C02280F830
:10AC80000024C0F88012C0F80011034901200860B8
:10AC90007047000000E100E0180500400649024648
:10ACA00000200B790BB1852070470A6001220A71E0
:10ACB00000224A7170470000C02200200449012090
:10ACC000086004480168C1F300410029FAD17047C7
:10ACD0000C00004018040040002802D00149800107
:10ACE0000847704771D702002DE9F04188460546B4
:10ACF00000F08CFD234E002828461AD0FDF730FBCB
:10AD0000304490F848008009032802D001280ED072
:10AD100007E04FF0A040D0F81005E84010F0010F18
:10AD200005D003212846BDE8F041FFF7D0BD022140
:10AD3000F8E700F077FD002822D02846FDF710FB49
:10AD400004464FF4807000EB84000F4F81B207EB94
:10AD50008400D0F8102542F00102C0F81025084602
:10AD6000FFF7E6FDB8F1000F0AD02846FDF7F8FA24
:10AD700056F82000002803D00120A040C7F80403A3
:10AD8000BDE8F081342A0020006000402DE9FC413C
:10AD9000DFF8BC80044608EB0400002790F930007F
:10ADA0001346C0170E46401C01D008274CE0B0786F
:10ADB0001946C0F340022046FDF7AEFA0546401C96
:10ADC00041D0B078410719D4C0070AD04FF0A04055
:10ADD00000EB8401D1F8000720F00200C1F8000761
:10ADE00007E000217378204600910A460191FFF7A1
:10ADF0005CFD174920465431FFF7E2FAB07880072E
:10AE000018D51448317800EB8500D0F81025124B86
:10AE10001A40C0F810254FF4F8524FF4403302EABC
:10AE2000042203EA01410A43D0F810150A43C0F88E
:10AE3000102509E008EB0500327810F8481F41EAB8
:10AE40008211017000E004273846BDE8FC81000053
:10AE5000342A002000600040FFE0FCFF4FF0A041DA
:10AE6000D1F81015C14011F0010000D00120704749
:10AE700070B5184D95F8580008B1082070BD002035
:10AE8000411E2A18401CC0B282F830102028F8D386
:10AE900000242046FDF732FA641CE4B20C2CF8D3EF
:10AEA00000240D49C0206C6581F800040126402073
:10AEB000891FC1F88002C1F800014FF4BE70FFF78E
:10AEC00037FD0649F007C1F8040385F858602046AD
:10AED00070BD0000342A002006E000E00060004061
:10AEE000034890F85800002800D001207047000067
:10AEF000342A002010B550B103280CD10220FDF7F0
:10AF000093F8002807D0BDE81040FBF7F1BEBDE87C
:10AF1000104001F0D7BC10BD0078002807D10448CC
:10AF20003B21408876DF002801D0FBF7E1BE704767
:10AF300018220020087828B1022802D102490020F6
:10AF40000870704701F00EBF1822002048B1064A71
:10AF50000168914205D140680449401802D0012897
:10AF600000D0032070470000DEC0ADDE02FEE10E1F
:10AF70008A7D022A04D90289CB881A44D21C028114
:10AF80004289C988511AC91E418170472DE9F04193
:10AF90000D460221904600F58056298000F10804F4
:10AFA000144F1BE031462046FEF7A4FB40B1B8F138
:10AFB000000F02D0012288F80020022816D004E0F9
:10AFC000A0687969884200D9786128886188084436
:10AFD000C01C2880608804EB80040C343146204675
:10AFE000FEF79BFB0028DDD1BDE8F0814FF48060C7
:10AFF0002880F9E70423002008B5002100910146CC
:10B000000823024A0248FFF70BFC08BD88D702005C
:10B010004C23002008B50020009004480823044A6F
:10B0200001680448FFF7FCFB08BD00002C2300204A
:10B0300080D702004C2300202DE9F05F0025DFF8C7
:10B040000891DFF808B12C464FF00308AA462F46B6
:10B05000D9F80C0000EB07363046FFF777FF78B3DE
:10B06000012847D0032862D100204FF4806200BF3E
:10B0700056F82010491C0ED004EB84010BEB810222
:10B08000A8F10100566003221FFA80F80BF8212076
:10B09000641CA4B24BE0401C9042E9D32C480168E8
:10B0A00079B104EB840102200BF821000BEB810144
:10B0B0004E600881254828304480641CA4B205E015
:10B0C00007E00221066081804FF0010A45F001058A
:10B0D0002DE004EB840100220BF821200BEB810111
:10B0E00001F110024E6030460831FFF74FFF45F086
:10B0F0000205CDE7BAF1000F0CD0022004EB840169
:10B10000134A0BF821000BEB810112684A60641CA2
:10B110000881A4B20E480022011D06603046FFF7E8
:10B1200035FF0B48808802280CD0082005437F1C7F
:10B13000BFB2032F8CD3B8F1020F00D20025E8B2C2
:10B14000BDE8F09F0420F1E74C230020802C002074
:10B150002C23002001494978FCF73ABBA0220020AB
:10B1600000B587B002228DF800200288ADF80220D9
:10B170004079400701D5012000E002208DF8080049
:10B180008DF809106846FDF771FD07B000BD00217C
:10B1900001F05EBD30B587B00C4605218DF800107A
:10B1A0001546ADF80200FEF75BFCADF804006846FA
:10B1B000CDE90245FDF768FD07B030BD70B5054D1E
:10B1C00006460024304655F824108847641C042C99
:10B1D000F8D370BDACD602007CB5104D002400BF82
:10B1E00004EB440005EB800002F096F8641C042C8C
:10B1F000F6D3502104208A00CDE900010949084B0B
:10B2000001F5A07000F04CFB08B103207CBD04499F
:10B210000120091F487000207CBD00006429002027
:10B22000742200201428002070B504460025C1684F
:10B230001A4A284600EB400302EB83035B688B420B
:10B2400004D100EB400002EB800003E0401C042826
:10B25000F0DB00202178082904D0092908D013291F
:10B2600014D112E0617A89B980B102F063F80DE07F
:10B27000617A59B950B100214160817A41F00201EF
:10B28000817207490120087003E001252046FFF77D
:10B2900095FF2846BDE8704000F02CBF64290020CF
:10B2A00070220020002300F015B938B504460020B4
:10B2B00008E08178204600F071F808B105280FD128
:10B2C0000098401C00906946204602F00DF80028C6
:10B2D000EFD1204600F078F9002802D0072800D0EE
:10B2E000032038BD2DE9F0471F00154681460E4664
:10B2F00004D0072E05D0082E06D102E00E20BDE8AE
:10B30000F0870DB1042D01D90720F8E74FF00008B0
:10B31000484601F0CFFF041E04D0207AA8420BD08B
:10B320000F20ECE7FF214FF6FF7001F0C3FF041E72
:10B3300006D0A0F80090A670607AFF2802D00AE03C
:10B340001120DCE72946144800F078FA6072FF28E3
:10B3500013D04FF001082572617A0F4800F0B2FA5D
:10B3600002000ED0ABB23146384600F0A3F9B8F176
:10B37000000F0FD0082E06D00CE0204601F0CCFFC5
:10B38000DEE70320BBE738886FF0050101EB8000A2
:10B39000796888800020B2E75429002010B501F0B8
:10B3A00089FF18B101F0C6FF002010BD052010BDB7
:10B3B00070B50C4606461546072901D0082C0ED15B
:10B3C000104600F00CF950B12146304601F072FFF2
:10B3D00038B105808470BDE8704001F017BF0720C8
:10B3E00070BD052070BD00004FF6FF71418001491E
:10B3F0000968084790D6020030B587B01748FDF7B6
:10B40000D7FD10B1032007B030BDFDF7F9FC08B13E
:10B410008620F8E700F0A0F9002002904CF2070423
:10B4200003900EE0694604A8FDF792FD009880881D
:10B43000A0F5404085B204A8FDF74AFD284600F07B
:10B4400047F902AA04A92046FDF769FD0028E9D0C2
:10B450000349012008700020D5E70000958C020008
:10B460006422002000F05AB900F05EB970B586B0D1
:10B4700014460E46054600F00BF940B105F5404074
:10B4800080B20F4A6946FDF74AFD40B902E001204B
:10B4900006B070BD03A96846FDF75AFD08B100204B
:10B4A000F6E7A570039840882080049860600398B0
:10B4B0008088A0F5404030806846FDF709FDE6E74A
:10B4C000682200200248002141608160704700002E
:10B4D00064220020F0B587B01F46154606460C468C
:10B4E000FF280AD8084600F0D3F830B104AA214654
:10B4F000304600F0B5F840B902E0072007B0F0BDD3
:10B5000002A904A8FDF724FD08B10520F6E7AC70F8
:10B510000298408828807FB1840039882646B1EBA4
:10B52000800F00D20C46039922466868FAF79AFF0A
:10B53000B44203D20C20E1E70398686004A8FDF749
:10B54000C7FC0020DAE770B586B016460C46054603
:10B55000FF2825D8A07800F09BF808B305F54040F7
:10B56000ADF80000A07803AA00F54040ADF8020055
:10B570006068019020880290A178284600F070F859
:10B580000528694603A80DD0FDF706FD68B1072818
:10B5900014D0082810D00E280ED0032006B070BD9D
:10B5A0000720FBE7FDF7FFFCF0E71EB1314603A8DB
:10B5B000FDF7C5FC0020F1E71120EFE78620EDE75D
:10B5C0004FF6FF7000F084B810B5FF2801D90720AE
:10B5D00010BD00F083F800F005F8002010BD00F069
:10B5E000C1B8000070B51C4D8CB00020687006908A
:10B5F0004FF6FF760790304603E0204600F080F8D3
:10B60000204600F08BF80446B04220D004F54040BC
:10B6100080B206AA08A9FDF78AFC0A28EDD004F535
:10B62000404080B2FDF7ACFB082812D000280ED0B5
:10B6300006460125182209496846FAF713FFADF8B6
:10B64000044002968DF80C506846FFF7CDFE0CB012
:10B6500070BD01206870FAE76422002094D60200D1
:10B660007CB5054616460C46084600F011F8002049
:10B67000009005F54045019004F54044A8B2A1B200
:10B680006B463246FDF744FC002800D005207CBD07
:10B6900007280DD001280BD0082809D0052807D08D
:10B6A000062805D0092803D0042801D000207047BF
:10B6B0000120704710B503EB83034FF6FF7404EAD3
:10B6C00003138170DB1C99084260018010BD0000EB
:10B6D0000149FCF715BF00009429002010B504466D
:10B6E000A0F57F40FF3807D004492046FCF708FF4B
:10B6F000A04201D1012010BD002010BDB4290020BE
:10B7000010B50446044900F019FE03492046BDE87F
:10B710001040203100F012BE942900200149FEF7AC
:10B7200069BD0000B429002070B50A49FEF762FD2A
:10B7300004464FF6FF7507E000F01EF838B10549E2
:10B740002046FEF757FD0446AC42F5D170BD2046B9
:10B7500070BD00009429002001484021FAF79BBEEB
:10B7600094290020FF2803D801460248FEF7E1BDD6
:10B770000020704794290020FF2803D80146024882
:10B78000FEF7D7BD00207047B42900201CB500F09B
:10B79000D3F908B1FBF7ACFA0020009001909DF8B6
:10B7A000000020F07E0040F00100303020F08000EA
:10B7B0008DF8000007208DF8010010208DF80200A0
:10B7C0009DF8030040F003008DF803009DF804008D
:10B7D00040F003008DF80400684600F071FB08B1EA
:10B7E000FBF786FA034800F055FB002801D0FBF771
:10B7F0007FFA1CBDB5B902000068012803D00228F9
:10B8000001D000207047012070470000044908441F
:10B8100090F93000082801DB0120704700207047B4
:10B82000342A00200449084490F93000082801D245
:10B830000120704700207047342A00202DE9F04194
:10B840000F4606002AD0306840B3706830B3FF243A
:10B85000002520E029467068FEF736FD80F00100E3
:10B86000BFF35F8F48B1FF2C00D12C46281B401C32
:10B87000B8420ED12046BDE8F081FF2C06D108E089
:10B880002146304600F032F8641CE4B2AC42F7D3F3
:10B89000FF246D1CEDB2B068A842DBD8FF20EAE7B8
:10B8A00070B5DDE9044558B151B14BB104FB05F663
:10B8B000964205D824B11DB180E83A00002070BD41
:10B8C000072070BD70B504000D460DD0206858B13A
:10B8D000606848B1FF2D07D0FEF72AFC20B1E1686F
:10B8E000206805FB010070BD002070BD70B504002C
:10B8F0000D4613D02068002810D0606800280DD0B5
:10B90000FF2D0BD0FEF714FC002807D060682946F5
:10B91000BFF35F8FBDE87040FEF7CBBC70BD000089
:10B9200070B505461B480C460078A8B1B4B128464E
:10B93000FBF730FFA0B10228207814D020F00100DE
:10B9400020702846FEF78CF8A0F57F412078FF395B
:10B950000CD040F008000BE0082070BD0E2070BD38
:10B9600043F2020070BD40F00100E9E720F008005A
:10B9700020702846FBF7C6FE217860F34101217054
:10B980002846FBF7E5FE217860F382012170002054
:10B9900070BD000078220020054A10B512782AB147
:10B9A00000F0D8FF082800D1112010BD082010BDDC
:10B9B0007822002010B5044600F0AEF8204600F0D2
:10B9C0000BF820780C2804D1BDE810400020FBF7CC
:10B9D000E5B810BDFDF734B9F8B505460178464C19
:10B9E0000020012604F1080715291AD2DFE801F02A
:10B9F0000B192719191931195C195C191919191919
:10BA00001919195E7700A88800F052F9862809D024
:10BA1000112807D0062804D0072802D0132800D008
:10BA2000A8BBF8BD6068A98827F81010401CC11792
:10BA300000EB517121F00701401A606058E0287A4C
:10BA4000012801D00028ECD1A888BDE8F84000F01A
:10BA500027BB20780028E4D16078D0B900236A465B
:10BA60001946184600F080F9050008D1BDF800001D
:10BA700000F014F9051E0BD0FBF73AF96670052D9E
:10BA8000CFD0062DCDD02846FBF732F9F8BD05E022
:10BA90006670FDF797F928B10828F7D0BDE8F8409F
:10BAA000FBF726B92670F1E76670EFE7207060704B
:10BAB000656800244FF6FF766019C11700EB5171DD
:10BAC00021F00701401A07EB40010888B04202D07C
:10BAD0000E8000F0E5FA641C082CEDDBD6E7207040
