:020000040000FA
:10000000285D0020F5030000FD030000150200003C
:1000100001040000030400000504000000000000CB
:1000200000000000000000000000000007040000C5
:1000300009040000000000000B0400000D04000093
:10004000310E00000F040000A9140000E1100000B0
:10005000ED1000000F040000510A0000990F00008D
:1000600045140000591400006D140000550F0000E5
:100070000F0400002D0F00000F0400000F0400000B
:10008000B5140000650F0000710E0000450A000065
:1000900005110000091100000F11000015110000EA
:1000A0001B110000211100008114000095140000B4
:1000B000410E0000450D000000000000000000009F
:1000C0000F040000510E0000610E0000F910000046
:1000D000890F0000F50B00000F0400000000000075
:1000E0000000000000000000000000000000000010
:1000F0000000000000000000000000000000000000
:1001000000000000000000000000000000000000EF
:1001100000000000000000000000000000000000DF
:1001200000000000000000000000000000000000CF
:1001300000000000000000000000000000000000BF
:1001400000000000000000000000000000000000AF
:10015000000000000000000000000000000000009F
:10016000000000000000000000000000000000008F
:10017000000000000000000000000000000000007F
:10018000000000000000000000000000000000006F
:10019000000000000000000000000000000000005F
:1001A000000000000000000000000000000000004F
:1001B000000000000000000000000000000000003F
:1001C000000000000000000000000000000000002F
:1001D000000000000000000000000000000000001F
:1001E000000000000000000000000000000000000F
:1001F00000000000000000000000000000000000FF
:10020000DFF80CD000F0EEFB00480047653B000033
:10021000285D0020094B1EF0040F1CBFEFF309807E
:100220001847EFF308800649064A884201D89042F1
:1002300002D88D464FF0000018470000B50B0000B3
:10024000285D0020283D002030B450E8012F93B2F3
:10025000C48923448489A34228BF1B1B0489A34269
:1002600002BFBFF32F8F002007E0C3EA020340E87C
:100270000134002CE9D14FF001000A6030BC704716
:1002800050E8012FC2EA024240E801210029F7D1DB
:10029000704730B450E8022F1FFAA2F3C488A3427B
:1002A00002BFBFF32F8F00200DE0C489234484894F
:1002B000A34228BF1B1BC2EA034340E80234002CC0
:1002C000E8D14FF001000A6030BC704750E8022FBF
:1002D000C2EA224240E802210029F7D170470346D2
:1002E00053E8022FD988B2EB324F4FF0000017BF0E
:1002F00092B241EA014142EA014104E05A68B2EB9C
:10030000324F08BF012043E80212002AE8D17047AB
:1003100030B4044654E8000F0D4644E80053002B67
:10032000F8D1156030BC704730B4044654E8000F73
:1003300040EA010544E80053002BF7D1156030BCBA
:10034000704730B4044654E8000F00EA010544E861
:100350000053002BF7D1156030BC704730B4044611
:1003600054E8000F80EA010544E80053002BF7D160
:10037000156030BC704730B4044654E8000F00EB01
:10038000010544E80053002BF7D1156030BC7047DD
:1003900030B4044654E8000FA0EB010544E80053D4
:1003A000002BF7D1156030BC704770B404464FF095
:1003B000000054E8006F0D68AE4207BF44E8002318
:1003C000012044E800630E60002B1CBF0020F0E712
:1003D00070BC704730B4044654E8000F88422CBF0C
:1003E000451A054644E80053002BF5D1156030BC92
:1003F000704700000648804706480047FEE7FEE7D2
:10040000FEE7FEE7FEE7FEE7FEE7FEE7FEE7FEE7C4
:1004100029110000010200002DE9F00F6FF0030424
:100420002DED0C8B5FEAD30AD0E901C7B0F800903C
:1004300004EB89040CEB04089FEDFE9A18BF4FEA09
:10044000D90B00F0C18100BF91ED000AB0EE493A2E
:1004500088ED000A91ED010AF0EE430A88ED010AE9
:1004600091ED020AB0EE431A88ED020A91ED030AFB
:10047000F0EE431A88ED030A91ED040AB0EE432A28
:1004800088ED040A91ED050AF0EE432A88ED050A8D
:1004900091ED060AF0EE433A88ED060A91ED070A5F
:1004A000203188ED070ADCED007A9CED017ADCED65
:1004B000026A9CED036ADCED045A9CED055ADCED02
:1004C000064AB0EE434A3D460CF11C0408F12008F0
:1004D0005FEA0B0600F02681D5ED008A94ED008AD4
:1004E00026EE280A65EEA89A25EE28AA27EEA8BAD5
:1004F00064EEA8AA67EE28BA26EEA8CA68EE28CA53
:10050000D5ED018A32EE000A32EEA92A73EE0A2AEC
:1005100030EE8BBA33EEAA3AD5ED020A74EE2C3ADD
:1005200071EE8C1AD4ED017A31EE2B1A27EE28DA0F
:1005300026EEA8CA66EE28BA25EEA84A65EE289AE5
:1005400024EEA8AA68EE28AA67EEA8CA94ED027A5B
:100550007BEE0D8A31EE0C1A71EEAB1A30EE040A06
:1005600032EE292A72EE8A2A33EE2A3A73EEAC3A38
:1005700066EEA0CA66EE20BA65EEA09A25EE20AA25
:1005800024EEA04A68EE20AA27EEA0BA27EE20CAE1
:10059000D5ED030AD4ED036A30EE0A0A32EE042ADE
:1005A00078EEAC8A31EE2B1A71EEA91A72EEAA2AF5
:1005B00033EE0B3A73EE8C3A66EE20CA65EEA0BAC3
:1005C00065EE209A24EEA04A28EE20AA67EEA0AAA3
:1005D00027EE20BA26EEA0CAD5ED040A78EEAC8A42
:1005E00031EE2B1A71EEA91A30EE040A32EE0A2A05
:1005F00072EEAA2A33EE0B3A73EE8C3A65EEA0CA7D
:1006000094ED046A65EE20BA24EEA0BA28EE204AE2
:1006100067EEA09A27EE20AA66EEA0AA26EE20CAD0
:10062000D5ED050AD4ED055A31EE2B1A71EE8B1A71
:1006300078EEAC8A30EE040A32EE292A72EE8A2A6B
:1006400033EE2A3A73EE8C3A65EE20CA24EEA0BA55
:1006500068EE20BA27EEA04A67EE209A26EEA0AAFE
:1006600066EE20AA25EEA0CAD5ED060A30EE040AF1
:1006700032EE292A27EE204A94ED065A72EE8A2A93
:1006800066EEA09A78EEAC8A31EE0B1A71EEAB1AD8
:1006900033EE2A3A73EE8C3A26EE20AA65EEA0AA33
:1006A00064EEA0BA28EE20CA27EEA0BA65EE20CAF2
:1006B000D5ED070A30EE040A32EE294A72EE8A9A24
:1006C00033EE2AAAD4ED074A31EE0C1A78EEAB8A43
:1006D00028EE20CA71EE8B1A73EEACAA66EE202AC1
:1006E00067EEA0BA27EE20BA26EEA02A25EEA03AA1
:1006F00065EE203A24EEA08A74EE222A78EE8C0A67
:1007000031EE2B1A71EE8B1A30EE022A39EE833A53
:100710007AEE233A3AEE884A20342035761E7FF46A
:10072000DBAE00BF19F0070636D000BF95ED008A9A
:1007300094ED000A241D67EE889A67EE088A26EE7B
:1007400088AA66EE08AA25EE88BA65EE08BA24EEF5
:1007500088CA20EE088AF0EE477AB0EE667AF0EEAC
:10076000466AB0EE656AF0EE455A70EEA90A31EEBF
:10077000281A71EE8A1A32EE2A2A72EE8B2A33EE8A
:100780002B3A73EE8C3A34EE084AB0EE645A2D1DC3
:10079000F0EE404A761EC9D1C2ED000A82ED011A80
:1007A000C2ED021A82ED032AC2ED042A82ED053A57
:1007B000C2ED063A82ED074A2032BAF1010A0CF185
:1007C000200C7FF441AE00BF13F0070A43D000BFF6
:1007D000B1EC010A3E1D0CF10404B9F10103A8ECCF
:1007E000010ADCED000A97ED001AB0EE490A00EEAE
:1007F000810A29D0B3F1004F7DD2002B24DD251FC3
:10080000341F13F0010F07D0D5ED010A94ED011A42
:10081000241D2D1D00EE810A5B1015D0D5ED010AB7
:1008200094ED011A00EE810AD5ED020A94ED021A48
:1008300002E000000000000000EE810A5B1E04F1EF
:10084000080405F10805E9D1A2EC010ABAF1010A90
:100850000CF1040CBCD14068A9F10104A3081FD01D
:10086000B3F1004F54D2002B1ADD624601461D46FB
:1008700092ED000A81ED000A92ED010A81ED010A74
:1008800092ED020A81ED020A92ED030A103281ED27
:10089000030A10316D1EEBD10CEB031C00EB0310AF
:1008A00014F0030202BFBDEC0C8BBDE8F00F7047E3
:1008B000B2F1004F42D2002A1ADD001FACF1040150
:1008C00012F0010F05D091ED010A80ED010A001D23
:1008D000091D52080CD000BF91ED010A80ED010AFC
:1008E00091ED020A083180ED020A0830521EF3D160
:1008F000BDEC0C8B00E002E0BDE8F00F7047F4ECBB
:10090000010A5B1EB6EC011A00EE810AF7D19BE7E3
:100910009CED000A80ED000A9CED010A80ED010AC1
:100920009CED020A80ED020A9CED030A0CF1100C0A
:1009300080ED030A10305B1EEAD1B1E7BCEC010A7E
:10094000521EA0EC010AF9D1D2E70000004870471E
:10095000A871000010B5431A934209D28318881871
:1009600003E010F8011D03F8011D521EF9D210BD5D
:1009700040EA01039B0703D009E008C9121F08C021
:10098000042AFAD203E011F8013B00F8013B521EA1
:10099000F9D210BDD2B201E000F8012B491EFBD202
:1009A00070470022F6E710B513460A46044619467A
:1009B000FFF7F0FF204610BD421C10F8011B002974
:1009C000FBD1801A704710B5002200E0521C835CF6
:1009D0008C5CA34201D1002BF8D1D8B2E1B2401A0D
:1009E00010BD0000064C074D06E0E06840F0010332
:1009F00094E8070098471034AC42F6D3FFF704FCA4
:100A00001C7700003C77000030B58C1810F8012BE3
:100A100012F00F0301D110F8013B120906D110F8B2
:100A2000012B03E010F8015B01F8015B5B1EF9D1BB
:100A300001E001F8013B521EFBD1A142E6D30020A8
:100A400030BD00000148006800470000740000202D
:100A50002DE9F04700268AB0DFF85091B0464FF4F8
:100A60008075012437460696284604F0DDF838B133
:100A7000D9F80403204203D0284604F0CBF82643DB
:100A80002D1D64007F1CADB2082FEDD34FF4BE7452
:100A9000204604F0C9F848B1204604F0BBF846F0FF
:100AA000004606AA0121002004F0A0F8404D16F0EF
:100AB000FF0F15D00127002437420DD009EB840128
:100AC000D1F81005D1F81015C0F3042055F82420F2
:100AD000C1F3014102B190477F00641C082CEBD3A5
:100AE000002E5FDA4FF0FF30CDF8108054E0281967
:100AF00010F8507F90F9000027F0C008401C3BD050
:100B000007A9404603F022FA10B34FEA971940466E
:100B100001F03CF855F820701FB1B9F1030F03D074
:100B200006E0B9F1030F27D104A9404603F016FAF5
:100B30004FF0A04101EB8800D0F8000706A9C0F3F0
:100B4000014A404603F002FA18B1BAF1020F03D08D
:100B500012E0BAF1030F0FD1B9F1030F08D1BAF1C6
:100B6000020F1DD00221404604F015F8761CF6B2A3
:100B700017B149464046B847641C042CB7D3002E31
:100B800010D06A460121002004F030F80699009840
:100B9000884207D006900498002634460790A6E7BE
:100BA0000321E0E70AB0BDE8F087000000600040E4
:100BB000F4090020054909680449091D0968002154
:100BC000491C1A29FCD300F003F8000028ED00E0CE
:100BD000BFF34F8F05480168054A01F4E0611143F6
:100BE0000160BFF34F8F00BFFDE700000CED00E098
:100BF0000400FA052DE9FC413F4E4FF48A75294661
:100C0000304604F019F83D4C70B12946304604F0E6
:100C100018F8607940F008016171880704D5C806AA
:100C200002D541F0200060714FF4827529463046AC
:100C300004F002F870B12946304604F002F86079F9
:100C400040F004016171C80704D0C80602D541F024
:100C5000200060714FF484773946304603F0ECFF92
:100C60000025B0B13946304603F0EBFF0420C6F84A
:100C70000803C6F80055214800212268103090472B
:100C80001E48002122680830904701202071BDE8ED
:100C9000FC81607981074FEAC07103D519B1010762
:100CA00005D4F4E709B9010703D48107EFD441075C
:100CB000EDD520F00C00607181060BD520F02000EE
:100CC00040F010006071226802B00121BDE8F041DF
:100CD00000201047D4E90412CDE90012D4E9021231
:100CE000A560E560C4E9041240F01000607122685C
:100CF000012168469047CAE700500240500A002090
:100D000000F01F02012191404009800000F1E02025
:100D1000C0F88012704700F01F0201219140400985
:100D2000800000F1E020C0F80011704700F01F02C1
:100D3000012191404009800000F1E020C0F800123C
:100D4000704700002DE9FE434FF48078404604F0E0
:100D500005FA0126334F344C002570B3404604F0A9
:100D600005FAA07C26EA000104EB810252682AB948
:100D7000627C022A02D0E07C90B119E08DF8085024
:100D8000E574627C022A08D004EB8000426801927C
:100D90004560A1748DF8006007E001956674F9E77D
:100DA00097E807008DE80700E674216868468847E1
:100DB000607C022828D1667426E0FFE74FF4827831
:100DC000404604F0CBF9F8B1404604F0CFF917489B
:100DD000056065748DF808508DF80050A07C04EB18
:100DE0008001486820B101904D60216868468847BD
:100DF000A07C864304EB8600416821B101914560E7
:100E0000216868468847A574207D002808D00C37E3
:100E100097E807008DE80700257521686846884730
:100E2000BDE8FE83706E0000680A002000D5014016
:100E300010B504F0A3FBBDE8104004F067BA000051
:100E40000149024802F024BD800A002000C0014090
:100E50000149024802F01CBD880A0020001002402F
:100E60000149024802F014BD900A0020002002400F
:100E70002DE9F8432A48DFF8A4804FF48072016816
:100E8000284E002589B1D8F8041311F0010F0CD0B9
:100E9000056000680090244862F30F0400687268DF
:100EA00060F317443946204690471D484FF482713D
:100EB000001D0268BAB1D8F8042312F0020F12D054
:100EC000056000680090184861F30F040C3000685A
:100ED00060F31F4414483C300068726860F30F07E9
:100EE0003946204690470E484FF4847208304146F8
:100EF0000368002B10D0D1F8041311F0040F0BD0AD
:100F0000056000680090204662F30F00726801B02F
:100F10003946BDE8F0431047BDE8F88300200140A2
:100F200000210140840000200C250140064882B0C9
:100F30000021016000680090044800680449C0B2C4
:100F4000496802B00847000000D1004008D50040C1
:100F50008C00002003220021014802F0E7BC0000C1
:100F600000B0004007480021C0F84011C0F844110B
:100F7000C0F84811C0F84C11C0F80011C0F80411B5
:100F800005F030BC0010014004220121014802F0AC
:100F9000CDBC0000004002402DE9FE434FF48278B2
:100FA000404604F095F94C4F00254C4C012600B307
:100FB000404604F095F994F82E0010B194F82F10E3
:100FC000D1B18DF80050616801912189ADF8081008
:100FD000E26832B1218B618362602181E56010B1EA
:100FE00002E0257400E03E6021686846884784F886
:100FF0002F5094F82E0060B34FF48077384604F0F9
:1010000067F930B3384604F06BF9628B94F82D1011
:101010008A420AD9A2EB010080B260832289A2EB46
:101020000000626802EB400005E007D1E06828B1EB
:1010300084F82F60658304F043F904E08A4202D10A
:1010400084F82F606583404604F04AF92248001D69
:1010500006604FF48877384604F03AF948B13846CC
:1010600004F03EF9257402208DF8000021686846DE
:1010700088474FF48A77384604F02AF928B1384671
:1010800004F02EF92574BDE8FE834FF000484FF4BC
:101090008C7967691DE000BFB7FA87F028FA00F184
:1010A00009EB80058F43284604F012F988B12846E1
:1010B00004F016F9A5F58C75E8088DF8040045F3E1
:1010C0008000401C8DF800608DF80500216868469E
:1010D0008847002FE0D1D6E700700040980A002032
:1010E00001480068004700005C00002001480068DB
:1010F000004700006400002001480068004700002D
:101100006C00002005F0E0BA012005F0A7B902202C
:1011100005F0A4B9032005F0A1B9042005F09EB99B
:10112000052005F09BB90000F0B5B5480023021D6D
:101130000178101D01254FF0805406290BD1167837
:10114000360708D10678C6F30316032E06D0042E00
:1011500004D0052E02D0062907D00EE0B4F824638F
:10116000A84FC6F304263E6002E01678360704D185
:101170000678C6F30316032E02D0062904D00FE02A
:10118000A24FA14E7E670EE01678360708D106788A
:10119000C6F30316032E06D0042E04D0052E02D06B
:1011A000062907D00EE0D4F84462994FC6F34236C0
:1011B0003E6002E01678360704D10678C6F30316BF
:1011C000032E02D0062906D011E0924E376827F090
:1011D000807737600EE01678360708D10678C6F3B8
:1011E0000316032E06D0042E04D0052E02D00629A5
:1011F0000AD011E04FF08046C6F80C31C6F8103125
:10120000834E361F336002E01678360704D1067825
:10121000C6F30316032E02D0062905D00CE07C4F3E
:10122000032664373E600AE01678360704D1067854
:10123000C6F30316032E02D006290DD014E0764F14
:1012400005263E60744E78363560734E083633603E
:101250003F263F1D3E6002E01678360704D106782F
:10126000C6F30316052E02D0062957D062E06B4E56
:1012700036686B4F3E60694E361D36683F1D3E60D6
:10128000664E083636683F1D3E60644E0C36366842
:101290003F1D3E60614E103636683F1D3E605F4E1A
:1012A000143636683F1D3E605C4E183636685C4F1B
:1012B00020373E60594E1C3636683F1D3E60574E03
:1012C000203636683F1D3E60544E243636683F1D3A
:1012D0003E60524E283636683F1D3E604F4E2C36DB
:1012E00036683F1D3E604D4E303636684C4F4037B5
:1012F0003E604A4E343636683F1D3E60474E3836B3
:1013000036683F1D3E60454E3C3636683F1D3E60A8
:10131000424E403636683F1D3E6002E01678360782
:1013200008D10678C6F30316032E06D0042E04D087
:10133000052E02D0062907D019E0D4F85812394AF0
:1013400001F04F01116002E0117809070FD1007818
:10135000C0F30310032803D0042801D0052806D1C8
:1013600031480168C90702D06FF001010160D4F86B
:101370003001062808D1D4F83401062804D12B48BE
:10138000016841F48061016022487438016841F4C9
:1013900070010160BFF34F8FBFF36F8F4FF01021CB
:1013A000D1F80002002803DBD1F80402002822DA79
:1013B0001F4A15601F480468002CFCD01524C1F892
:1013C00000420568002DFCD0C1F8044201680029E4
:1013D000FCD0136001680029FCD0BFF34F8F0D488B
:1013E000F0380168144A01F4E06111430160BFF371
:1013F0004F8F00BFFDE7124910480860F0BD0000A4
:10140000E00F00F0403501400DF0ADBA00C00740DC
:101410003C050040FCED00E01056004004040010C4
:1014200020C50040E40E0040000400403C1700408E
:1014300004E5014000E401400400FA050090D003F7
:101440000001002004220249024802F0E5BA00002F
:10145000580B00200080004004220249024802F09C
:10146000DBBA0000640B0020009000400422024917
:10147000024802F0D1BA0000700B002000A000402A
:1014800006220249024802F0C7BA00007C0B002085
:1014900000A0014006220249024802F0BDBA000045
:1014A000880B002000B001400148006800470000A0
:1014B0007C00002038B50848D0F804034FF0000441
:1014C00010F0010F06D005484068804704480460CA
:1014D0000068009038BD000000000140A40000201A
:1014E0000001014002E008C8121F08C1002AFAD119
:1014F00070477047002001E001C1121F002AFBD194
:101500007047800701D00020704701207047C368F2
:101510008B4206D811440069491E814201D801203E
:1015200070470020704700F003B800F009B80000D1
:1015300072B602480168491C01607047C40000206F
:1015400003490868401E086000D162B67047000079
:10155000C40000202DE9FF4106460D461446002731
:101560000020039002900190804624B1A06910B140
:10157000A069006810B94FF0FF372AE0A069C07970
:1015800010BB23462A4602A903A801F0E1FF0DE0A3
:10159000214603A800F0C0FBA06990F808804346EC
:1015A00001AA03A93046009405F088F9BDF80C00A3
:1015B000BDF808108842EBDB9DF804002870BDF8E8
:1015C0000C00A169488104E022462946304601F01A
:1015D00097FD384604B0BDE8F081F8B50446002513
:1015E000002000900027242614B1A069006810B9DB
:1015F0004FF0FF3530E0204604F086FB2146684678
:1016000002F050F805463DBBA0698788A069808834
:10161000BDF80010884203DDBDF80000A169888094
:10162000A0698079022809D1BDF800001930B842BC
:1016300004D8A06980881930A1698880A078012821
:1016400001D146F08006A1698B8860780A6831462E
:10165000D4F81CC0E04705462846F8BD2DE9F04106
:1016600005460E4617461C464FF000080CB1E069CF
:1016700010B94FF0FF3814E0A078012801D145F0EF
:10168000800560783B4632462946D4F81CC0E047C6
:1016900080460120616A8847B8F1000F01D06FF0E1
:1016A00001084046BDE8F081F8B50446032620460F
:1016B00004F0ACF805464DB9A078012806D12346C0
:1016C000012269467F20FFF7C9FF0546F5B90020D2
:1016D000207006E02346012221460020FFF7BEFFCE
:1016E0000546301EA6F10101CEB202D02078D128E5
:1016F000F0D14DB92078D12806D1FF20E0702046E6
:1017000000F03AF9054601E06FF002052846F8BD01
:101710002DE9F8430746884614460025002000902E
:101720004FF0470907F0FE060CB9451E37E0234687
:10173000012269464846FFF791FF05467DBB002E12
:101740000BDDB8F1010F04D19DF80000304300908B
:1017500003E09DF80000B043009023460122694653
:10176000484600F0A8F80546CDB92346012269464F
:101770004846FFF773FF05468DB99DF8000000F05D
:101780001000A169C8719DF8000000F0E000A16997
:1017900008729DF8000000F00200A16988712846D7
:1017A000BDE8F883F8B505460C46002600954627A7
:1017B0000CB9761E06E0234601226946384600F041
:1017C0007AF806463046F8BD70B504460D46002648
:1017D00060780E2857D2DFE800F0070D20191A268E
:1017E0002C3832133E444A502946204604F030FB40
:1017F000064649E02946204604F083FC064643E0BD
:101800002946204604F00DFC06463DE000BF29466F
:10181000204604F0BDFC064636E02946204604F08A
:101820008EFC064630E02946204604F018FC0646A9
:101830002AE02946204604F04FFB064624E02946CC
:10184000204604F0BFFB06461EE02946204604F071
:101850008AFB064618E02946204604F066FB064649
:1018600012E02946204604F0B8FC06460CE0294662
:10187000204604F0CFFC064606E02946204604F048
:101880003BFD064600E000BF00BF304670BD70B5AE
:10189000044600250CB1606A10B94FF0FF3508E02E
:1018A000204604F005FC05461DB9204604F0F5FC71
:1018B0000546284670BD2DE9F04705460E461746F9
:1018C0001C464FF00009C8460CB1206A10B94FF011
:1018D000FF3930E0A078012801D105F07F05207A9A
:1018E000112802D0207C15280BD160783B46324667
:1018F0002946D4F820C0E04781460120616A884724
:1019000014E011E006EB0802607801232946D4F8C0
:1019100020C0E0478146681CC5B20120616A884743
:1019200008F1010000F0FF08B845EBDBB9F1000F4A
:1019300001D06FF001094846BDE8F08770B5054653
:1019400000240DB1686A10B94FF0FF3412E0284648
:1019500004F09CFA04466CB9284604F078FC04466E
:1019600044B92846FFF793FF04461CB9284600F007
:1019700007FA0446204670BD38B50446B6200090EC
:101980000CB1606A10B94FF0FF3518E02346012210
:1019900069467E20FFF78FFF05460F20616A884762
:1019A0004DB9A078012806D12346012269467F203F
:1019B000FFF754FE054615B9204601F0C9F8284640
:1019C00038BD00002DE9FC4782460E4617461D46ED
:1019D000002012490870804646F080000190DFF830
:1019E0004090681CC0B24B46012201A900900D48EE
:1019F00002F018FF00BF094800780028FBD000243F
:101A000005E00749601C085C3855601C84B2AC4294
:101A1000F7DB4FFA88F0BDE8FC87000002000020E9
:101A200070070020DC6D00002DE9F84F0F4690464E
:101A30001C46002015490870834604F1010A5046EF
:101A400002F09CF8054607F07F002870002604E0AD
:101A500018F80610701C295486B2A642F8DB002044
:101A60000090601CC2B200232946094802F0DAFE49
:101A700000BF064800780028FBD04FFA8BF92846B3
:101A800001F034FC4846BDE8F88F00000200002059
:101A9000DC6D00002DE9FC410646C0074FF0000553
:101AA0000ED0104F00240122385D0095002311460E
:101AB000019503F030F8641C042CF4D300F01CF8FA
:101AC000B0070DD5074E0024361D0022305D0323DC
:101AD00000951146019503F01EF8641C042CF4D304
:101AE000BDE8FC810B6E00000249085C012103F097
:101AF00071B800000B6E000010B500242046FFF7FF
:101B0000F3FF641C042CF9D310BD30B48268046860
:101B1000531C8360A154D0E901128A4202D330BC25
:101B200002F0A6BE30BC704705494FF0FF320828CE
:101B300041F8202002D3084480F848207047000074
:101B4000F4090020F0B54FF0FF3512B1002308264C
:101B500001E008230C260C4C05E000BF54F823706C
:101B60007F1C04D05B1CB342F8D32846F0BD261876
:101B70005DB286F8305044F82310002AF5D1E11800
:101B800081F84800F1E70000F40900200249084408
:101B900090F9300070470000F40900202DE9F04171
:101BA000044680680F46D0F83C11C27C11F0010653
:101BB000817CA1EB0203DDB20AD07F2901D3002D85
:101BC0007ED0A068C17C08440021077566B113E08F
:101BD0007F297CD2002DF4D0831803F114012A460A
:101BE000481CFEF7B7FEECE7A068827C521CD2B21C
:101BF0008274A068143281544DB3204602F0FEF87E
:101C00008178C07881420ED1A06832A2C17C43188D
:101C100008212046143302F039FCA81BC1B220462B
:101C200000F0D6FE21E0204600F0EEF8A06829A2E0
:101C3000C17C431808212046143302F027FC2046BB
:101C400000F0D8F80121204600F06AFF0DE03EB117
:101C5000A068827C521CD2B28274A0681432815473
:101C60003A461DA1206902F0F6FDA168C87C401C1F
:101C7000C874204600F098FE0028204603D0BDE836
:101C8000F04100F0B1BE01F05CFB00281FD02046FF
:101C900002F0B4F80546C078A978401A401EC1B2D7
:101CA000204600F075FE204600F09EFEE878A978F8
:101CB000401AC1B2204600F03FFF2878401E00E0E5
:101CC00005E0C1B22046BDE8F04100F029BFBDE803
:101CD000F0810000257300002563000070B5054603
:101CE0000E463346022229464020FFF7B7FC044641
:101CF00084B93146284603F0F6FD044654B931460E
:101D0000284603F0D7FD044624B93146681C03F089
:101D100002FE0446204670BD0288921C8B699B8897
:101D20009A420EDA8A6912680388D25C802A08D146
:101D30008A6913680288521C9A5C12B98A6992886F
:101D40000280704770B505460E463346022229468A
:101D50004220FFF783FC044684B93146284603F04D
:101D600007FE044654B93146284603F0ECFD04460C
:101D700024B93146681C03F013FE0446204670BDAA
:101D800038B504460020009023460122694602200F
:101D9000FFF764FC05469DF80000401000909DF898
:101DA000000000F00F0000909DF80000012801D114
:101DB000C51F13E09DF80000022802D16FF0060550
:101DC0000CE09DF80000032802D16FF0070505E044
:101DD0009DF80000072801D16FF00805284638BD9E
:101DE0000069024A02A102F036BD00005C700000EA
:101DF000257300000069024A024902F02CBD000070
:101E000053700000F01D00000069024A024902F010
:101E100022BD000050700000F01D00008068D0F866
:101E20003C01C0F3C000704730B4406804682469C6
:101E3000A44630BC6047002801D0FEF7BDBD704706
:101E40002DE9F8431E4615468846074600241BE048
:101E5000786808EB04016B460268D2F80CC02A4689
:101E6000E047009804442D1A70B9B8680178032936
:101E70000AD000BFD0F83C118906FBD5D0F83C1140
:101E800021F02001C0F83C11002DE1D1002E01D03D
:101E900000983060BDE8F8832DE9F05F1C460A9E8B
:101EA00015464FF0000959B180B3017839B3426843
:101EB0003146284690473068D8B12660BDE8F09F8B
:101EC00014491548A1EB0008B5EBD80F11D2DFF883
:101ED0004CA00026834609E00BEBC6077868016832
:101EE0005AF82500FEF76FFD30B1761CB6EBD80F1F
:101EF000F2D3C4F80090E1E778682060DEE740683C
:101F000000EB0210016809B11860D7E7FFE7C3F8DA
:101F10000090D3E77C7700003C7700000C010020A4
:101F20002DE9F05F26484168F1B3DFF898B00E68FC
:101F30008146DBF8004087688078E11B21F07F450F
:101F4000ED1CB0B9DFF880804FF48030C8F844034E
:101F5000C8F804031120FEF7D3FE1120FEF7DBFEC4
:101F60004FF0010AC8F800A02F2003F0FBF989F810
:101F700002A0B54200D23546124BE8193C3320F09E
:101F80007F401860DBF800105A46091B21F07F41A2
:101F9000001B20F07F40C91C81420FD910681860D7
:101FA0002F2003F0DFF900E004E0BDE8F05F11202E
:101FB000FEF7BCBEBDE8F05F03F0B2BEBDE8F09F27
:101FC000B0000020041501400010014010B50024AD
:101FD0000FE0C4EBC4001E4B03EB0012C4EBC400C3
:101FE0001C4B03EB00111C231B48FEF715FA601C69
:101FF000C4B2052CEDDB00240FE0C4EBC400174B8A
:1020000003EB0012C4EBC400154B03EB00111C23BF
:102010001148FEF701FA601CC4B2052CEDDB002468
:102020000FE0C4EBC4000F4B03EB0012C4EBC40081
:102030000D4B03EB00111C230748FEF7EDF9601C64
:10204000C4B2052CEDDB00200849087010BD00006B
:10205000B804002068030020940200202805002016
:10206000D80300209805002048040020000000202C
:102070002DE9FC4104460D46002001908046009069
:102080002B46012201A95F20FFF7E8FA0646B6B900
:102090002078C0F301179DF8040020F00308CDF864
:1020A00004809DF804008DF8000060788DF8010030
:1020B0002B46022269465F20FFF7FDFB06463046AD
:1020C000BDE8FC812DE9F04107460E46154629463C
:1020D000384604F011F90446ACB9284600F08EFDEC
:1020E000044684B92946384601F07EFD044654B9B9
:1020F0002946304600F00AF8044624B929463046FD
:10210000FFF7B6FF04462046BDE8F081F8B5044667
:102110000D460020009000272B46012269465920D9
:10212000FFF79CFA064696B99DF8000020F080075C
:102130002078C0F38010802101EAC010384300905D
:102140002B46012269465920FFF7B5FB064630466B
:10215000F8BD2DE9F84305460F460024002600206F
:1021600000903B46022269466720FFF777FA8046D7
:10217000B8F1000F26D19DF8004024F03F062878E2
:1021800000F03F0040EA06048DF800409DF8014051
:1021900024F030062888C0F34120302101EA0010E5
:1021A00040EA060424F007062888C0F3821040EABB
:1021B00006048DF801403B46022269466720FFF77E
:1021C0007AFB80464046BDE8F883000038B500241D
:1021D00003F0C2F910B903F087F904460848006813
:1021E000009003208DF80100064A69461B2003F089
:1021F00013F9044601211B2003F0BCF8204638BD2A
:10220000086E000083380000F8B504460D46002033
:10221000009000272B46012269465820FFF71EFA3E
:10222000064696B99DF8000020F080072078C0F39C
:102230004010802101EAC010384300902B46012253
:1022400069465820FFF737FB06463046F8BDF8B51B
:1022500004460D460027002000902B4601226946C7
:102260005C20FFF7FBF90646CEB99DF8000020F090
:10227000C0072078C0F3C100C02101EA80103843B4
:102280008DF80000A0788DF8010060788DF80200CC
:102290002B46032269465C20FFF70DFB06463046BD
:1022A000F8BD2DE9F84304460F46002500200090B4
:1022B0003B46012269465420FFF7D0F98046B8F129
:1022C000000F2DD1A61C207801280CD19DF800000C
:1022D00020F010053078C0F30010102101EA001042
:1022E000284300900BE09DF8000020F02005307896
:1022F000C0F30010202101EA4010284300909DF80F
:10230000000020F00F053088C0F3431028430090F0
:102310003B46012269465420FFF7CDFA804600BFB4
:102320004046BDE8F8832DE9F84306460F460024F1
:10233000002000903B46012269465320FFF78EF9AA
:102340008046B8F1000F65D1B51C307801282BD13B
:102350009DF8000020F008042888082101EAC00048
:10236000204300909DF8000020F004042878C0F37A
:102370004000042101EA8000204300909DF8000005
:1023800020F002042878C0F38000022101EA400016
:10239000204300909DF8000020F001042878C0F34D
:1023A000C000204300902DE09DF8000020F0800444
:1023B0002888802101EAC010204300909DF8000089
:1023C00020F040042878C0F34000402101EA80104A
:1023D000204300909DF8000020F020042878C0F3EE
:1023E0008000202101EA4010204300909DF8000069
:1023F00020F010042878C0F3C000102101EA00107A
:10240000204300903B46012269465320FFF753FAD0
:10241000804600BF4046BDE8F883F8B504460D4647
:102420000020009000272B46012269465820FFF724
:1024300015F9064696B99DF8000020F08007A078AF
:10244000C0F3C000802101EAC010384300902B4641
:10245000012269465820FFF72EFA06463046F8BD9D
:10246000F8B504460D460027002000902B460122B7
:102470000DF102015C20FFF7F1F806461EBB9DF846
:10248000020020F00307A07800F0030038438DF825
:1024900002009DF8020020F00407A078C0F380003D
:1024A000042101EA800038438DF8020060788DF83D
:1024B000010020788DF800002B46032269465A203F
:1024C000FFF7F9F906463046F8BDF8B504460D4663
:1024D0000020009000272B46012269465920FFF773
:1024E000BDF8064696B99DF8000020F080072088C8
:1024F000C0F38020802101EAC010384300902B46B1
:10250000012269465920FFF7D6F906463046F8BD44
:102510002DE9FC4704460E46002001900027804626
:1025200000904FF05F093346012201A94846FFF7AA
:1025300095F80546BDBB9DF8040020F0FC072088F7
:10254000C0F3C500FC2101EA800038430190334606
:10255000012201A94846FFF7AEF905461DBB4FF021
:1025600062093346012201A94846FFF777F805467C
:10257000CDB99DF8040020F001072088C0F3402861
:1025800047EA080001909DF804008DF80100A0784A
:102590008DF800004FF06109334602226946484633
:1025A000FFF789F905462846BDE8FC872DE9F0418B
:1025B00007460D4616463146384603F09DFE044652
:1025C00084B93146384601F00FFB044654B9314610
:1025D0002846FFF77AFF044624B931462846FFF71C
:1025E00097FF04462046BDE8F0812DE9F8430546F3
:1025F0000F4600240026002000903B460222694638
:102600006520FFF72BF88046B8F1000F43D19DF805
:10261000004024F00306287800F0030040EA060496
:1026200024F00C062878C0F381000C2101EA800018
:1026300040EA060424F0F0062878C0F30310F021E5
:1026400001EA001040EA06048DF800409DF80140C0
:1026500024F03F062888C0F3052040EA060424F051
:1026600040062888C0F38030402101EA801040EA0B
:10267000060424F080062888C00B802101EAC010DF
:1026800040EA06048DF801403B4602226946652077
:10269000FFF711F980464046BDE8F883F8B50446D7
:1026A0000F460026607800903B4601226946602074
:1026B000FFF701F9054685BB3B46012269466220CA
:1026C000FEF7CCFF054645BB9DF8000020F00C0648
:1026D00020780C2101EA8000304300909DF8000032
:1026E00020F030062078C0F38100302101EA00108C
:1026F000304300909DF8000020F002062078C0F3DF
:102700004010022101EA4000304300903B46012284
:1027100069466220FFF7CFF805462846F8BDF8B5B0
:1027200004460D460020009000272B4601226946F2
:102730005920FEF793FF064696B99DF8000020F059
:1027400080072078C0F30010802101EAC0103843D0
:1027500000902B46012269465920FFF7ACF8064647
:102760003046F8BD2DE9F04107460D461646314684
:10277000384603F0C1FD044684B93146384601F0BD
:1027800033FA044654B931462846FFF7C8FF0446D9
:1027900024B931462846FFF781FF04462046BDE8AC
:1027A000F081F8B504460F460026002000902078FE
:1027B000C0F3811030B915208DF8000003208DF88A
:1027C000010045E02078C0F38110012806D12D20BA
:1027D0008DF8000000208DF8010039E02078C0F36A
:1027E0008110022806D11D208DF8000007208DF8E9
:1027F00001002DE02078C0F38110032828D13B464A
:10280000022269467A20FEF729FF054605BB9DF89E
:10281000000020F018062078C0F34100182101EADA
:10282000C00030438DF800009DF8000020F007063E
:102830002078C0F3C20030438DF800009DF80100FD
:1028400020F007062088C0F3022030438DF80100F5
:102850003B46022269467A20FFF72DF805462846B6
:10286000F8BDF8B504460D460020009000272B4621
:10287000012269465820FEF7F1FE064696B99DF8FA
:10288000000020F008072088C0F38020082101EA1A
:10289000C000384300902B46012269465820FFF7BC
:1028A0000AF806463046F8BD2DE9F04107460D46C8
:1028B00016463146384603F01FFD04468CB93146B2
:1028C000384601F091F904465CB931462846FFF7D5
:1028D000C8FF04462CB932462946384600F004F8B1
:1028E00004462046BDE8F0812DE9F74F84B08246CA
:1028F0000D4600270024002002900026022202A993
:102900006320069BFEF7AAFE0390039800283BD1A4
:1029100002A8845D9AF80100032806D12888C0F334
:10292000C21824F0070748EA07042878C0F3401BC0
:1029300024F04007402000EA8B1040EA0704287882
:10294000C0F38010019024F080078021019801EAF3
:10295000C01040EA07043046711CCEB202A90C54E4
:1029600002A8845D287800F01F0924F01F0749EAB7
:1029700007043046711CCEB202A90C5432466320C3
:10298000069BFEF798FF0390039807B0BDE8F08F11
:10299000002904D00A46006901A101F05CBF70471C
:1029A0001B5B25644200000010B504460068FFF779
:1029B00042FA0146A068C27C407B1144B1FBF0F2B0
:1029C00000FB121008B1002010BD012010BD000056
:1029D000002904D00A46006901A101F03CBF7047FC
:1029E0001B5B2564440000000069024A024901F0B3
:1029F00032BF000056700000F01D00002DE9FC47BA
:102A0000002604468DF8046080683546B146B0461D
:102A100080219430FDF7C5FF4049206901F01BFF7C
:102A2000206901F025FF00276B46012201A92046FD
:102A3000FFF7FAF90098D8B19DF804001B2806D0DA
:102A4000A16891F894101B29EED152281FD0A268DA
:102A500008F19401505408F1010000F0FF08B8F1AA
:102A6000090F0AD9A168042081F89490BDE8FC8779
:102A70002A494FF6C0100D31884700980028D3D15D
:102A80007F1CBFB2B7F57A7FCED30D20EEE7A168E9
:102A900008F194004A4601F80090A16891F8950069
:102AA0005B2803D081F894200B20DFE702206FF031
:102AB0002F0309E005EB850503EB4505401C3D446C
:102AC000C0B2ADB2802808D200F19407CF5D3B2F91
:102AD000F0D1401CC0B2802809D30C20C6E700BF4B
:102AE00006EB860603EB46063E44B6B2F1E700F17C
:102AF0009407CF5D002FF3D1FA20FA2E01D9087286
:102B000000E00E72FA2D02D9A168887201E0A06877
:102B10008572A06880F894200020A7E774700000F8
:102B2000002904D00A46006901A101F094BE704753
:102B30001B5B256443000000002904D00A4600699D
:102B400001A101F088BE70471B5B256441000000B5
:102B50000222C27108224271102101710322827186
:102B60000222C2730822427314210173002282736D
:102B700041688160C1680161704700007FB50C4603
:102B800010B1012004B070BD2079002638B141F6A3
:102B90001D5501281BD0022826D00F20F2E7022065
:102BA000207102960396E0680190694601A803F03F
:102BB00011F850B102988188E18000882081BDF829
:102BC0000010029803F084F8DCE70A20DAE70A4BE9
:102BD0006A460021A01D02F0B9FF38B10649183934
:102BE0008E61CE610A28CDD12846CBE70248818884
:102BF000019803F06DF8F5E7E0000020F8B5044611
:102C00000020009000262346012269466220FEF73C
:102C100025FD054685B99DF8000000F002065EB16D
:102C20009DF8000020F00206009623460122694626
:102C30006220FEF740FE05462846F8BD0E4910B555
:102C40000A784C780023A24212D0521CD2B20A70E9
:102C5000022A00D10B70084A0B780C3252F823205C
:102C600002608868104420F07F408860012010BD19
:102C70000360002010BD0000B0000020F8B504463D
:102C80000D460020009000262B4601226946502068
:102C9000FEF7E4FC0746AFBB207800F0010018B354
:102CA0009DF8000020F001062078C0F3400030437A
:102CB00000909DF8000020F002062078C0F380000C
:102CC000022101EA4000304300909DF8000020F00E
:102CD00004062078C0F3C000042101EA80003043DC
:102CE00000900020E87006E09DF8000020F007004A
:102CF0000090FF20E8702B46012269465020FEF725
:102D0000DAFD07463846F8BDF8B5044600200090C5
:102D100000262346012269465120FEF79FFC054606
:102D20006DB99DF8000020F0100646F010000090EC
:102D30002346012269465120FEF7BDFD054628467F
:102D4000F8BDF8B504460D46002000902B46012240
:102D500069465120FEF782FC064666B9207A9DF846
:102D6000001060F3451100912B4601226946512065
:102D7000FEF7A1FD06463046F8BDF8B504460D46FF
:102D8000002000902B46012269465120FEF766FC88
:102D900006466EB9207A41089DF8000061F386105E
:102DA00000902B46012269465120FEF784FD06461D
:102DB0003046F8BDF8B504460D46002000900027C7
:102DC0002B46012269465020FEF748FC064696B97C
:102DD0009DF8000020F080072088C0F3C0208021EB
:102DE00001EAC010384300902B460122694650206A
:102DF000FEF761FD06463046F8BDF8B504460E46BE
:102E00000020009000253346012269465120FEF73C
:102E100025FC07463FBB9DF8000020F00105207807
:102E200000F00100284300909DF8000020F002050A
:102E30002078C0F34000022101EA400028430090BE
:102E40009DF8000020F004052078C0F380000421E4
:102E500001EA800028430090334601226946512050
:102E6000FEF729FD07463846F8BDF8B504460D467D
:102E70000020009000272B46012269465120FEF7D2
:102E8000EDFB064696B99DF8000020F00807A078F3
:102E9000C0F30010082101EAC000384300902B461F
:102EA000012269465120FEF706FD06463046F8BD70
:102EB000F8B504460E460020009000253346012256
:102EC00069465220FEF7CAFB07463FBB207800F058
:102ED000010030B19DF8000020F0010545F001002F
:102EE00000902078C0F3400030B19DF8000020F041
:102EF000020545F0020000902078C0F3800030B158
:102F00009DF8000020F0040545F0040000903346D1
:102F1000012269465220FEF7CEFC07463846F8BD2E
:102F2000F8B504460D460020009000272B460122EC
:102F300069465020FEF792FB064686B99DF80000D0
:102F400020F04007A078402101EA8010384300902B
:102F50002B46012269465020FEF7ADFC064630465E
:102F6000F8BDF8B505460C46002000900027234622
:102F7000012269465020FEF771FB0646DEB928782B
:102F8000C0F3401048B19DF8000020F0070747F05B
:102F9000070000900120E07006E09DF8000020F09E
:102FA00007000090FF20E070234601226946502070
:102FB000FEF781FC06463046F8BDF8B504460D46DE
:102FC0000020009000272B46012269465220FEF780
:102FD00045FB064686B99DF8000020F008072088CA
:102FE000082101EAC000384300902B4601226946BF
:102FF0005220FEF760FC06463046F8BD2DE9F84346
:1030000005460C46164600200090804633460122B5
:1030100069465020FEF722FB074627BB6878042844
:103020000DD19DF8000020F020082088C0F3C020BA
:10303000202101EA401040EA080000900CE09DF8D1
:10304000000020F010082088C0F3C020102101EA01
:10305000001040EA080000903346012269465020E3
:10306000FEF729FC07463846BDE8F88310B503781B
:103070000022072B06D2DFE803F005040610202902
:1030800030000A7010BD01230B7003898B81838887
:10309000CB81C06888600A7410BD02220A70028960
:1030A0008A818288CA81C2688A60807D062802D0AF
:1030B0000020087410BD0120FBE703220A70C288BB
:1030C0008A810289CA81C068886010BD04230B70A0
:1030D000C0888881CA818A6010BD0520087010BD33
:1030E00070B5064D0646002455F8241009B1304647
:1030F0008847641C042CF7D370BD0000BC0C002072
:10310000FEB507460D461446002600200190A06932
:103110004089029061E0A0690068BDF80810405C39
:1031200000F0FC06BDF80800401C80B20290882E1A
:103130002BD00CDC482E3ED004DC402E36D0442E62
:1031400043D12EE0802E3CD0842E3ED10CE0942E34
:103150000BD004DC8C2E09D0902E36D10FE0982EA7
:1031600019D09C2E31D102E000BF00BF00BF334612
:1031700001AA02A93846009403F0A0FB26E02246EB
:10318000082102A800F02BFE20E02246062102A81A
:1031900000F025FE1AE022460E2102A800F01FFED4
:1031A00014E0214602A803F04DFC0FE0214602A8DE
:1031B00003F06FFC0AE02246012102A800F00FFE96
:1031C00004E0A0698088029000E000BF00BF28787A
:1031D0009DF80410884200D105E0A0698088BDF800
:1031E0000810884297DC00BF9DF804002870BDF8E5
:1031F0000800A1694881FEBD2DE9F05F17460E0069
:10320000814670D013B1F9B2FFF78AFC0024FDF7B4
:103210009DFB8246006800E0641C315D415CC9078B
:10322000FAD100253046FEF706FED9F80810001B3B
:103230004A7BD11B814228D306EB040805E000BF7E
:1032400018F805100A290CD06D1C8542F8D33119E5
:10325000D9F8100001F0FFFA4846BDE8F05FFFF72B
:10326000C3BBD9F8100001F003FB414600232A46F6
:103270004846FEF7E5FD2C444846641CFFF7B4FBC6
:10328000F9B24846FFF74CFCE1E78B46DAF800104C
:1032900006EB040818F805000B5CDB0702D0AB4610
:1032A0000A2804D0E819904201D26D1CF2E7D9F83F
:1032B000100001F0DDFA414600235A464846FEF769
:1032C000BFFD5C44DAF8000000E0641C315D415C45
:1032D000C907FAD14846FFF787FBF9B24846FFF71E
:1032E0001FFC9EE7FFE7BDE8F09F000010B5002837
:1032F00021D0114B0022001F196803E0814203D83E
:103300000A4649680029F9D152B11368841A9C42CF
:1033100004D1006818441060104602E0506000E0DC
:10332000186039B102680B1A934203D10B681A4432
:1033300002604968416010BD04010020406802F04D
:10334000A9BB10B504460068FEF775FD0146A068EC
:10335000827C407B1144B1FBF0F200FB121008B1FB
:10336000002010BD012010BD70B508B1012070BD56
:103370001B4C0025207B08B1257301E000F0A4F868
:10338000207808282AD2DFE800F02904080C102948
:103390001422BDE8704000F025B8BDE8704000F090
:1033A00081B8BDE8704000F063B8BDE8704000F03F
:1033B0003FB8062020706088094900EB800028395A
:1033C00001EB80004068BDE8704002F03BBA072086
:1033D00020706560BDE8704002F042BA0F2070BDF9
:1033E000800D00201149F0B48A1C00200346A1F191
:1033F00028050C18A67A4EB1A37200EB800405EBE9
:103400008404E66816B9247C012C0AD0401C80B2E2
:103410000228EED30B704B804B60F0BC41F61D5080
:1034200070471080F0BC00F03DB80000800D002017
:103430000C48418801EB8102A0F1280101EB8201D7
:10344000CA6852B1052101700748022181800168D4
:1034500000230122054801F004BB042202704968E0
:10346000F6E70000800D0020F00000202C01002075
:1034700038B50A49084803240B684268898803EB79
:10348000810153880470DB1C00201B0400909B0BFF
:10349000034801F00DFB38BD800D0020F000002036
:1034A0002C010020074910B54888091D02F0E2FBF5
:1034B00018B1BDE81040FFF7DBBFBDE81040FFF7D3
:1034C000B7BF0000800D0020F0B51F481F4901253F
:1034D000067802248B88A0F12802082E19D2DFE892
:1034E00006F00418181B222F2F170189491C01818F
:1034F0000021418080F80C1001EB810312F8233089
:1035000043B100234418491C89B2A3720229F3D3A2
:103510000570F0BD0123F5E742685288D21C1A44B9
:103520008A800470F0BD46880D6806EB860602EBC3
:10353000860256680E60556013818C80062100E07B
:1035400007210170F0BD0000800D0020F000002078
:1035500030B59C69648904809C69247A402C05D12B
:10356000147804EB440464000C8020E09C69247A05
:10357000C02C05D1147804EB4404A4000C8016E0A0
:103580009C69247A602C05D11478C4EBC4046400CF
:103590000C800CE09C69247AE02C05D1147804EBB3
:1035A0008404A4000C8002E09C69A48804800C8838
:1035B0009D69AD88AC4202DD9C69A4880C8030BD59
:1035C00038B500241C2000902F48FEF706F804466A
:1035D0002D4A69462D48FDF7BDFF0446002041E015
:1035E00000EB4001294A32F9211000EE101AB8EE22
:1035F000C00A9DF80010264A127811FB0201254AE4
:1036000002EB810181ED000A00EB40011F4A02EB51
:103610008101B1F9021000EE101AB8EEC00A9DF84F
:1036200000101B4A127811FB02011B4A02EB8101B8
:1036300081ED000A00EB4001144A02EB8101B1F96F
:10364000041000EE101AB8EEC00A9DF80010104ADF
:10365000127811FB0201114A02EB810181ED000A8F
:10366000411CC8B20E4909788842B9DB0848007885
:10367000401C0749087008460078052801D1FEF76C
:10368000A5FC204638BD000064090020200600206B
:103690000000002068030020D80300204804002018
:1036A00001000020F8B504460D46002622272B46CF
:1036B000022269463846FDF7D1FF06439DF8010016
:1036C00000F007008DF801009DF800009DF8011042
:1036D00040EA012020803046F8BD428800EB82029B
:1036E0000C328A4201D9022070478188A1F57F42BD
:1036F000FF3A03D0008808B10020704701207047CE
:10370000884204D20068401C01D00120704700208C
:10371000704700002DE9F0412D4F002518B17D6064
:103720000120BDE8F0810879012258B1294E012815
:103730000CD0274C4FF002080834022821D003286F
:1037400042D128E00A7102F08BF83BE05FF0000004
:1037500000EB800116F82110022908D0401C80B22D
:103760000228F5D33A707D6041F61D50D9E700EB91
:10377000800006F8205006EB8000406802F062F8F6
:1037800020E00D71A4F80480002301221248216872
:1037900001F067F916E00D71206802F053F80D4949
:1037A00023682831498801EB810206EB8201D1F8B8
:1037B00004C0C4F800C04B60A3880B81A4F8048047
:1037C00006F822500028ACD07D600E20A9E700004A
:1037D000E8000020580D00202C0100202DE9FC5F9E
:1037E0000E008346DDE90C47C6F10000984692467C
:1037F000814600D40846012503E000BF90FBFAF0A3
:103800006D1C5045FADAA84500D9454624B1002E72
:1038100001DB780700D5641EB80702D5B8F1000FA8
:103820000AD0F80708D13CB1A54205D2202158465C
:10383000641EFEF76AF9F6E7002E02DA4E462D21E5
:1038400002E0780703D52B215846FEF75EF907F012
:10385000030002280BD1B8F1000F08D13CB1A542FA
:1038600005D230215846641EFEF74FF9F6E7CDE940
:103870000047434652463146584603F01DF9BDE81D
:10388000FC9F70B505460E46FFF79AFEC4B270BDA8
:1038900070B50C464FF488760546314601F07AFC47
:1038A00050B13146284601F07AFC6079400703D5D3
:1038B000216809B1012088474FF48A7631462846AD
:1038C00001F068FC50B13146284601F068FC60798F
:1038D000000703D5216809B1022088474FF48E768E
:1038E0003146284601F056FC50B13146284601F0D9
:1038F00056FC6079C00603D4216809B100208847CE
:103900004FF482763146284601F044FC00280CD062
:103910003146284601F043FC01202071216800292E
:1039200003D0BDE870400320084770BD2DE9F04783
:103930009146884604464FF480354FF4A076002720
:10394000DFF884A016E000BFD4F8040328420DD0AD
:10395000A05958B1C4F84853C4F80853314620461A
:1039600001F0A8FC5AF82810F8B28847361D6D00FF
:10397000B6B27F1C4F45E7D3D4F804034FF48071EF
:1039800010F0010F09D0D4F8000130B1204601F049
:1039900091FC5AF8281004208847D4F804034FF407
:1039A000827110F0020F0CD0D4F80401002808D066
:1039B000204601F07FFC5AF82810BDE8F0470520AA
:1039C0000847BDE8F08700009C000020F8B50E46CF
:1039D00004464FF48C7101F08DFC00281AD00025AC
:1039E000C4F81851D4F818010090F07F3446FF282D
:1039F00006D0A17F11B101F0DFF801E001F0E3F89A
:103A000065772572D4E9002101B004F10800BDE812
:103A1000F0401047F8BD00002DE9F04117468846F8
:103A20000646002417E000BF4FF4A07000EB8405A9
:103A30004FF480307159A04059B1D6F804130142B7
:103A400007D02946304601F05AFCD8E90021284623
:103A50009047641CE4B2BC42E6D3BDE8F081800725
:103A600001D0002070470120704700002DE9F04789
:103A7000394E002780463D46DFF8E090D6F804A096
:103A800057E003D00446D0F81C8035E099F80020B8
:103A900002EB4201521CD2B289F8002009EBC101AD
:103AA00099F80230091D9A4201D189F800504868FE
:103AB0000A780446012A12D0022A02D0032A3BD1F6
:103AC00008E002F05FFE00B10127257434E00574C0
:103AD000C06900E070680028F9D170602CE0207C9B
:103AE00050BB88686060C868A0600869E060486989
:103AF000A061F07800B165606268B168184B501A37
:103B000020F07F40984202D2A168084406E0881A5B
:103B1000A16820F07F40814202D9081A206000E0AD
:103B2000256065600120A56020742046E56102F0F3
:103B30000BFEB8F10000A4D199F8001099F801002B
:103B40008142A3D117B97168514502D00120BDE867
:103B5000F0870020FBE70000B0000020940B00205D
:103B6000FFFF7F00FEF732FB0120FDF793FF02F01D
:103B7000D3FB02F0F3F800E030BFFDE7F0B50B3007
:103B8000154D20F007010024144A0FE003688B4212
:103B90000BD38B4205D95E1A43184768C3E9006707
:103BA00000E04368136002C004E0021D10680028B2
:103BB000ECD12046002802D1286808B10020F0BDD1
:103BC000064A07481060074A121A22F00702C0E9A5
:103BD000002401202860D7E708010020040100200C
:103BE0002C1D0020283D00207CB504460E460020F8
:103BF000019000903346032201A95520FDF72EFDC8
:103C00000546002D56D19DF8040061782A4A515C82
:103C100088438DF800009DF806006178515C884368
:103C20008DF80200207830B101280DD0022818D07C
:103C3000032833D122E09DF800008DF804009DF8A0
:103C400002008DF806002CE09DF8000061781A4A09
:103C5000515C08438DF804009DF802008DF80600C1
:103C60001FE09DF802006178134A515C08438DF80B
:103C700006009DF800008DF8040012E09DF8000099
:103C800061780D4A515C08438DF804009DF80200EC
:103C90006178515C08438DF8060002E06FF003057F
:103CA00000BF00BF35B93346032201A95520FDF7F7
:103CB00002FE054628467CBD18710000F8B5044692
:103CC0000F460020009000253B4601226946562001
:103CD000FDF7C4FC0646002E3ED160781F49095C02
:103CE0009DF8000020EA010560781C49085C25EA7F
:103CF0000015207830B1012806D002280CD0032806
:103D00001ED10FE000951EE060781449085C0007A2
:103D100045EA1060009016E060781049085C28437E
:103D2000009010E060780D49085C284300906078AE
:103D3000085C00079DF8001041EA1060009002E066
:103D40006FF0030600BF00BF36B93B46012269464B
:103D50005620FDF7B0FD06463046F8BD187100004C
:103D60002DE9F047C5881E1DB6FBF5F78946B6FB61
:103D7000F5F1044605FB176C407916686843DDF8D9
:103D800020A0F718001F874200D9C61A166001E06C
:103D90002468491E0029FBD1A5EB0C078846B742D1
:103DA00016D818E004EB0C00001D09EB0803BAF16B
:103DB000000F3A4602D00146184600E01946FCF7CB
:103DC000C9FD2468F61B4FF0000CB844B54201D978
:103DD000374600E02F46002EE4D1BDE8F08710B54D
:103DE00003880B449469A488A34203DD93699B88EC
:103DF000038002E003880B44038010BD70B5846823
:103E0000006804F10805FEF716F8C1B2A971E07C5C
:103E10006A790844B0FBF2F302FB13035B1C2B70BE
:103E2000E07C0844B0FBF2F35B1CAB70A07C084460
:103E3000B0FBF2F35B1CEB70A07C0844B0FBF2F12A
:103E400002FB1101491C6970284670BD10B50A8833
:103E500049888A4203D1FCF739FA012010BD0020BD
:103E600010BD70B50C460546FCF713FA002802D0C9
:103E700061882868084470BD08B56A46FCF788FA6E
:103E8000009808BD2DE9F0470646806888B0D0F854
:103E90003C01C0F3400038B108B03046BDE8F047FF
:103EA0000022114600F01ABB012907D908B030469C
:103EB000BDE8F0471DA2022100F0E8BA2049DFF872
:103EC00084A0A1EB0A001821B0FBF1F5002428E042
:103ED00004EB44010AEBC1034FF000091F68D3E96A
:103EE00001103A793F78411AB3F81480C01B1B695E
:103EF000C0B2642712FB07F7B7FBF1FC642710FB85
:103F000007F7B7FBF1F7CDE90621CDE9041CCDE9B0
:103F100002700D4A08213046CDE9008900F0B6FA5A
:103F2000641CAC42D4D308B0BDE8F0874261642081
:103F3000617267756D656E7420636F756E740000D5
:103F40000000000000000000EC720000C20800F059
:103F500007030120895C98400840704710B5C208EB
:103F600000F00703885C01249C402043885410BD66
:103F700070B515468268D2F83C41C4F3400424B1C0
:103F80001A46294600F0AAFA06E039B1516804A29F
:103F90000B68022100F07AFA012070BD002070BD8C
:103FA00025733A2077726F6E6720706172616D655C
:103FB00074657220636F756E740D0A0010B5044647
:103FC00002290CD1A068D0F83C01C0F3400030B108
:103FD00020460022BDE81040114600F07FBA064A94
:103FE00006A1206900F037FC034A2069BDE81040B3
:103FF000093202A100F02FBC707000002573000090
:10400000012907D0022909D18168D1F83C11C1F3F7
:10401000400119B10022114600F060BA01A202214C
:1040200000F034BA506C6561736520737065636924
:104030006679206120737562636F6D6D616E642EA9
:104040000D0A00001CB5012905D002290BD014D996
:104050004FF0010112E002B04FF00002BDE8104045
:10406000114600F03BBA536808A1CDE9001313686C
:104070000CA2022100F00AFA1CBD002102B00023AC
:10408000BDE810401A46FFF773BF000020756E6B45
:104090006E6F776E20706172616D657465723A2023
:1040A0000000000025733A257325730D0A000000F7
:1040B00010B50446012901D0012100E000210023B0
:1040C0001A46FFF755FF002809D1A168C1F82C0155
:1040D000E06840680068BDE8104001F069B810BDB4
:1040E0003EB50546012901D0012100E00021002351
:1040F0001A46FFF73DFF002818D1E86840680468B9
:10410000204601F052F8C0B2642110FB01F2A16810
:10411000B2FBF1F2D2B20092CDE90101A86804A28B
:104120000821D0F82C31284600F0B0F93EBD00003F
:104130004C6F7374206C6F67733A2025750D0A4DB0
:104140006178206C6F67207175657565207574697D
:104150006C697A6174696F6E3A2025752525205B3C
:1041600025752F25755D0D0A000000007CB51446ED
:104170000546012903D0022908D0012107E002B039
:104180000022BDE87040114600F0A8B900210023CC
:104190001A46FFF7EDFE002809D1616804A0CDE9B9
:1041A000000109A202212846236800F06FF97CBDB6
:1041B00020756E6B6E6F776E20706172616D6574C5
:1041C00065723A200000000025733A257325730DAF
:1041D0000A00000010B50446012901D0012100E0C9
:1041E000002100231A46FFF7C3FE002806D1A0686D
:1041F000D0F83C1121F00401C0F83C1110BD10B5FD
:104200000446012901D0012100E0002100231A46C3
:10421000FFF7AEFE002806D1A068D0F83C1141F0AF
:104220000401C0F83C1110BD7CB514460D4606468D
:10423000022901D9012100E0002100231A46FFF7DD
:1042400097FE002811D1022D05D03046FDF7E6FD7E
:1042500060B10BA30BE061680AA0CDE900010FA2D9
:1042600002213046236800F011F97CBD0EA302B094
:104270003046BDE870400DA2082100F007B90000EB
:104280006F6E000020756E6B6E6F776E20706172BE
:10429000616D657465723A200000000025733A254F
:1042A0007325730D0A0000006F6666004563686F32
:1042B000207374617475733A2025730D0A00000031
:1042C00010B50446012901D0012100E0002100239E
:1042D0001A46FFF74DFE002806D1A068D0F83C1121
:1042E00021F00801C0F83C1110BD10B504460129A9
:1042F00001D0012100E0002100231A46FFF738FE1B
:10430000002806D1A068D0F83C1141F00801C0F89F
:104310003C1110BD7FB50446012901D0012100E008
:10432000002100231A46FFF723FE002827D1A068AA
:104330000026D0F83451F5B101E0082E1BD200233D
:10434000092201A9284600F082FC9DF80C20A168F2
:10435000092328469431521C00F079FCA0683346AA
:1043600094300090029D761C05A20821204600F0A2
:104370008DF8002DE1D1A168002081F894007FBD67
:104380005B2533645D2025730D0A00007CB515465E
:104390000446012903D0022917D9012116E0A1689A
:1043A00001F10C020D3102F05FF900281ED0A16866
:1043B00050200FA24873A1681820087302B020464D
:1043C000BDE87040042100F061B8002100231A46C6
:1043D000FFF7CEFD002809D1696814A0CDE90001DE
:1043E00018A2022120462B6800F050F87CBD000086
:1043F0004E6F20726573706F6E73652066726F6D9D
:1044000020746865207465726D696E616C2C206122
:104410007373756D6564203830783234207363723D
:1044200065656E2073697A650D0A000020756E6BF4
:104430006E6F776E20706172616D657465723A207F
:104440000000000025733A257325730D0A00000053
:1044500010B50446012901D0012100E0002100230C
:104460001A46FFF785FD00280AD1064A06A12069F1
:1044700000F0F1F9A16850204873A1681820087372
:1044800010BD000086700000257300000FB438B521
:10449000044607A80090A068D0F83C21520717D521
:1044A000C27B8A4214D0B0F80F50204602F07CFB49
:1044B0006A462069069900F0E7F9E9B2204602F061
:1044C00073FB290A204602F051FB38BC5DF814FB4F
:1044D0006A462069069900F0D7F9F6E72DE9F04F12
:1044E000804689B016460C468948FDF7A4FC05466F
:1044F00087483338FDF79FFC281A1FFA80F9844853
:1045000084A220380090D8F8080008214068036889
:104510004046FFF7BBFFD8F8080040680068FDF789
:104520008AFC05467A482038FDF785FC284482B28B
:10453000D8F808000023406841684046FEF75CFE5A
:1045400076A208214046FFF7A1FF16B30CB3002561
:104550001DE000BF05EB450A04EB8A0BDBF8040005
:10456000FDF769FC074654F82A00FDF764FC39188A
:1045700049450BD9DBF80400FDF75DFC074654F80C
:104580002A00FDF758FC38441FFA80F96D1CB5422B
:10459000E0D35F483338FDF74EFC4844801C1FFAD7
:1045A00080F95B4800904B465FA208214046FFF728
:1045B0006DFF09F1030087B2079000233A465CA122
:1045C0004046FEF719FE002C52D000254EE000BFF9
:1045D00005EB450A04EB8A0B54F82A00DBF804309B
:1045E0006BB350B34A4957A23339CDE900100821C3
:1045F0004046FFF74BFF09F102000090DBF8040092
:10460000FDF719FC074654F82A00FDF714FC07448F
:104610003F483338FDF70FFC39180098401A801EC8
:10462000C1B24046FEF77CFA3A224949D8F8100058
:1046300000F011F90098401C0AE0009301E040B13D
:1046400000904B4638A208214046FFF71FFF07980D
:1046500087B2DBF8081029B100233A464046FEF73E
:10466000CBFD02E04046FEF7BFF96D1CB542AFD36B
:10467000D8F8080040688068002845D081460020AE
:104680000446064603AD02903246761C02AB012179
:1046900048460095FDF700FC029850B10068FDF710
:1046A000CAFBA042F0D902980068FDF7C4FB84B2AF
:1046B000EAE7012E28D027A208214046FFF7E6FEB0
:1046C00000273A467F1C02AB012148460095FDF7C2
:1046D000E3FB0298002817D0A11C8EB2006800905E
:1046E000334611A208214046FFF7D0FE0298F61C7F
:1046F000B2B2416821B100234046FEF77DFDE0E7FC
:104700004046FEF771F9DCE709B0BDE8F08F000024
:104710008C70000025732573000000004F707469D1
:104720006F6E733A0D0A00002020252D2A733A007F
:1047300053686F7720636F6D6D616E642068656C80
:10474000702E0000202025732573257300000000C3
:10475000D81C0000537562636F6D6D616E64733AAF
:104760000D0A000000F180400068002800D0012000
:10477000704708B500F1804000210160006800909A
:1047800008BD00002DE9F04104460CB9BDE8F081F8
:1047900000BF4FF47A7505B904E0054FAE0130460D
:1047A000B84700BF601E041EF3D100BFEEE7000053
:1047B000F16D00002DE9FF411C460378164D174EA0
:1047C00045F823200C3545F82340F0CE8DE8F00065
:1047D0000C788DF800404C788DF801408C788DF87D
:1047E0000240CC788DF803400C798DF805404C7967
:1047F0008DF806408C6802940C7B8DF80C40497B48
:104800008DF80D1002B1064A6946001D00F010FF38
:1048100004B0BDE8F0810000DC0900205C6E0000FF
:10482000696300002DE9FF4704460D4616461F4602
:10483000DDF830804FF00009009501960297CDF821
:104840000C8000226946201D00F0AEFF81464846DC
:1048500004B0BDE8F0870FB408B50399002904D06F
:1048600004AA00926A4600F00FF801B05DF814FB4C
:1048700010B582680446002A05D0D4E904032168F3
:1048800098470020A06010BD2DE9FC4791460C0020
:10489000804676D014F8011B39B125290ED0404648
:1048A000FDF733F920780028F4D198F80C0000289F
:1048B00067D04046BDE8FC47FFF7DABF0020012281
:1048C00021782B291BD02D2902D0302908D102E0D4
:1048D00040F0010001E040F00200641C002AEFD12A
:1048E00000252A290ED02178A1F130020A2A11D2FE
:1048F00005EB850201EB4205641C303DF1E740F019
:104900000400EAE7D9F800100B1DC9F80030096867
:10491000641C0D44217800232E290BD114F8011FAB
:10492000A1F130020A2A05D203EB830201EB420314
:10493000303BF3E76C290DD068290BD0692921D0D1
:104940000BDC252918D0582931D063290ED06429D1
:1049500015D117E014F8011FECE7702969D073290D
:1049600032D075291BD0782909D120E0D9F8000070
:10497000011DC9F8001001784046FDF7C6F8641C17
:1049800090E76CE0D9F800100A1DC9F8002009680A
:10499000CDE900500A224046FEF720FFEFE7D9F8A4
:1049A00000100A1DC9F8002009680A2206E0D9F89B
:1049B00000100A1DC9F8002009681022CDE9005036
:1049C000404602F079F8DAE7D9F8001000270A1D0E
:1049D000C9F800200E68C00705D112E04046761CD9
:1049E0007F1CFDF792F831780029F7D104E02021EF
:1049F00040466D1EFDF789F8BD42C0D9002DF6D1A5
:104A0000BDE74EB13046FBF7D7FF074604E0202153
:104A100040466D1EFDF779F8BD4206D9002DF6D14E
:104A200003E04046761CFDF770F831780029F8D194
:104A3000A5E7D9F80000011DC9F80010056830216C
:104A40004046FDF762F878214046FDF75EF8082001
:104A50000021CDE90001034610222946B0E7BDE858
:104A6000FC872DE9F0411F46164604000D4616D07E
:104A70002068B8B1C6B160680268501E284215D1DE
:104A800072432046FCF743FD80B120683B46324626
:104A9000D0F810C029462046BDE8F04160470E20FE
:104AA000BDE8F0810820FBE70920F9E71020F7E7CF
:104AB0002DE9F8431D46089F1646884604000DD090
:104AC00066B1206860B135B160684068B5FBF0F14F
:104AD00000FB115030B10920BDE8F8830E20FBE740
:104AE0000820F9E74046FCF70CFD90B13046FCF792
:104AF00008FD70B12A4641462046FCF708FD40B14A
:104B0000009720682B463246C76841462046B84782
:104B1000E2E71020E0E770B541EA4201DDE9045622
:104B20004FF0A04441EA830141EA052104EB8000F3
:104B300041EA0641C0F8001770BD70B541EA420174
:104B4000DDE904564FF0A04441EA830141EA052122
:104B500004EB800041EA0641C0F8001770BD70B553
:104B600041EA4201DDE904564FF0A04441EA8301E5
:104B700041EA052104EB800041EA0641C0F8001734
:104B800070BD1CB5002100910B4601220191114618
:104B9000FFF7E5FF1CBD4FF0A04202EB8000D0F80C
:104BA000002722F44032C0F80027D0F8002742EA5C
:104BB0000141C0F8001770474FF0A0420121814029
:104BC000C2F80C1570474FF0A04201218140C2F895
:104BD0000815704701224FF0A043824011B1C3F87D
:104BE00008257047C3F80C257047000018B5084B1E
:104BF0006C4601441B68009306E000BF54F8203067
:104C0000D3F81035401C08C28142F7D818BD000007
:104C10006C6E0000034908B508440021016000687B
:104C2000009008BD0060004002494058012800D0B3
:104C300000207047006000404058002800D001204C
:104C4000704708B5002242504058009008BD1CB57E
:104C500001920122009201AAFFF782F81CBD000018
:104C60002DE9F84F834600F091F90546DBF808007E
:104C7000D0F83C01C0F3400030B15846BDE8F84FD1
:104C800000221146FFF72ABC1C4803681CA2082119
:104C90005846FFF7FBFB1948001D03681DA20821B9
:104CA0005846FFF7F3FBDFF85480DFF8509008F127
:104CB0000808002409F1100908F1040A1AE000208C
:104CC000FCF731FCC8F80040D9F80070DAF8006051
:104CD0000020FCF72AFC234613A208215846009620
:104CE000FFF7D4FB234617A2082158460097FFF789
:104CF000CDFB641CAC42E2D3BDE8F88F90ED00E040
:104D00004D50555F545950453A0930782530385840
:104D10000D0A00004D50555F4354524C3A0930780B
:104D2000253038580D0A00000D0A4D50555F52428B
:104D300041525B25755D3A093078253038580D0AA7
:104D4000000000004D50555F524153525B25755D88
:104D50003A093078253038580D0A00002DE9FC4119
:104D600007468068D0F83C01C0F3400038B102B07B
:104D70003846BDE8F04100221146FFF7AFBB00F016
:104D800005F90646009030480068C00701D02FA3FF
:104D900000E030A332A208213846FFF777FB002459
:104DA0004EE00020FCF7BFFB2748001D04602648AA
:104DB0000C300568001FD0F800800020FCF7B5FB20
:104DC000E807234633D032A208213846FFF75EFBBE
:104DD000C5F344010120491C884008EB0001491E2D
:104DE000CDE90010434630A208213846FFF74EFBBC
:104DF000284600F0D3F8034637A208213846FFF7CB
:104E000045FB284600F048F9034637A208213846FA
:104E1000FFF73CFB284600F0FBF8034636A20821CA
:104E20003846FFF733FBE80003D538A302E038A289
:104E300001E03DA33DA208213846FFF727FB641C93
:104E4000B442AED3BDE8FC8194ED00E0456E6162F2
:104E50006C65640044697361626C65640000000005
:104E60004D50552053746174653A2025732C2025CC
:104E70007520756E696669656420726567696F6E15
:104E8000732061766961626C652E0D0A0D0A00005F
:104E9000526567696F6E2025753A20456E61626CB8
:104EA00065640D0A00000000092D204C6F636174D9
:104EB000696F6E3A093078253038582D30782530B2
:104EC0003858202873697A653A20257520627974EC
:104ED0006573290D0A000000092D20416363657385
:104EE000733A0925730D0A00092D20547970653A2B
:104EF000090925730D0A0000092D204361636869C3
:104F00006E673A0925730D0A00000000584E000034
:104F1000526567696F6E2025753A20446973616236
:104F20006C65640D0A0000002D2D0000092D20463F
:104F30006C6167733A0925730D0A0D0A00000000C1
:104F400008B5012905D08168D1F83C11C1F34001B1
:104F500029B10022BDE808401146FFF7BFBA5168E9
:104F60000091136802A20221FFF790FA08BD000029
:104F700025733A20756E6B6E6F776E20706172616B
:104F80006D657465723A2025730D0A000248006849
:104F9000C0F307207047000090ED00E0C0F302600E
:104FA000082813D2DFE800F00406080A0C0E1010DF
:104FB00007A0704708A0704709A070470AA0704773
:104FC0000BA070470CA070470DA070470EA0704753
:104FD0002D2D2F2D2D00000052572F2D2D000000BC
:104FE00052572F524F00000052572F5257000000C7
:104FF0003F3F2F3F3F000000524F2F2D2D0000005C
:10500000524F2F524F000000556E6B6E6F776E003F
:1050100010B5C0F3C241C0F34043C0F3004200F4F6
:105020007C100404240C17D10014152814D2DFE8D6
:1050300000F00B0B0D0F0B0B0B0B0B1313110B13C2
:10504000130B0B1313130B000A4810BD0AA010BD5D
:105050000BA010BD0CA010BD042908D38807000FB9
:1050600040EA43000B49104351F8200010BD0148AD
:10507000383010BDD04F000057542F575400000057
:1050800057422F5742000000574257412F5742576F
:10509000410000000400002000F47C100104090C11
:1050A00015D10114152912D2DFE801F00B0D1818E3
:1050B0000B0D161618111118161111160F111111CA
:1050C0000F0008A070470EA0704712A07047C10CD7
:1050D000042905D3400301D510A0704714A07047E0
:1050E00015A070475374726F6E676C792D6F726480
:1050F000657265642C20536861726561626C65003D
:105100004465766963652C20536861726561626CE1
:105110006500000044657669636500004E6F726D3E
:10512000616C2C20536861726561626C65000000DF
:105130004E6F726D616C00005265736572766564C6
:10514000206F7220496D706C656D656E7461746955
:105150006F6E20446566696E6564000002494058C0
:10516000002800D00120704700D00140034908B555
:105170000844002202600068009008BD00D0014091
:1051800000F180410868002210B101200A607047D8
:10519000104670474058002800D00120704708B5DD
:1051A000002242504058009008BD00688068704757
:1051B00000680021816070472DE9F04F81468068CA
:1051C00089B0D0F83C01C0F3400038B109B048467E
:1051D000BDE8F04F00221146FFF780B9012907D939
:1051E00009B04846BDE8F04F1DA20221FFF74EB9B5
:1051F0002049DFF884B0A1EB0B001821B0FBF1F8D7
:10520000002526E005EB45010BEBC1042068D4E93D
:10521000026A8768204600F03FF8642179436422DF
:105220004243B1FBF6F1B2FBF6F26369247CACB108
:1052300012A400BFCDE90664CDF800A00597CDE922
:105240000120CDE90361104A08214846FFF71EF905
:105250006D1C4545D6D309B0BDE8F08F0BA4E9E736
:1052600042616420617267756D656E7420636F754D
:105270006E740000947700007C7700004E6F206F02
:10528000766572666C6F77005C7600004F766572AB
:10529000666C6F770000000010B504460020FCF734
:1052A00042F9204600F046FC04460020FCF73DF998
:1052B000204610BD08B5002242504058009008BD5D
:1052C000024A1060101D0160704700002C760040FB
:1052D00002494058002800D001207047007000406B
:1052E000034908B50844002202600068009008BD28
:1052F000007000404058002800D00120704708B5D9
:10530000002242504058009008BD000070B54FF494
:1053100080763046FFF726FA114CB50560B130466D
:10532000FFF727FA0120C5F80803607920B90120AA
:1053300060712168002088474FF482763046FFF77D
:1053400011FA00280AD03046FFF713FA0220C5F8F8
:1053500008032168BDE870400120084770BD0000C7
:1053600048000020002802D001498001084770470A
:10537000A16E00002DE9F0418846054600F082FA52
:10538000234E002828461AD0FCF700FC304490F841
:1053900048008009032802D001280ED007E04FF012
:1053A000A040D0F81005E84010F0010F05D003210F
:1053B0002846BDE8F041FFF7EEBB0221F8E700F018
:1053C0006DFA002822D02846FCF7E0FB04464FF493
:1053D000807000EB84000F4F81B207EB8400D0F89F
:1053E000102542F00102C0F810250846FFF712FC14
:1053F000B8F1000F0AD02846FCF7C8FB56F8200089
:10540000002803D00120A040C7F80403BDE8F081C4
:10541000F4090020006000402DE9FC41DFF8BC8069
:10542000044608EB0400002790F930001346C0172B
:105430000E46401C01D008274CE0B0781946C0F356
:1054400040022046FCF77EFB0546401C41D0B07868
:10545000410719D4C0070AD04FF0A04000EB8401E7
:10546000D1F8000720F00200C1F8000707E0002192
:105470007378204600910A460191FFF75EFB1749B9
:1054800020465431FEF76AFDB078800718D51448DD
:10549000317800EB8500D0F81025124B1A40C0F887
:1054A00010254FF4F8524FF4403302EA042203EA85
:1054B00001410A43D0F810150A43C0F8102509E04D
:1054C00008EB0500327810F8481F41EA821101709C
:1054D00000E004273846BDE8FC810000F409002004
:1054E00000600040FFE0FCFF70B5184D95F85800D3
:1054F00008B1082070BD0020411E2A18401CC0B20F
:1055000082F830102028F8D300242046FCF70CFB4A
:10551000641CE4B20C2CF8D300240D49C0206C6547
:1055200081F8000401264020891FC1F88002C1F8DB
:1055300000014FF4BE70FFF76DFB0649F007C1F89C
:10554000040385F85860204670BD0000F40900206F
:1055500006E000E000600040034890F85800002892
:1055600000D0012070470000F40900200121B1EBB8
:10557000507F01D1012070470020704770B54FF077
:105580008040D0F80443114D600706D54FF4847075
:10559000FFF7F6FD08B168688047A00607D54FF40D
:1055A0008A70FFF7EDFD10B1A968002088476006FA
:1055B0000AD54FF48C70FFF7E3FD002804D0A968EA
:1055C000BDE870400120084770BD00005000002079
:1055D00070B50D4600F034FA04000FD00020FBF740
:1055E000A2FF207920B10020FBF79FFF112070BDA2
:1055F0000120256020710020FBF797FF002070BD7F
:1056000001490248FEF7E2B9C80A00200030004014
:1056100002494FF04020FEF7D9B90000EC0A002003
:1056200001490248FEF7D2B9100B002000300240B9
:105630002DE9FC470C46154601798046584A01EB96
:10564000C10002EB80069946307F10B10820BDE80A
:10565000FC87544AD8F80000074652F82110FFF79B
:10566000B7FF08B11120F2E7C6E90059207B0128F5
:10567000207802D8FFF7A0FA01E0FFF7A4FA4FF074
:10568000000ACDF800A0CDF804A020785346524679
:105690000121FFF764FA60784FF0FF35FF2806D04C
:1056A0008146FFF789FA4846FFF76BFA00E0A94602
:1056B000A078FF2809D0002205460123CDF800A0DC
:1056C0001146CDF804A0FFF74AFAA07886F820002A
:1056D000E078F077E078FF280BD0217911B1FFF75F
:1056E0006BFA01E0FFF76FFAE078FFF74AFA2079EA
:1056F000B0772178C7F80815C7F80C95C7F810558A
:10570000A068C7F82405217B607B00B10120012936
:1057100004D0022905D0032908D105E040F0020099
:1057200004E040F0040001E040F00600C7F8540532
:10573000A079C7F8C005306810B14020C7F804034D
:105740000720C7F800053068012118B3D8F8000019
:10575000627940F3073000284FEA421206DA00F07F
:105760000F0000F1E02080F8142D03E000F1E020AC
:1057700080F80024D8F8000040F3073000F01F0341
:1057800001FA03F24009800000F1E020C0F8802215
:10579000C0F80021504686F81DA0317757E7000079
:1057A000C80A0020886E00002DE9F04105460F462A
:1057B0000079154900EBC00001EB80041646607FBC
:1057C00010B11120BDE8F081206820B116F0140F4F
:1057D00001D10120607797E80F0004F10C0888E8F8
:1057E0000F00E07FFF2806D0A17F11B1FFF7EBF992
:1057F00001E0FFF7E1F933463A4621462868BDE863
:10580000F04100F0CDBD0000C80A0020014629B1DA
:10581000CA691AB10A6A0AB14A6A12B94FF0FF306E
:1058200000E0002070478A7D022A04D90289CB88D3
:105830001A44D21C02814289C988511AC91E418169
:105840007047000008B50021009101460823024A74
:105850000248FFF72DF908BDB86E00002C010020AA
:1058600008B50020009004480823044A0168044851
:10587000FFF71EF908BD0000F0000020B06E000028
:105880002C0100200449084490F93000082801DB6D
:105890000120704700207047F409002004490844A3
:1058A00090F93000082801D201207047002070478D
:1058B000F409002070B50246002000230024CD79B1
:1058C000022D0DD8CE79CD7AAE420BD0CC79157899
:1058D00025F070030F2505EA04151D43157001E03E
:1058E0006FF0030070BD70B5024600200023002455
:1058F0004D790F2D0CD84E794D7AAE420AD04C79A5
:10590000157825F00F0304F00F051D43157001E015
:105910006FF0030070BD70B5024600200023002424
:105920008D790C2D0CD88E798D7AAE420AD08C7977
:10593000157825F00F0304F00F051D43157001E0E5
:105940006FF0030070BD30B5024600200023002434
:10595000CD7B022D09D8CC7B157825F0300330257E
:1059600005EA04151D43157001E06FF0030030BD1A
:1059700070B502460020002300244D7B0D2D0CD86D
:105980004E7B4D7CAE420AD04C7B157825F00F0340
:1059900004F00F051D43157001E06FF0030070BDAA
:1059A00070B502460020002300248D7B042D0CD806
:1059B0008E7B8D7CAE420AD08C7B157825F0070358
:1059C00004F007051D43157001E06FF0030070BD82
:1059D000F8B504460D460027002000902B46012212
:1059E00021464020FBF73AFE06463EBB28791228A6
:1059F00015D1207820F0800747F0800020702B46DA
:105A0000012221464020FBF756FF0646B6B92B4639
:105A1000022269465820FBF74EFF06460EE020782A
:105A200000F0800050B1207820F0800727702B46CE
:105A3000012221464020FBF73EFF06463046F8BDD6
:105A40000F49884201D10F487047B0F1402F05D06F
:105A50000D49884205D10B4810307047094808307D
:105A600070470A49884202D10648183070470849F1
:105A7000884202D103482030704700207047000060
:105A8000003000405C000020003002400030014047
:105A900000200040F0B5254D254E85B00446002776
:105AA000686828B9214930680831FEF7DAF968607A
:105AB00001460078072817D2DFE800F0160408082E
:105AC0000E0E12002046FDF725FE02E0204601F0F2
:105AD00093F8040028D008E02046FDF74FF8F8E7D7
