:020000040000FA
:1000000028550020F5030000FD0300001502000044
:1000100001040000030400000504000000000000CB
:1000200000000000000000000000000007040000C5
:1000300009040000000000000B0400000D04000093
:10004000FD0800000F040000750F0000AD0B00005C
:10005000B90B00000F0400001D050000650A000038
:10006000110F0000250F0000390F0000210A0000C9
:100070000F040000F90900000F0400000F04000045
:10008000810F0000310A00003D0900001105000049
:10009000D10B0000D50B0000DB0B0000E10B0000D2
:1000A000E70B0000ED0B00004D0F0000610F00009A
:1000B0000D09000011080000000000000000000011
:1000C0000F0400001D0900002D090000C50B0000F1
:1000D000550A0000C10600000F04000000000000E7
:1000E0000000000000000000000000000000000010
:1000F0000000000000000000000000000000000000
:1001000000000000000000000000000000000000EF
:1001100000000000000000000000000000000000DF
:1001200000000000000000000000000000000000CF
:1001300000000000000000000000000000000000BF
:1001400000000000000000000000000000000000AF
:10015000000000000000000000000000000000009F
:10016000000000000000000000000000000000008F
:10017000000000000000000000000000000000007F
:10018000000000000000000000000000000000006F
:10019000000000000000000000000000000000005F
:1001A000000000000000000000000000000000004F
:1001B000000000000000000000000000000000003F
:1001C000000000000000000000000000000000002F
:1001D000000000000000000000000000000000001F
:1001E000000000000000000000000000000000000F
:1001F00000000000000000000000000000000000FF
:10020000DFF80CD000F054F9004800471D21000031
:1002100028550020094B1EF0040F1CBFEFF3098086
:100220001847EFF308800649064A884201D89042F1
:1002300002D88D464FF000001847000081060000EC
:10024000285500202835002030B450E8012F93B203
:10025000C48923448489A34228BF1B1B0489A34269
:1002600002BFBFF32F8F002007E0C3EA020340E87C
:100270000134002CE9D14FF001000A6030BC704716
:1002800050E8012FC2EA024240E801210029F7D1DB
:10029000704730B450E8022F1FFAA2F3C488A3427B
:1002A00002BFBFF32F8F00200DE0C489234484894F
:1002B000A34228BF1B1BC2EA034340E80234002CC0
:1002C000E8D14FF001000A6030BC704750E8022FBF
:1002D000C2EA224240E802210029F7D170470346D2
:1002E00053E8022FD988B2EB324F4FF0000017BF0E
:1002F00092B241EA014142EA014104E05A68B2EB9C
:10030000324F08BF012043E80212002AE8D17047AB
:1003100030B4044654E8000F0D4644E80053002B67
:10032000F8D1156030BC704730B4044654E8000F73
:1003300040EA010544E80053002BF7D1156030BCBA
:10034000704730B4044654E8000F00EA010544E861
:100350000053002BF7D1156030BC704730B4044611
:1003600054E8000F80EA010544E80053002BF7D160
:10037000156030BC704730B4044654E8000F00EB01
:10038000010544E80053002BF7D1156030BC7047DD
:1003900030B4044654E8000FA0EB010544E80053D4
:1003A000002BF7D1156030BC704770B404464FF095
:1003B000000054E8006F0D68AE4207BF44E8002318
:1003C000012044E800630E60002B1CBF0020F0E712
:1003D00070BC704730B4044654E8000F88422CBF0C
:1003E000451A054644E80053002BF5D1156030BC92
:1003F000704700000648804706480047FEE7FEE7D2
:10040000FEE7FEE7FEE7FEE7FEE7FEE7FEE7FEE7C4
:10041000F50B00000102000000487047EC480000A6
:1004200010B5431A934209D28318881803E010F8D4
:10043000011D03F8011D521EF9D210BD40EA01034F
:100440009B0703D009E008C9121F08C0042AFAD28A
:1004500003E011F8013B00F8013B521EF9D210BD38
:10046000D2B201E000F8012B491EFBD270470022F6
:10047000F6E710B513460A4604461946FFF7F0FFA3
:10048000204610BD421C10F8011B0029FBD1801A28
:10049000704710B5002200E0521C835C8C5CA342C4
:1004A00001D1002BF8D1D8B2E1B2401A10BD000042
:1004B000064C074D06E0E06840F0010394E80700B1
:1004C00098471034AC42F6D3FFF79EFE604E000012
:1004D000804E000030B58C1810F8012B12F00F037D
:1004E00001D110F8013B120906D110F8012B03E0ED
:1004F00010F8015B01F8015B5B1EF9D101E001F826
:10050000013B521EFBD1A142E6D3002030BD0000CA
:100510000148006800470000740000202DE9F04702
:1005200000268AB0DFF85091B0464FF48075012460
:1005300037460696284602F075FD38B1D9F804030F
:10054000204203D0284602F063FD26432D1D64009F
:100550007F1CADB2082FEDD34FF4BE74204602F0DD
:1005600061FD48B1204602F053FD46F0004606AA60
:100570000121002002F038FD404D16F0FF0F15D08C
:100580000127002437420DD009EB8401D1F8100572
:10059000D1F81015C0F3042055F82420C1F301410F
:1005A00002B190477F00641C082CEBD3002E5FDA69
:1005B0004FF0FF30CDF8108054E0281910F8507F2C
:1005C00090F9000027F0C008401C3BD007A9404626
:1005D00001F0CCFE10B34FEA9719404600F08CFEB4
:1005E00055F820701FB1B9F1030F03D006E0B9F13F
:1005F000030F27D104A9404601F0C0FE4FF0A041EF
:1006000001EB8800D0F8000706A9C0F3014A404674
:1006100001F0ACFE18B1BAF1020F03D012E0BAF14A
:10062000030F0FD1B9F1030F08D1BAF1020F1DD09A
:100630000221404602F0ADFC761CF6B217B14946E5
:100640004046B847641C042CB7D3002E10D06A462D
:100650000121002002F0C8FC06990098884207D0CA
:1006600006900498002634460790A6E70321E0E7A9
:100670000AB0BDE8F08700000060004034020020AE
:10068000054909680449091D09680021491C1A29FE
:10069000FCD300F003F8000028ED00E0BFF34F8F1B
:1006A00005480168054A01F4E06111430160BFF3A8
:1006B0004F8F00BFFDE700000CED00E00400FA05DD
:1006C0002DE9FC413F4E4FF48A752946304602F031
:1006D000B1FC3D4C70B12946304602F0B0FC607967
:1006E00040F008016171880704D5C80602D541F0C1
:1006F000200060714FF482752946304602F09AFC62
:1007000070B12946304602F09AFC607940F004014D
:100710006171C80704D0C80602D541F0200060719D
:100720004FF484773946304602F084FC0025B0B19E
:100730003946304602F083FC0420C6F80803C6F8A8
:100740000055214800212268103090471E480021A2
:1007500022680830904701202071BDE8FC81607953
:1007600081074FEAC07103D519B1010705D4F4E739
:1007700009B9010703D48107EFD44107EDD520F073
:100780000C00607181060BD520F0200040F01000B5
:100790006071226802B00121BDE8F04100201047DD
:1007A000D4E90412CDE90012D4E90212A560E56093
:1007B000C4E9041240F0100060712268012168460B
:1007C0009047CAE7005002409002002000F01F024C
:1007D000012191404009800000F1E020C0F8801222
:1007E000704700F01F02012191404009800000F194
:1007F000E020C0F80011704700F01F020121914075
:100800004009800000F1E020C0F8001270470000AD
:100810002DE9FE434FF48078404602F09DFE01260C
:10082000334F344C002570B3404602F09DFEA07C4F
:1008300026EA000104EB810252682AB9627C022A8E
:1008400002D0E07C90B119E08DF80850E574627C2C
:10085000022A08D004EB8000426801924560A1742E
:100860008DF8006007E001956674F9E797E80700E6
:100870008DE80700E674216868468847607C022896
:1008800028D1667426E0FFE74FF48278404602F0F4
:1008900063FEF8B1404602F067FE174805606574D4
:1008A0008DF808508DF80050A07C04EB800148685A
:1008B00020B101904D60216868468847A07C86433E
:1008C00004EB8600416821B10191456021686846CA
:1008D0008847A574207D002808D00C3797E80700CA
:1008E0008DE807002575216868468847BDE8FE83C6
:1008F000CC450000A802002000D5014010B502F050
:100900003FFFBDE8104002F0FFBE00000149024871
:1009100001F099BAC002002000C00140014902481C
:1009200001F091BAC80200200010024001490248BB
:1009300001F089BAD0020020002002402DE9F843DE
:100940002A48DFF8A4804FF480720168284E002501
:1009500089B1D8F8041311F0010F0CD005600068BC
:100960000090244862F30F040068726860F3174433
:100970003946204690471D484FF48271001D026899
:10098000BAB1D8F8042312F0020F12D00560006843
:100990000090184861F30F040C30006860F31F44A6
:1009A00014483C300068726860F30F0739462046EF
:1009B00090470E484FF48472083041460368002B7C
:1009C00010D0D1F8041311F0040F0BD005600068AB
:1009D0000090204662F30F00726801B03946BDE80E
:1009E000F0431047BDE8F88300200140002101409A
:1009F000840000200C250140064882B000210160DF
:100A000000680090044800680449C0B2496802B018
:100A10000847000000D1004008D500408C000020AD
:100A200003220021014801F05DBA000000B000403F
:100A300007480021C0F84011C0F84411C0F848111F
:100A4000C0F84C11C0F80011C0F8041103F01EBC2E
:100A50000010014004220121014801F043BA0000C6
:100A6000004002402DE9FE434FF48278404602F0F8
:100A70002DFE4C4F00254C4C012600B3404602F0A1
:100A80002DFE94F82E0010B194F82F10D1B18DF8EE
:100A90000050616801912189ADF80810E26832B117
:100AA000218B618362602181E56010B102E02574D1
:100AB00000E03E6021686846884784F82F5094F82B
:100AC0002E0060B34FF48077384602F0FFFD30B35C
:100AD000384602F003FE628B94F82D108A420AD940
:100AE000A2EB010080B260832289A2EB0000626861
:100AF00002EB400005E007D1E06828B184F82F60E0
:100B0000658302F0DBFD04E08A4202D184F82F60A5
:100B10006583404602F0E2FD2248001D06604FF466
:100B20008877384602F0D2FD48B1384602F0D6FD4B
:100B3000257402208DF800002168684688474FF42C
:100B40008A77384602F0C2FD28B1384602F0C6FD69
:100B50002574BDE8FE834FF000484FF48C79676937
:100B60001DE000BFB7FA87F028FA00F109EB800515
:100B70008F43284602F0AAFD88B1284602F0AEFD58
:100B8000A5F58C75E8088DF8040045F38000401C3D
:100B90008DF800608DF80500216868468847002FB1
:100BA000E0D1D6E700700040D8020020014800687C
:100BB000004700005C00002001480068004700007A
:100BC0006400002001480068004700006C0000201D
:100BD00003F0CEBA012003F095B9022003F092B9D8
:100BE000032003F08FB9042003F08CB9052003F033
:100BF00089B90000F0B5B5480023021D0178101D29
:100C000001254FF0805406290BD11678360708D1FC
:100C10000678C6F30316032E06D0042E04D0052E44
:100C200002D0062907D00EE0B4F82463A84FC6F31B
:100C300004263E6002E01678360704D10678C6F333
:100C40000316032E02D0062904D00FE0A24FA14EB6
:100C50007E670EE01678360708D10678C6F30316CD
:100C6000032E06D0042E04D0052E02D0062907D06C
:100C70000EE0D4F84462994FC6F342363E6002E07B
:100C80001678360704D10678C6F30316032E02D071
:100C9000062906D011E0924E376827F0807737603A
:100CA0000EE01678360708D10678C6F30316032E31
:100CB00006D0042E04D0052E02D006290AD011E059
:100CC0004FF08046C6F80C31C6F81031834E361FFF
:100CD000336002E01678360704D10678C6F30316AF
:100CE000032E02D0062905D00CE07C4F0326643782
:100CF0003E600AE01678360704D10678C6F303167C
:100D0000032E02D006290DD014E0764F05263E6052
:100D1000744E78363560734E083633603F263F1D7B
:100D20003E6002E01678360704D10678C6F3031653
:100D3000052E02D0062957D062E06B4E36686B4F05
:100D40003E60694E361D36683F1D3E60664E083671
:100D500036683F1D3E60644E0C3636683F1D3E606F
:100D6000614E103636683F1D3E605F4E1436366861
:100D70003F1D3E605C4E183636685C4F20373E6043
:100D8000594E1C3636683F1D3E60574E2036366839
:100D90003F1D3E60544E243636683F1D3E60524E25
:100DA000283636683F1D3E604F4E2C3636683F1D54
:100DB0003E604D4E303636684C4F40373E604A4EAE
:100DC000343636683F1D3E60474E383636683F1D24
:100DD0003E60454E3C3636683F1D3E60424E4036D2
:100DE00036683F1D3E6002E01678360708D1067867
:100DF000C6F30316032E06D0042E04D0052E02D00F
:100E0000062907D019E0D4F85812394A01F04F01E9
:100E1000116002E0117809070FD10078C0F30310C8
:100E2000032803D0042801D0052806D131480168E1
:100E3000C90702D06FF001010160D4F83001062823
:100E400008D1D4F83401062804D12B48016841F4B4
:100E50008061016022487438016841F470010160CA
:100E6000BFF34F8FBFF36F8F4FF01021D1F8000207
:100E7000002803DBD1F80402002822DA1F4A15609B
:100E80001F480468002CFCD01524C1F800420568F6
:100E9000002DFCD0C1F8044201680029FCD0136089
:100EA00001680029FCD0BFF34F8F0D48F03801686E
:100EB000144A01F4E06111430160BFF34F8F00BF9A
:100EC000FDE7124910480860F0BD0000E00F00F097
:100ED000403501400DF0ADBA00C007403C05004070
:100EE000FCED00E0105600400404001020C5004056
:100EF000E40E0040000400403C17004004E50140BF
:100F000000E401400400FA050090D0030001002035
:100F100004220249024801F05BB800009803002057
:100F20000080004004220249024801F051B800004C
:100F3000A40300200090004004220249024801F06E
:100F400047B80000B003002000A00040062202497C
:100F5000024801F03DB80000BC03002000A00140A1
:100F600006220249024801F033B80000C8030020FD
:100F700000B0014001480068004700007C000020EC
:100F800038B50848D0F804034FF0000410F0010F02
:100F900006D0054840688047044804600068009017
:100FA00038BD000000000140A40000200001014005
:100FB00002E008C8121F08C1002AFAD17047704722
:100FC000002001E001C1121F002AFBD170478007F9
:100FD00001D00020704701207047C3688B4206D8BB
:100FE00011440069491E814201D801207047002048
:100FF000704700F003B800F009B8000072B602486C
:101000000168491C01607047C4000020034908685A
:10101000401E086000D162B670470000C400002086
:1010200070B51C0005D0E5691DB1A378012B03D074
:1010300004E04FF0FF350EE040F080001346667884
:101040000A4601463046A8470546616A012088479E
:101050000DB16FF00105284670BD38B50446032573
:1010600002F0D6FC00281FD1A178012907D1234620
:10107000012269467F20FFF7D3FF002814D1002109
:10108000217005E02346012219460020FFF7C8FF22
:101090006D1EEDB202D32178D129F3D110B9207899
:1010A000D12802D06FF0020038BDFF20E07020464A
:1010B00000F040F838BD2DE9F0474FF000061C0065
:1010C000054690468946374608D0D4F820C0BCF182
:1010D000000F03D0A078012803D004E04FF0FF36C2
:1010E00025E005F07F05207A112802D0207C152804
:1010F00018D113460A4660782946E0470646616AD9
:101100000120884710E0266A09EB07026078012376
:101110002946B0476D1C0646616AEDB2012088473A
:101120007F1CFFB24745EED30EB16FF0010630468B
:10113000BDE8F08738B504004FF0B6008DF8000028
:101140000DD0606A58B12346012269467E20FFF720
:10115000B2FF0546616A0F2088471DB11FE04FF0BE
:10116000FF351CE0A078012807D1234601226946FB
:101170007F20FFF755FF050011D10220E071082103
:101180006171102222710322A271E0736173142035
:1011900020730020A0736068A060E068206128468A
:1011A00038BD00002DE9FC4781460C4615461E4619
:1011B00000200E490870002744F080000190DFF8FD
:1011C0003080701CC0B24346012201A9009009483A
:1011D00001F038FD00BF054800780028FBD0044826
:1011E0004078287078B2BDE8FC870000000000203D
:1011F00040010020404500002DE9F84F0F46904681
:101200001C46002015490870834604F1010A504627
:1012100000F08EFF054607F07F002870002604E0EE
:1012200018F80610701C295486B2A642F8DB00207C
:101230000090601CC2B200232946094801F002FD5B
:1012400000BF064800780028FBD04FFA8BF92846EB
:1012500000F0F4FB4846BDE8F88F000000000020D5
:10126000404500002DE9FC410646C0074FF000054F
:101270000ED0104F00240122385D00950023114646
:10128000019501F058FE641C042CF4D300F01CF806
:10129000B0070DD5074E0024361D0022305D032314
:1012A00000951146019501F046FE641C042CF4D310
:1012B000BDE8FC81684500000249085C012101F09D
:1012C00087BE00006845000010B500242046FFF7E7
:1012D000F3FF641C042CF9D310BD30B48268046899
:1012E000531C8360A154D0E901128A4202D330BC5E
:1012F00001F0CEBC30BC70470249084490F9300080
:1013000070470000340200202DE9F0410446806857
:101310000F46D0F83C11C27C11F00106817CA1EB94
:101320000203DDB20AD07F2901D3002D7ED0A06850
:10133000C17C08440021077566B113E07F297CD287
:10134000002DF4D0831803F114012A46481CFFF73E
:1013500067F8ECE7A068827C521CD2B28274A06865
:10136000143281544DB3204600F057FF8178C07885
:1013700081420ED1A06832A2C17C431808212046C8
:10138000143301F093FAA81BC1B2204600F072F9A1
:1013900021E0204600F06CF8A06829A2C17C431827
:1013A00008212046143301F081FA204600F056F857
:1013B0000121204600F006FA0DE03EB1A068827CD3
:1013C000521CD2B28274A068143281543A461DA1D4
:1013D000206901F050FCA168C87C401CC8742046FC
:1013E00000F034F90028204603D0BDE8F04100F0B9
:1013F0004DB900F04EFB00281FD0204600F00DFF35
:101400000546C078A978401A401EC1B2204600F0B7
:1014100011F9204600F03AF9E878A978401AC1B2EB
:10142000204600F0DBF92878401E00E005E0C1B25C
:101430002046BDE8F04100F0C5B9BDE8F0810000EC
:1014400025730000256300000069024A02A101F033
:1014500012BC0000AC470000257300000069024A7E
:10146000024901F008BC0000A34700005814000026
:101470000069024A024901F0FEBB0000A0470000DB
:10148000581400008068D0F83C01C0F3C0007047D9
:1014900030B4406804682469A44630BC6047002822
:1014A00001D0FEF7EFBF70472DE9F8431E46154601
:1014B0008846074600241BE0786808EB04016B4669
:1014C0000268D2F80CC02A46E047009804442D1A5E
:1014D00070B9B868017803290AD000BFD0F83C1170
:1014E0008906FBD5D0F83C1121F02001C0F83C1151
:1014F000002DE1D1002E01D000983060BDE8F883C6
:101500002DE9F05F1C460A9E15464FF0000959B1BF
:1015100080B3017839B34268314628469047306835
:10152000D8B12660BDE8F09F14491548A1EB00082A
:10153000B5EBD80F11D2DFF84CA00026834609E0A6
:101540000BEBC607786801685AF82500FEF7A1FF83
:1015500030B1761CB6EBD80FF2D3C4F80090E1E7B7
:1015600078682060DEE7406800EB0210016809B18E
:101570001860D7E7FFE7C3F80090D3E7C04E00003C
:10158000804E00000C0100202DE9F05F26484168E4
:10159000F1B3DFF898B00E688146DBF80040876849
:1015A0008078E11B21F07F45ED1CB0B9DFF8808029
:1015B0004FF48030C8F84403C8F804031120FFF743
:1015C00005F91120FFF70DF94FF0010AC8F800A046
:1015D0002F2002F0C5F889F802A0B54200D23546A6
:1015E000124BE8193C3320F07F401860DBF8001004
:1015F0005A46091B21F07F41001B20F07F40C91C87
:1016000081420FD9106818602F2002F0A9F800E07D
:1016100004E0BDE8F05F1120FFF7EEB8BDE8F05F31
:1016200002F094BBBDE8F09FB0000020041501401B
:1016300000100140002904D00A46006901A101F010
:101640001ABB70471B5B25644200000010B50446BE
:101650000068FFF724FF0146A068C27C407B11446C
:10166000B1FBF0F200FB121008B1002010BD012008
:1016700010BD0000002904D00A46006901A101F054
:10168000FABA70471B5B2564440000000069024AF7
:10169000024901F0F0BA0000A6470000581400000B
:1016A0002DE9FC47002604468DF804608068354625
:1016B000B146B04680219430FEF7D9FE40492069FA
:1016C00001F0D9FA206901F0E3FA00276B46012204
:1016D00001A92046FFF7DCFE0098D8B19DF8040070
:1016E0001B2806D0A16891F894101B29EED152282E
:1016F0001FD0A26808F19401505408F1010000F0D5
:10170000FF08B8F1090F0AD9A168042081F8949064
:10171000BDE8FC872A494FF6C0100D318847009874
:101720000028D3D17F1CBFB2B7F57A7FCED30D206E
:10173000EEE7A16808F194004A4601F80090A1681C
:1017400091F895005B2803D081F894200B20DFE707
:1017500002206FF02F0309E005EB850503EB45053B
:10176000401C3D44C0B2ADB2802808D200F19407BD
:10177000CF5D3B2FF0D1401CC0B2802809D30C2094
:10178000C6E700BF06EB860603EB46063E44B6B24C
:10179000F1E700F19407CF5D002FF3D1FA20FA2E84
:1017A00001D9087200E00E72FA2D02D9A168887280
:1017B00001E0A0688572A06880F894200020A7E767
:1017C000C4470000002904D00A46006901A101F0C5
:1017D00052BA70471B5B256443000000002904D007
:1017E0000A46006901A101F046BA70471B5B2564F7
:1017F000410000007FB50C4610B1012004B070BD5F
:101800002079002638B141F61D5501281BD0022849
:1018100026D00F20F2E70220207102960396E0689E
:101820000190694601A802F0F7F950B10298818849
:10183000E18000882081BDF80010029802F06AFA69
:10184000DCE70A20DAE70A4B6A460021A01D02F015
:101850009FF938B1064918398E61CE610A28CDD179
:101860002846CBE702488188019802F053FAF5E751
:10187000E00000200E4910B50A784C780023A242FF
:1018800012D0521CD2B20A70022A00D10B70084A40
:101890000B780C3252F8232002608868104420F044
:1018A0007F408860012010BD0360002010BD000053
:1018B000B000002010B503780022072B06D2DFE825
:1018C00003F005040610202930000A7010BD012322
:1018D0000B7003898B818388CB81C06888600A7410
:1018E00010BD02220A7002898A818288CA81C26878
:1018F0008A60807D062802D00020087410BD012077
:10190000FBE703220A70C2888A810289CA81C06803
:10191000886010BD04230B70C0888881CA818A60EA
:1019200010BD0520087010BD70B5064D0646002498
:1019300055F8241009B130468847641C042CF7D3AD
:1019400070BD0000FC0400202DE9F05F17460E007A
:10195000814670D013B1F9B2FFF734FF0024FEF7CF
:101960005BFD8246006800E0641C315D415CC90794
:10197000FAD100253046FFF792FDD9F80810001B78
:101980004A7BD11B814228D306EB040805E000BF47
:1019900018F805100A290CD06D1C8542F8D33119AE
:1019A000D9F8100001F067F94846BDE8F05FFFF78D
:1019B0006DBED9F8100001F06BF9414600232A46AC
:1019C0004846FFF771FD2C444846641CFFF75EFE55
:1019D000F9B24846FFF7F6FEE1E78B46DAF8001069
:1019E00006EB040818F805000B5CDB0702D0AB46D9
:1019F0000A2804D0E819904201D26D1CF2E7D9F808
:101A0000100001F045F9414600235A464846FFF7C9
:101A10004BFD5C44DAF8000000E0641C315D415C81
:101A2000C907FAD14846FFF731FEF9B24846FFF739
:101A3000C9FE9EE7FFE7BDE8F09F000010B5002853
:101A400021D0114B0022001F196803E0814203D806
:101A50000A4649680029F9D152B11368841A9C4298
:101A600004D1006818441060104602E0506000E0A5
:101A7000186039B102680B1A934203D10B681A44FB
:101A800002604968416010BD04010020406802F016
:101A900023B810B504460068FFF701FD0146A068B1
:101AA000827C407B1144B1FBF0F200FB121008B1C4
:101AB000002010BD012010BD70B508B1012070BD1F
:101AC0001B4C0025207B08B1257301E000F0A4F831
:101AD000207808282AD2DFE800F02904080C102911
:101AE0001422BDE8704000F025B8BDE8704000F059
:101AF00081B8BDE8704000F063B8BDE8704000F008
:101B00003FB8062020706088094900EB8000283922
:101B100001EB80004068BDE8704001F093BF0720F2
:101B200020706560BDE8704001F09ABF0F2070BD65
:101B3000C00500201149F0B48A1C00200346A1F121
:101B400028050C18A67A4EB1A37200EB800405EBB1
:101B50008404E66816B9247C012C0AD0401C80B2AB
:101B60000228EED30B704B804B60F0BC41F61D5049
:101B700070471080F0BC00F03DB80000C0050020A8
:101B80000C48418801EB8102A0F1280101EB8201A0
:101B9000CA6852B10521017007480221818001689D
:101BA00000230122054801F06CB904220270496843
:101BB000F6E70000C0050020F00000202C01002006
:101BC00038B50A49084803240B684268898803EB42
:101BD000810153880470DB1C00201B0400909B0BC8
:101BE000034801F075F938BDC0050020F000002061
:101BF0002C010020074910B54888091D02F05CF847
:101C000018B1BDE81040FFF7DBBFBDE81040FFF79B
:101C1000B7BF0000C0050020F0B51F481F490125CF
:101C2000067802248B88A0F12802082E19D2DFE85A
:101C300006F00418181B222F2F170189491C018157
:101C40000021418080F80C1001EB810312F8233051
:101C500043B100234418491C89B2A3720229F3D36B
:101C60000570F0BD0123F5E742685288D21C1A4482
:101C70008A800470F0BD46880D6806EB860602EB8C
:101C8000860256680E60556013818C80062100E044
:101C900007210170F0BD0000C0050020F000002009
:101CA000428800EB82020C328A4201D9022070473E
:101CB0008188A1F57F42FF3A03D0008808B1002057
:101CC000704701207047884204D20068401C01D050
:101CD00001207047002070472DE9F0412D4F00256D
:101CE00018B17D600120BDE8F0810879012258B16A
:101CF000294E01280CD0274C4FF002080834022846
:101D000021D0032842D128E00A7101F0A9FE3BE06E
:101D10005FF0000000EB800116F82110022908D0C6
:101D2000401C80B20228F5D33A707D6041F61D5008
:101D3000D9E700EB800006F8205006EB80004068F1
:101D400001F080FE20E00D71A4F804800023012240
:101D50001248216801F095F816E00D71206801F035
:101D600071FE0D4923682831498801EB810206EB99
:101D70008201D1F804C0C4F800C04B60A3880B8175
:101D8000A4F8048006F822500028ACD07D600E2014
:101D9000A9E70000E8000020980500202C010020A1
:101DA0002DE9FC5F0E008346DDE90C47C6F100001B
:101DB00098469246814600D40846012503E000BFBC
:101DC00090FBFAF06D1C5045FADAA84500D945465B
:101DD00024B1002E01DB780700D5641EB80702D5B8
:101DE000B8F1000F0AD0F80708D13CB1A54205D2DE
:101DF00020215846641EFFF770FAF6E7002E02DA3B
:101E00004E462D2102E0780703D52B215846FFF7D7
:101E100064FA07F0030002280BD1B8F1000F08D1D3
:101E20003CB1A54205D230215846641EFFF755FA51
:101E3000F6E7CDE90047434652463146584602F0A0
:101E40005FFABDE8FC9F70B50C464FF488760546F6
:101E5000314601F09DFB50B13146284601F09DFB13
:101E60006079400703D5216809B1012088474FF404
:101E70008A763146284601F08BFB50B13146284620
:101E800001F08BFB6079000703D5216809B10220BE
:101E900088474FF48E763146284601F079FB50B1E1
:101EA0003146284601F079FB6079C00603D42168E9
:101EB00009B1002088474FF482763146284601F068
:101EC00067FB00280CD03146284601F066FB012054
:101ED00020712168002903D0BDE870400320084725
:101EE00070BD00002DE9F0479146884604464FF446
:101EF00080354FF4A0760027DFF884A016E000BFFD
:101F0000D4F8040328420DD0A05958B1C4F848535E
:101F1000C4F808533146204601F0CAFB5AF828108D
:101F2000F8B28847361D6D00B6B27F1C4F45E7D327
:101F3000D4F804034FF4807110F0010F09D0D4F8E5
:101F4000000130B1204601F0B3FB5AF828100420FC
:101F50008847D4F804034FF4827110F0020F0CD0BC
:101F6000D4F80401002808D0204601F0A1FB5AF85B
:101F70002810BDE8F04705200847BDE8F0870000BD
:101F80009C000020F8B50E4604464FF48C7101F019
:101F9000AFFB00281AD00025C4F81851D4F8180156
:101FA0000090F07F3446FF2806D0A17F11B101F0E8
:101FB00001F801E001F005F865772572D4E9002108
:101FC00001B004F10800BDE8F0401047F8BD000082
:101FD0002DE9F041174688460646002417E000BF69
:101FE0004FF4A07000EB84054FF480307159A0408D
:101FF00059B1D6F80413014207D02946304601F002
:102000007CFBD8E9002128469047641CE4B2BC421E
:10201000E6D3BDE8F081800701D0002070470120A1
:10202000704700002DE9F047394E002780463D46B5
:10203000DFF8E090D6F804A057E003D00446D0F8CB
:102040001C8035E099F8002002EB4201521CD2B20C
:1020500089F8002009EBC10199F80230091D9A4264
:1020600001D189F8005048680A780446012A12D044
:10207000022A02D0032A3BD108E002F0D7F800B1CF
:102080000127257434E00574C06900E070680028F9
:10209000F9D170602CE0207C50BB88686060C86813
:1020A000A0600869E0604869A061F07800B16560EF
:1020B0006268B168184B501A20F07F40984202D2F3
:1020C000A168084406E0881AA16820F07F40814298
:1020D00002D9081A206000E0256065600120A56033
:1020E00020742046E56102F083F8B8F10000A4D125
:1020F00099F8001099F801008142A3D117B97168CD
:10210000514502D00120BDE8F0870020FBE7000028
:10211000B0000020D4030020FFFF7F000120FFF764
:10212000A1F801F04DFE01F02FFE00BFFEE7000018
:10213000F0B50B30154D20F007010024144A0FE0D4
:1021400003688B420BD38B4205D95E1A431847684C
:10215000C3E9006700E04368136002C004E0021DA9
:1021600010680028ECD12046002802D1286808B168
:102170000020F0BD064A07481060074A121A22F0F4
:102180000702C0E9002401202860D7E708010020E9
:10219000040100202C150020283500202DE9F047EF
:1021A000C5881E1DB6FBF5F78946B6FBF5F104465A
:1021B00005FB176C407916686843DDF820A0F71816
:1021C000001F874200D9C61A166001E02468491E24
:1021D0000029FBD1A5EB0C078846B74216D818E0BA
:1021E00004EB0C00001D09EB0803BAF1000F3A469E
:1021F00002D00146184600E01946FEF711F924689E
:10220000F61B4FF0000CB844B54201D9374600E048
:102210002F46002EE4D1BDE8F08770B584680068D1
:1022200004F10805FFF73BF9C1B2A971E07C6A79B6
:102230000844B0FBF2F302FB13035B1C2B70E07C41
:102240000844B0FBF2F35B1CAB70A07C0844B0FB0D
:10225000F2F35B1CEB70A07C0844B0FBF2F102FBD4
:102260001101491C6970284670BD10B50A8849885B
:102270008A4203D1FEF72AF8012010BD002010BDCC
:1022800070B50C460546FEF704F8002802D06188B8
:102290002868084470BD08B56A46FEF779F80098CA
:1022A00008BD00002DE9F0470646806888B0D0F8E8
:1022B0003C01C0F3400038B108B03046BDE8F047FB
:1022C0000022114600F01ABB012907D908B0304698
:1022D000BDE8F0471DA2022100F0E8BA2049DFF86E
:1022E00084A0A1EB0A001821B0FBF1F5002428E03E
:1022F00004EB44010AEBC1034FF000091F68D3E966
:1023000001103A793F78411AB3F81480C01B1B6959
:10231000C0B2642712FB07F7B7FBF1FC642710FB80
:1023200007F7B7FBF1F7CDE90621CDE9041CCDE9AC
:1023300002700D4A08213046CDE9008900F0B6FA56
:10234000641CAC42D4D308B0BDE8F087426164207D
:10235000617267756D656E7420636F756E740000D1
:102360000000000000000000304A0000C20800F039
:1023700007030120895C98400840704710B5C208E7
:1023800000F00703885C01249C402043885410BD62
:1023900070B515468268D2F83C41C4F3400424B1BC
:1023A0001A46294600F0AAFA06E039B1516804A29B
:1023B0000B68022100F07AFA012070BD002070BD88
:1023C00025733A2077726F6E6720706172616D6558
:1023D00074657220636F756E740D0A0010B5044643
:1023E00002290CD1A068D0F83C01C0F3400030B104
:1023F00020460022BDE81040114600F07FBA064A90
:1024000006A1206900F037FC034A2069BDE81040AE
:10241000093202A100F02FBCC04700002573000064
:10242000012907D0022909D18168D1F83C11C1F3F3
:10243000400119B10022114600F060BA01A2022148
:1024400000F034BA506C6561736520737065636920
:102450006679206120737562636F6D6D616E642EA5
:102460000D0A00001CB5012905D002290BD014D992
:102470004FF0010112E002B04FF00002BDE8104041
:10248000114600F03BBA536808A1CDE90013136868
:102490000CA2022100F00AFA1CBD002102B00023A8
:1024A000BDE810401A46FFF773BF000020756E6B41
:1024B0006E6F776E20706172616D657465723A201F
:1024C0000000000025733A257325730D0A000000F3
:1024D00010B50446012901D0012100E000210023AC
:1024E0001A46FFF755FF002809D1A168C1F82C0151
:1024F000E06840680068BDE8104001F057B810BDC2
:102500003EB50546012901D0012100E0002100234C
:102510001A46FFF73DFF002818D1E86840680468B4
:10252000204601F040F8C0B2642110FB01F2A1681E
:10253000B2FBF1F2D2B20092CDE90101A86804A287
:102540000821D0F82C31284600F0B0F93EBD00003B
:102550004C6F7374206C6F67733A2025750D0A4DAC
:102560006178206C6F672071756575652075746979
:102570006C697A6174696F6E3A2025752525205B38
:1025800025752F25755D0D0A000000007CB51446E9
:102590000546012903D0022908D0012107E002B035
:1025A0000022BDE87040114600F0A8B900210023C8
:1025B0001A46FFF7EDFE002809D1616804A0CDE9B5
:1025C000000109A202212846236800F06FF97CBDB2
:1025D00020756E6B6E6F776E20706172616D6574C1
:1025E00065723A200000000025733A257325730DAB
:1025F0000A00000010B50446012901D0012100E0C5
:10260000002100231A46FFF7C3FE002806D1A06868
:10261000D0F83C1121F00401C0F83C1110BD10B5F8
:102620000446012901D0012100E0002100231A46BF
:10263000FFF7AEFE002806D1A068D0F83C1141F0AB
:102640000401C0F83C1110BD7CB514460D46064689
:10265000022901D9012100E0002100231A46FFF7D9
:1026600097FE002811D1022D05D03046FEF70AFF53
:1026700060B10BA30BE061680AA0CDE900010FA2D5
:1026800002213046236800F011F97CBD0EA302B090
:102690003046BDE870400DA2082100F007B90000E7
:1026A0006F6E000020756E6B6E6F776E20706172BA
:1026B000616D657465723A200000000025733A254B
:1026C0007325730D0A0000006F6666004563686F2E
:1026D000207374617475733A2025730D0A0000002D
:1026E00010B50446012901D0012100E0002100239A
:1026F0001A46FFF74DFE002806D1A068D0F83C111D
:1027000021F00801C0F83C1110BD10B504460129A4
:1027100001D0012100E0002100231A46FFF738FE16
:10272000002806D1A068D0F83C1141F00801C0F89B
:102730003C1110BD7FB50446012901D0012100E004
:10274000002100231A46FFF723FE002827D1A068A6
:102750000026D0F83451F5B101E0082E1BD2002339
:10276000092201A9284600F070FC9DF80C20A16800
:10277000092328469431521C00F067FCA0683346B8
:1027800094300090029D761C05A20821204600F09E
:102790008DF8002DE1D1A168002081F894007FBD63
:1027A0005B2533645D2025730D0A00007CB515465A
:1027B0000446012903D0022917D9012116E0A16896
:1027C00001F10C020D3101F0A3FC00281ED0A1681C
:1027D00050200FA24873A1681820087302B0204649
:1027E000BDE87040042100F061B8002100231A46C2
:1027F000FFF7CEFD002809D1696814A0CDE90001DA
:1028000018A2022120462B6800F050F87CBD000081
:102810004E6F20726573706F6E73652066726F6D98
:1028200020746865207465726D696E616C2C20611E
:102830007373756D65642038307832342073637239
:1028400065656E2073697A650D0A000020756E6BF0
:102850006E6F776E20706172616D657465723A207B
:102860000000000025733A257325730D0A0000004F
:1028700010B50446012901D0012100E00021002308
:102880001A46FFF785FD00280AD1064A06A12069ED
:1028900000F0F1F9A16850204873A168182008736E
:1028A00010BD0000D6470000257300000FB438B5F6
:1028B000044607A80090A068D0F83C21520717D51D
:1028C000C27B8A4214D0B0F80F50204601F090FD30
:1028D0006A462069069900F0E7F9E9B2204601F05E
:1028E00087FD290A204601F065FD38BC5DF814FB20
:1028F0006A462069069900F0D7F9F6E72DE9F04F0E
:10290000804689B016460C468948FEF7C8FD054644
:1029100087483338FEF7C3FD281A1FFA80F9844828
:1029200084A220380090D8F8080008214068036885
:102930004046FFF7BBFFD8F8080040680068FEF784
:10294000AEFD05467A482038FEF7A9FD284482B23C
:10295000D8F808000023406841684046FEF7F4FFBD
:1029600076A208214046FFF7A1FF16B30CB300255D
:102970001DE000BF05EB450A04EB8A0BDBF8040001
:10298000FEF78DFD074654F82A00FEF788FD39183A
:1029900049450BD9DBF80400FEF781FD074654F8E2
:1029A0002A00FEF77CFD38441FFA80F96D1CB54201
:1029B000E0D35F483338FEF772FD4844801C1FFAAD
:1029C00080F95B4800904B465FA208214046FFF724
:1029D0006DFF09F1030087B2079000233A465CA11E
:1029E0004046FEF7B1FF002C52D000254EE000BF5C
:1029F00005EB450A04EB8A0B54F82A00DBF8043097
:102A00006BB350B34A4957A23339CDE900100821BE
:102A10004046FFF74BFF09F102000090DBF804008D
:102A2000FEF73DFD074654F82A00FEF738FD07443F
:102A30003F483338FEF733FD39180098401A801E9E
:102A4000C1B24046FEF7BEFE3A224949D8F810000E
:102A500000F011F90098401C0AE0009301E040B139
:102A600000904B4638A208214046FFF71FFF079809
:102A700087B2DBF8081029B100233A464046FEF73A
:102A800063FF02E04046FEF701FE6D1CB542AFD386
:102A9000D8F8080040688068002845D081460020AA
:102AA0000446064603AD02903246761C02AB012175
:102AB00048460095FEF724FD029850B10068FEF7E5
:102AC000EEFCA042F0D902980068FEF7E8FC84B260
:102AD000EAE7012E28D027A208214046FFF7E6FEAC
:102AE00000273A467F1C02AB012148460095FEF7BD
:102AF00007FD0298002817D0A11C8EB20068009034
:102B0000334611A208214046FFF7D0FE0298F61C7A
:102B1000B2B2416821B100234046FEF715FFE0E75D
:102B20004046FEF7B3FDDCE709B0BDE8F08F0000DA
:102B3000DC47000025732573000000004F707469A6
:102B40006F6E733A0D0A00002020252D2A733A007B
:102B500053686F7720636F6D6D616E642068656C7C
:102B6000702E0000202025732573257300000000BF
:102B700044140000537562636F6D6D616E64733A47
:102B80000D0A000000F180400068002800D00120FC
:102B9000704708B500F18040002101600068009096
:102BA00008BD00002DE9F04104460CB9BDE8F081F4
:102BB00000BF4FF47A7505B904E0054FAE01304609
:102BC000B84700BF601E041EF3D100BFEEE700004F
:102BD000514500002DE9FF411C460378164D174E64
:102BE00045F823200C3545F82340F0CE8DE8F00061
:102BF0000C788DF800404C788DF801408C788DF879
:102C00000240CC788DF803400C798DF805404C7962
:102C10008DF806408C6802940C7B8DF80C40497B43
:102C20008DF80D1002B1064A6946001D00F002FE43
:102C300004B0BDE8F08100001C020020B84500008F
:102C4000113E00002DE9FF4704460D4616461F467B
:102C5000DDF830804FF00009009501960297CDF81D
:102C60000C8000226946201D00F0A0FE81464846E7
:102C700004B0BDE8F0870FB408B50399002904D06B
:102C800004AA00926A4600F00FF801B05DF814FB48
:102C900010B582680446002A05D0D4E904032168EF
:102CA00098470020A06010BD2DE9FC4791460C001C
:102CB000804676D014F8011B39B125290ED0404644
:102CC000FEF70BFB20780028F4D198F80C000028C0
:102CD00067D04046BDE8FC47FFF7DABF002001227D
:102CE00021782B291BD02D2902D0302908D102E0D0
:102CF00040F0010001E040F00200641C002AEFD126
:102D000000252A290ED02178A1F130020A2A11D2F9
:102D100005EB850201EB4205641C303DF1E740F014
:102D20000400EAE7D9F800100B1DC9F80030096863
:102D3000641C0D44217800232E290BD114F8011FA7
:102D4000A1F130020A2A05D203EB830201EB420310
:102D5000303BF3E76C290DD068290BD0692921D0CD
:102D60000BDC252918D0582931D063290ED06429CD
:102D700015D117E014F8011FECE7702969D0732909
:102D800032D075291BD0782909D120E0D9F800006C
:102D9000011DC9F8001001784046FEF79EFA641C38
:102DA00090E76CE0D9F800100A1DC9F80020096806
:102DB000CDE900500A224046FEF7F2FFEFE7D9F8CE
:102DC00000100A1DC9F8002009680A2206E0D9F897
:102DD00000100A1DC9F8002009681022CDE9005032
:102DE000404601F08DFADAE7D9F8001000270A1DF5
:102DF000C9F800200E68C00705D112E04046761CD5
:102E00007F1CFEF76AFA31780029F7D104E020210F
:102E100040466D1EFEF761FABD42C0D9002DF6D1C5
:102E2000BDE74EB13046FDF72DFB074604E02021FB
:102E300040466D1EFEF751FABD4206D9002DF6D16F
:102E400003E04046761CFEF748FA31780029F8D1B5
:102E5000A5E7D9F80000011DC9F800100568302168
:102E60004046FEF73AFA78214046FEF736FA082047
:102E70000021CDE90001034610222946B0E7BDE854
:102E8000FC872DE9F0411F46164604000D4616D07A
:102E90002068B8B1C6B160680268501E284215D1DA
:102EA00072432046FEF799F880B120683B463246CF
:102EB000D0F810C029462046BDE8F04160470E20FA
:102EC000BDE8F0810820FBE70920F9E71020F7E7CB
:102ED0002DE9F8431D46089F1646884604000DD08C
:102EE00066B1206860B135B160684068B5FBF0F14B
:102EF00000FB115030B10920BDE8F8830E20FBE73C
:102F00000820F9E74046FEF762F890B13046FEF738
:102F10005EF870B12A4641462046FEF75EF840B1A1
:102F2000009720682B463246C76841462046B8477E
:102F3000E2E71020E0E770B541EA4201DDE904561E
:102F40004FF0A04441EA830141EA052104EB8000EF
:102F500041EA0641C0F8001770BD70B541EA420170
:102F6000DDE904564FF0A04441EA830141EA05211E
:102F700004EB800041EA0641C0F8001770BD1CB5A3
:102F8000002100910B46012201911146FFF7E5FF58
:102F90001CBD4FF0A04202EB8000D0F8002722F4C5
:102FA0004032C0F80027D0F8002742EA0141C0F8BB
:102FB000001770474FF0A04201218140C2F80C1564
:102FC00070474FF0A04201218140C2F808157047B8
:102FD00001224FF0A043824011B1C3F80825704789
:102FE000C3F80C257047000018B5084B6C46014427
:102FF0001B68009306E000BF54F82030D3F810356A
:10300000401C08C28142F7D818BD0000C845000026
:10301000034908B50844002101600068009008BD1C
:103020000060004002494058012800D0002070474D
:10303000006000404058002800D00120704708B5CB
:10304000002242504058009008BD1CB50192012258
:10305000009201AAFFF7A2F81CBD00002DE9F84F6D
:10306000834600F091F90546DBF80800D0F83C01F2
:10307000C0F3400030B15846BDE8F84F0022114679
:10308000FFF73CBC1C4803681CA208215846FFF708
:103090000DFC1948001D03681DA208215846FFF7C2
:1030A00005FCDFF85480DFF8509008F10808002490
:1030B00009F1100908F1040A1AE00020FDF799FF50
:1030C000C8F80040D9F80070DAF800600020FDF779
:1030D00092FF234613A2082158460096FFF7E6FB0D
:1030E000234617A2082158460097FFF7DFFB641C10
:1030F000AC42E2D3BDE8F88F90ED00E04D50555F53
:10310000545950453A093078253038580D0A000096
:103110004D50555F4354524C3A0930782530385859
:103120000D0A00000D0A4D50555F524241525B2579
:10313000755D3A093078253038580D0A00000000D6
:103140004D50555F524153525B25755D3A093078B9
:10315000253038580D0A00002DE9FC4107468068EB
:10316000D0F83C01C0F3400038B102B03846BDE8A9
:10317000F04100221146FFF7C1BB00F005F90646F9
:10318000009030480068C00701D02FA300E030A3B2
:1031900032A208213846FFF789FB00244EE00020C8
:1031A000FDF727FF2748001D046026480C300568FE
:1031B000001FD0F800800020FDF71DFFE807234620
:1031C00033D032A208213846FFF770FBC5F3440123
:1031D0000120491C884008EB0001491ECDE9001080
:1031E000434630A208213846FFF760FB284600F02E
:1031F000D3F8034637A208213846FFF757FB284685
:1032000000F048F9034637A208213846FFF74EFB85
:10321000284600F0FBF8034636A208213846FFF79F
:1032200045FBE80003D538A302E038A201E03DA346
:103230003DA208213846FFF739FB641CB442AED3E7
:10324000BDE8FC8194ED00E0456E61626C65640050
:1032500044697361626C6564000000004D50552044
:1032600053746174653A2025732C20257520756E82
:10327000696669656420726567696F6E732061763F
:103280006961626C652E0D0A0D0A0000526567695E
:103290006F6E2025753A20456E61626C65640D0A7B
:1032A00000000000092D204C6F636174696F6E3A55
:1032B000093078253038582D307825303858202876
:1032C00073697A653A202575206279746573290DD2
:1032D0000A000000092D204163636573733A0925D4
:1032E000730D0A00092D20547970653A0909257378
:1032F0000D0A0000092D2043616368696E673A0971
:1033000025730D0A00000000584E000052656769E1
:103310006F6E2025753A2044697361626C65640D97
:103320000A0000002D2D0000092D20466C616773F6
:103330003A0925730D0A0D0A0000000008B501299D
:1033400005D08168D1F83C11C1F3400129B10022B8
:10335000BDE808401146FFF7D1BA516800911368E3
:1033600002A20221FFF7A2FA08BD000025733A204D
:10337000756E6B6E6F776E20706172616D657465CE
:10338000723A2025730D0A0002480068C0F3072036
:103390007047000090ED00E0C0F30260082813D2EF
:1033A000DFE800F00406080A0C0E101007A07047B2
:1033B00008A0704709A070470AA070470BA070478B
:1033C0000CA070470DA070470EA070472D2D2F2D1B
:1033D0002D00000052572F2D2D00000052572F5264
:1033E0004F00000052572F52570000003F3F2F3F21
:1033F0003F000000524F2F2D2D000000524F2F5242
:103400004F000000556E6B6E6F776E0010B5C0F305
:10341000C241C0F34043C0F3004200F47C100404F6
:10342000240C17D10014152814D2DFE800F00B0B80
:103430000D0F0B0B0B0B0B1313110B13130B0B13A8
:1034400013130B000A4810BD0AA010BD0BA010BD3D
:103450000CA010BD042908D38807000F40EA4300E0
:103460000B49104351F8200010BD0148383010BD01
:10347000CC33000057542F575400000057422F57A9
:1034800042000000574257412F5742574100000069
:103490000400002000F47C100104090C15D1011473
:1034A000152912D2DFE801F00B0D18180B0D1616B6
:1034B00018111118161111160F1111110F0008A073
:1034C00070470EA0704712A07047C10C042905D3A5
:1034D000400301D510A0704714A0704715A0704795
:1034E0005374726F6E676C792D6F72646572656468
:1034F0002C20536861726561626C65004465766971
:1035000063652C20536861726561626C6500000020
:1035100044657669636500004E6F726D616C2C20A6
:10352000536861726561626C650000004E6F726D78
:10353000616C00005265736572766564206F72205D
:10354000496D706C656D656E746174696F6E204451
:103550006566696E6564000002494058002800D025
:103560000120704700D00140034908B508440022FB
:1035700002600068009008BD00D0014000F1804169
:103580000868002210B101200A6070471046704799
:103590004058002800D00120704708B50022425052
:1035A0004058009008BD006880687047006800219E
:1035B000816070472DE9F04F8146806889B0D0F86E
:1035C0003C01C0F3400038B109B04846BDE8F04FB7
:1035D00000221146FFF792B9012907D909B04846E0
:1035E000BDE8F04F1DA20221FFF760B92049DFF8C6
:1035F00084B0A1EB0B001821B0FBF1F8002526E008
:1036000005EB45010BEBC1042068D4E9026A876829
:10361000204600F03FF86421794364224243B1FB25
:10362000F6F1B2FBF6F26369247CACB112A400BFE0
:10363000CDE90664CDF800A00597CDE90120CDE9DC
:103640000361104A08214846FFF730F96D1C4545D3
:10365000D6D309B0BDE8F08F0BA4E9E7426164203E
:10366000617267756D656E7420636F756E740000AE
:10367000D84E0000C04E00004E6F206F7665726617
:103680006C6F7700A04D00004F766572666C6F77A7
:103690000000000010B504460020FDF7AAFC2046FB
:1036A00000F06AFA04460020FDF7A5FC204610BD94
:1036B00008B5002242504058009008BD024A1060F0
:1036C000101D0160704700002C76004002494058F0
:1036D000002800D00120704700700040034908B561
:1036E0000844002202600068009008BD007000409D
:1036F0004058002800D00120704708B500224250F1
:103700004058009008BD000070B54FF480763046F8
:10371000FFF738FA114CB50560B13046FFF739FABA
:103720000120C5F80803607920B901206071216883
:10373000002088474FF482763046FFF723FA0028AE
:103740000AD03046FFF725FA0220C5F808032168A1
:10375000BDE870400120084770BD0000480000200F
:10376000002802D00149800108477047F145000058
:103770000121B1EB507F01D101207047002070473B
:1037800070B54FF08040D0F80443114D600706D566
:103790004FF48470FFF7F2FE08B168688047A00616
:1037A00007D54FF48A70FFF7E9FE10B1A968002031
:1037B000884760060AD54FF48C70FFF7DFFE0028BB
:1037C00004D0A968BDE870400120084770BD000022
:1037D0005000002070B50D4600F054F904000FD0E1
:1037E0000020FDF706FC207920B10020FDF703FC46
:1037F000112070BD0120256020710020FDF7FBFB2A
:10380000002070BD01490248FEF7BCBB0803002040
:103810000030004002494FF04020FEF7B3BB0000EB
:103820002C03002001490248FEF7ACBB50030020E6
:10383000003002402DE9FC470C46154601798046D0
:10384000584A01EBC10002EB80069946307F10B167
:103850000820BDE8FC87544AD8F80000074652F813
:103860002110FFF7B7FF08B11120F2E7C6E90059B0
:10387000207B0128207802D8FFF79CFB01E0FFF7AE
:10388000A0FB4FF0000ACDF800A0CDF804A02078EE
:10389000534652460121FFF760FB60784FF0FF3539
:1038A000FF2806D08146FFF785FB4846FFF767FBF8
:1038B00000E0A946A078FF2809D000220546012390
:1038C000CDF800A01146CDF804A0FFF746FBA07884
:1038D00086F82000E078F077E078FF280BD0217997
:1038E00011B1FFF767FB01E0FFF76BFBE078FFF733
:1038F00046FB2079B0772178C7F80815C7F80C95F2
:10390000C7F81055A068C7F82405217B607B00B17B
:103910000120012904D0022905D0032908D105E09E
:1039200040F0020004E040F0040001E040F0060036
:10393000C7F85405A079C7F8C005306810B1402019
:10394000C7F804030720C7F800053068012118B341
:10395000D8F80000627940F3073000284FEA42129D
:1039600006DA00F00F0000F1E02080F8142D03E0EB
:1039700000F1E02080F80024D8F8000040F3073080
:1039800000F01F0301FA03F24009800000F1E0207B
:10399000C0F88022C0F80021504686F81DA031777B
:1039A00057E7000008030020E44500002DE9F0413E
:1039B00005460F460079154900EBC00001EB800475
:1039C0001646607F10B11120BDE8F081206820B15B
:1039D00016F0140F01D10120607797E80F0004F171
:1039E0000C0888E80F00E07FFF2806D0A17F11B106
:1039F000FFF7E7FA01E0FFF7DDFA33463A462146E2
:103A00002868BDE8F04100F01FBA0000080300205C
:103A100038B1C16929B1016A19B1406A08B1002001
:103A200070474FF0FF3070478A7D022A04D902891F
:103A3000CB881A44D21C02814289C988511AC91EF6
:103A40004181704708B50021009101460823024AD0
:103A50000248FFF73DFA08BD084600002C0100208F
:103A600008B50020009004480823044A016804486F
:103A7000FFF72EFA08BD0000F0000020004600000D
:103A80002C0100200F49884201D10F487047B0F146
:103A9000402F05D00D49884205D10B4810307047A2
:103AA0000948083070470A49884202D10648183050
:103AB00070470849884202D10348203070470020EF
:103AC00070470000003000405C00002000300240E1
:103AD0000030014000200040F0B5254D254E85B056
:103AE00004460027686828B9214930680831FEF784
:103AF000C7FB686001460078072817D2DFE800F0AE
:103B0000160408080E0E12002046FEF7E5F802E043
:103B1000204600F095FC040028D008E02046FDF780
:103B200069FEF8E72046FDF7C7FFF4E70F241421EC
:103B30006846FCF79CFCA4F5E8501D3800D1002431
:103B4000019469466868FDF7B5FE6846FDF7ECFE2E
:103B500007496F60002408313068FEF786FB04488F
:103B600001210C30FEF797FB0028BBD105B0F0BD5A
:103B7000C8000020F845000001680A6849689142C1
:103B800001D3881A70478068801A0844401C704727
:103B90002DE9F04707461E481C46154600780E469C
:103BA00070B185B17CB1DFF86C804FF00009A0885E
:103BB00002282BD200EB800118F8210010BB19E07D
:103BC0000220BDE8F0870520FBE720681FB181884F
:103BD0003A8891420ED11EB101883288914209D1B2
:103BE00080682860206868600A4828300089288139
:103BF0000020E6E7A088214600F05EF80028E4D126
:103C0000C4F80090A088401CA080D0E70A20D8E724
:103C1000E800002098050020F8B505464068244FCC
:103C20000C46002648B32349CA68824225D8096950
:103C3000814222D3FEF7EFF9F8B128893989884209
:103C40001BD1D5E900018A68904216D10020A7F166
:103C5000280200BF00EB800302EB83035B688B420A
:103C600005D203F580538B4201D9208011E0401C1E
:103C700080B20228EED30020F8BD268000960AE02C
:103C8000009829688068884205D100986860388962
:103C900028810120F8BD2088694600F00DF8002831
:103CA000EED12088401C80B220800228E6D3E2E7D3
:103CB000C00500202C01002070B50E4600EB8001ED
:103CC000134800EB81004468306804F5805518B152
:103CD000418800EB810411E0083410E029462046B9
:103CE000FDF7DEFF20B1012805D0022807D10DE045
:103CF0000120346070BD608804EB80040C342946D8
:103D00002046FDF7E0FF0028E8D170BD002070BD1F
:103D10009805002038B50C46002100910146042387
:103D2000074A0848FFF7D4F808B10E2038BD064A04
:103D300004EB840102EB810101200874002038BDEE
:103D4000FC4500002C0100209805002070B50126DC
:103D500070044FF0E0210025C1F88001084C4010AC
:103D6000C4F84803C4F8080366602F20FFF7F8FC86
:103D7000A660044C2F20A560FFF7F2FCA57070BD73
:103D800000100140B000002010B5002400200849B8
:103D90004870012088700748C861074808620748D2
:103DA00048620846FDF759F90446204610BD000058
:103DB000A4010020A5110000F9110000A52B0000AE
:103DC0001FB50D4B0FCB8DE80F0018208DF80300A9
:103DD00019208DF802001A208DF801001B208DF8A3
:103DE00000000023054A69460548FEF7F3FE044635
:103DF000204604B010BD000058450000053E0000FC
:103E0000404500000122014B1A707047000000205D
:103E100000B585B00A4601788DF80010416801911F
:103E2000017A8DF80810C1680391007C8DF81000AC
:103E3000044850F822100C3850F822206846904769
:103E400005B000BD280200202DE9F84304461068A3
:103E50001E4615460F464FF0000810B1FFF788FCCC
:103E6000F8B1A86810B1FFF783FCD0B1D5E9000123
:103E7000C4F84405C4F84815D5E90201C4F834056E
:103E8000C4F838154FF48C754046C4F81881D4F83E
:103E900018110091F2074FF0010107D0C4F8501536
:103EA00006E087F81D801020BDE8F883C4F85005AF
:103EB000B20702D5C4F8401501E0C4F84005300748
:103EC00000D42161386848B146F38000401C4FF0AF
:103ED000400014D0C4F804030020E5E7294620463A
:103EE000FFF706FC0028F9D0F87FFF28F4D0B97F4F
:103EF00011B1FFF75FF8EFE7FFF763F8ECE7C4F8FD
:103F00000803E9E730B406490024A1F10C0351F895
:103F1000202033F8101023F8104030BC1047000068
:103F2000800300202DE9FF5FDFF8EC80DFF8EC90E4
:103F30008346002408F570660020FDF75AF804EB6C
:103F4000440056F82010002933D006EB80077D6826
:103F500005B933A50020FDF74EF8002D56D02046B8
:103F600000F0BCF8824623462FA208215846FEF7EF
:103F70009DFC2B462FA208215846FEF797FCBAF16C
:103F800000001AD06421414304EB84038D0A08EB3E
:103F9000032303F2FF414FF48062CDE902A2CDE991
:103FA000001528A20821584603F58073FEF77EFC11
:103FB00011E00020FDF71FF828E004EB840108EB76
:103FC000012303F2FF4000902DA20821584603F57B
:103FD0008073FEF76BFC99F801104846A14201D1AD
:103FE0002DA308E04FF000414068E140014201D0BC
:103FF0002BA300E02DA330A208215846FEF756FC63
:10400000BB6831A208215846FEF750FC641CE4B29C
:10401000032C91D3BDE8FF9F00060020F80000208C
:104020003C4E554C4C3E00005461736B2025753A54
:104030000D0A0000094E616D653A09272573270DA9
:104040000A00000009537461636B3A093078253027
:1040500038582D30782530385820757365642069BC
:104060006E202575252520282575206F7574206FF5
:1040700066202575206279746573290D0A00000099
:1040800009537461636B3A093078253038582D3004
:1040900078253038580D0A0052756E6E696E6700CB
:1040A00052756E6E61626C6500000000537573702E
:1040B000656E6465640000000953746174653A09B3
:1040C00025730D0A0000000009466C6167733A0908
:1040D0003078253038580D0A0D0A000000EB8001B9
:1040E000094810B500EB012101F5A0624FF4806092
:1040F000064B01F5807103E010C99C4202D1001FFC
:104100009142F9D310BD0000000600200ED0ADDEB4
:104110002DE9F04115460E460446FDF7C1FA78B97F
:10412000A068FA21077A90F80A802046FDF74AFB3A
:10413000FA212046FDF77EFA2046FDF7B1FA10B1CC
:104140000620BDE8F081A068007A3070A068807A0F
:1041500028703078C01BC1B22046FDF78BFA297851
:10416000A1EB0800C1B22046FDF738FB0020E8E7CC
:104170002DE9F84F1D4C00256846D4E901A6FDF74E
:1041800079FB002738B30023009A61681CE0D1F85E
:1041900000C00846944503D9ACEB02020A6015E062
:1041A000A2EB0C0263440760D0F80CC0C1698146E1
:1041B000BCF1000F08D006EB030828F07F48C0E9E7
:1041C000018CC9F81C5005460029E0D128466160E1
:1041D000FDF728FF03E02846FDF724FF10B1504605
:1041E000FDF7D2F9E770BDE8F88F0000B0000020BD
:1041F0000D4B10B5596831B102680C68A24204D861
:10420000A21A0A60C161586010BD0B4603E00B465C
:10421000C969121B21B10C689442F8D3A41A0C602E
:104220000260C161D86110BDB00000202DE9F041ED
:10423000144E77683D462C4603E0844204D0254660
:10424000E469002CF9D11BE0D4B1A5420BD1F86987
:10425000706040B90C49012088600021B160F070A5
:104260002F20FFF77DFA2168E069E86110B102684C
:10427000114401607068874202D00120BDE8F081DE
:104280000020FBE7B0000020001001402DE9F041C4
:10429000194D6C68002C2CD0184800270068A968BC
:1042A000B846401A20F07F462068B0420CD821461C
:1042B000361A0744E469087C20B181F810808869C7
:1042C00049698847002CEFD129786878814206D166
:1042D000401CC0B26870022801D185F801800648F0
:1042E00069780C3040F82170BDE8F0411420FCF7EB
:1042F00083BABDE8F0810000B00000200415014041
:104300002DE9F05F8346DDE90A4A994690460D465D
:104310000846012703E000BFB0FBF8F07F1C4045D2
:10432000FAD2B94500D94F465FEACA7012D18CB1B2
:104330005FEA8A7002D5B9F1000F01D0202607E0AC
:10434000302605E031465846641EFCF7C6FF0CB126
:10435000A742F7D35FF00106B9F1010F02D9A9F125
:10436000010903E0B5FBF6F0404502D306FB08F671
:10437000F2E7DFF83C9000BFB5FBF6F000FB165506
:1043800019F800105846FCF7A8FFB6FBF8F6002E07
:10439000F2D15FEACA7009D0002C07D0A74205D23B
:1043A00020215846641EFCF798FFF5E7BDE8F09F12
:1043B000E74700001CB5002913D08268127C8A42AE
:1043C0000FD008A3D3E90023CDE9002301F12F0288
:1043D0008DF803208268117400696A4603A1FEF714
:1043E0004AFC1CBD1B5B34006D00000025730000FF
:1043F0001CB5826899B1D27B8A420FD00CA2D2E957
:104400000032CDE9003201F12F028DF805208268DB
:10441000D17300696A4608A1FEF72DFC1CBDD1735B
:10442000006902B0054ABDE8104003A1FEF723BCB5
:104430001B5B313B33006D0025730000B04700006B
:104440002DE9F8430D46898A374A01EB810102EBD9
:10445000810630B129463046FFF7E6FA0120BDE873
:10446000F88331897068002400EB81072E48A97D0C
:10447000A8384FF00E0807294ED2DFE801F00D2DC5
:10448000162404404A004460A9690160264827496F
:10449000A838FFF7C1FB30B10220A87504233946C4
:1044A0002A1D009423E00A20D9E728692A4608B18A
:1044B000032000E001209075042305F10C0207F1B0
:1044C0000801009413E00120A8750094E88807F122
:1044D0000C0183002A690AE028782A4603280CD0B8
:1044E00006209075042305F10802391D0094104838
:1044F000FEF7EEFCA8B144460FE00520F1E70621E7
:10450000A9750A4940680988FFF704FC040004D132
:1045100007E041F61D5400E00F2429463046FFF71E
:1045200083FA20469BE7000098050020C800002081
:104530002C0100200000000000000000000000002E
:1045400000000000003000400000000001000000FA
:104550000338FDD870470000FFFFFFFF06FF000093
:104560000000004000000000111213140D0E0F1087
:1045700000000000784500003049000014490000A8
:10458000000000005D30000028490000F0480000F5
:104590000000000059310000000000000000000091
:1045A00000000000000000005449000038490000ED
:1045B000704500003D330000FFFFFFFF0006FF00D5
:1045C000000000400000000000000050000000005B
:1045D00000000000010000000100000000000000D9
:1045E00000000000053800001538000025380000E4
:1045F0000338FDD870470000E00400200000FFFFF2
:10460000DEC0ADDEFF011EF1DEC0ADDEFE011EF13B
:104610000000000018460000004A0000DC490000CD
:1046200000000000A52200000000000000000000C3
:104630000000000000000000084A0000104A0000CE
:1046400010460000A52200000000000050460000B7
:10465000F04A0000D84A000000000000F5250000E4
:10466000F44A0000C04A0000000000001F260000BD
:10467000000000000000000000000000000000003A
:104680000000000088460000F04A0000F84A0000E0
:1046900000000000E1260000F44A0000544B000036
:1046A000000000000B2700000000000000000000D8
:1046B000000000000000000000000000C0460000F4
:1046C000C04B0000944B000000000000D12400000B
:1046D000C84B0000684B00000000000001250000EE
:1046E00000000000000000000000000000000000CA
:1046F00000000000F8460000144C0000F44B0000DD
:10470000484600008D2500000C4C0000D04B0000F6
:1047100080460000492600001C4C0000E44B0000CD
:10472000B846000065240000000000000000000002
:1047300000000000000000000000000040470000F2
:10474000684C0000244C00000000000071280000AC
:104750000000000000000000000000000000000059
:10476000804C0000704C000000000000DD230000C1
:10477000AC4C0000884C0000F046000021240000F2
:10478000C44C0000B04C00000000000035270000C1
:104790006C4D0000CC4C000038470000AD270000F5
:1047A0001B37001B38001B45002C20001B5B4A00F8
:1047B0001B5B6D00082008001B5B4B00202D2000B8
:1047C0001B5B48001B5B366E001B5B324A0000001F
:1047D0000338FDD870471B5B3F336C002D682C20DD
:1047E0002D2D68656C7000303132333435363738F2
:1047F00039414243444546000000000000480000A3
:10480000004A0000744D000000000000B5350000B3
:104810000000000000000000000000000000000098
:10482000984D0000104A0000F8470000B535000020
:104830000000000038480000284900001C4E00001D
:1048400000000000253F0000000000000000000004
:104850000000000000000000444E0000284E000050
:104860003048000000000000004040404040404010
:104870004040414141414140404040404040404033
:1048800040404040404040404005020202020202D7
:104890000202020202020202022020202020202026
:1048A000202020020202020202029090909090903A
:1048B00010101010101010101010101010101010F8
:1048C000101010100202020202028888888888886C
:1048D0000808080808080808080808080808080858
:1048E00008080808020202024000000069480000AF
:1048F0005072696E7420696E666F726D6174696F53
:104900006E2061626F7574204D5055207374617410
:10491000652E000044756D70204D505520726567FE
:104920006973746572732E00696E666F0000000013
:1049300064756D7000000000436F6D6D616E64738F
:1049400020666F72204D5055206D616E6167656DF8
:10495000656E74006D7075002D2D2F2D2D000000DB
:10496000574257412F2D2D0057422F2D2D0000006B
:1049700057542F2D2D0000002D2D2F574257410049
:10498000574257412F5742574100000057422F5777
:104990004257410057542F57425741002D2D2F5752
:1049A00042000000574257412F57420057422F57AD
:1049B0004200000057542F57420000002D2D2F5762
:1049C00054000000574257412F57540057422F5769
:1049D0005400000057542F57540000005072696E65
:1049E0007420737461747573206F662062616C6CDF
:1049F0006F6320696E7374616E6365732E000000CF
:104A0000737461747573000062616C6C6F63000095
:104A1000436F6D6D616E647320666F722042414C0E
:104A20004C4F43206D616E6167656D656E7400006B
:104A300025730D0A092D20456C656D656E74207314
:104A4000697A653A092564202B20256420627974EF
:104A50006573206F6620646562756720696E666F96
:104A6000726D6174696F6E0D0A092D20557361674F
:104A7000653A092575252520282575206F75742030
:104A80006F6620257520656C656D656E7473290DE4
:104A90000A092D204D6178696D756D3A09257525D6
:104AA0002520282575206F7574206F6620257520B8
:104AB000656C656D656E7473290D0A0D0A00000042
:104AC000456E61626C6520636F6C6F726564207304
:104AD000796E7461782E000044697361626C6520A0
:104AE000636F6C6F7265642073796E7461782E00E9
:104AF0006F6666006F6E000044697361626C6520CA
:104B0000434C49206563686F2E204172726F777342
:104B100020616E6420627574746F6E733A20426116
:104B2000636B73706163652C2044656C6574652CE0
:104B300020456E642C20486F6D652C20496E73658E
:104B4000727420617265206E6F742068616E646C8F
:104B500065642E00456E61626C6520434C4920659A
:104B600063686F2E0000000047657420434C4920A5
:104B70007374617469737469637320666F722074EF
:104B80006865204C6F67676572206D6F64756C6532
:104B90002E000000526573657420434C49207374E5
:104BA000617469737469637320666F7220746865D9
:104BB000204C6F67676572206D6F64756C652E00A1
:104BC000726573657400000073686F770000000001
:104BD000546F67676C6520434C49206563686F2E8E
:104BE00000000000434C4920737461746973746958
:104BF00063732E00546F67676C6520636F6C6F7210
:104C000065642073796E7461782E00006563686F47
:104C100000000000636F6C6F727300007374617446
:104C200073000000417373756D6520383020636830
:104C30006172732073637265656E2077696474684E
:104C400020616E642073656E6420746869732073DC
:104C5000657474696E6720746F207468652074656C
:104C6000726D696E616C2E0064656661756C7400AE
:104C7000436C6561722073637265656E2E0000007F
:104C8000636C65617200000055736566756C2C205D
:104C90006E6F7420556E69782D6C696B6520434C7E
:104CA0004920636F6D6D616E64732E00636C6900E3
:104CB000436F6D6D616E6420686973746F72792ED5
:104CC00000000000686973746F727900436F6E733F
:104CD0006F6C652067657473207465726D696E61B1
:104CE0006C2073637265656E2073697A65206F72DC
:104CF00020617373756D657320383020696E206391
:104D00006173652074686520726561646F757420D5
:104D10006661696C732E204974206D75737420620E
:104D20006520657865637574656420616674657275
:104D30002065616368207465726D696E616C2077AF
:104D400069647468206368616E676520746F2065AC
:104D50006E7375726520636F72726563742074651B
:104D6000787420646973706C61792E007265736960
:104D70007A6500005072696E742073746174757383
:104D8000206F6620717565756520696E7374616E3C
:104D90006365732E00000000717565756500000085
:104DA00025730D0A092D20456C656D656E742073A1
:104DB000697A653A0925640D0A092D2055736167E2
:104DC000653A092575252520282575206F757420DD
:104DD0006F6620257520656C656D656E7473290D91
:104DE0000A092D204D6178696D756D3A0925752583
:104DF0002520282575206F7574206F662025752065
:104E0000656C656D656E7473290D0A092D204D6FF3
:104E100064653A090925730D0A0D0A007461736B04
:104E20007320696E666F0000636F6D6D616E6473F1
:104E300020666F72207461736B206D616E616765AF
:104E4000720000007461736B5F6D616E6167657203
:104E5000000000006D5F72616E645F706F6F6C00C8
:104E6000D84E00000000002040010000D4040000E3
:104E7000144F000040010020E8530000C00F000064
:104E800000000000A84500000000000038460000B7
:104E900000000000604700000000000070470000B4
:104EA0000000000080470000000000009047000064
:104EB00000000000204800000000000058480000EA
:104EC00010020020CC010020400000000100000082
:104ED00000000000544E00005133584933604933FC
:104EE0007049336849337849338049339449338C66
:104EF0004933BC4933C44933D44933CC49339C4941
:104F000033A44933B44903C0AC49043190D003B34E
:044F10008D1A0000F6
:0400000500000201F4
:00000001FF
