:020000040002F8
:1060000000790020F96202000163020003630200CC
:10601000056302000763020009630200000000003C
:106020000000000000000000000000000B63020000
:106030000D630200000000000F6302001163020004
:106040008D6A020013630200816E0200096B020078
:106050001363020013630200C568020013630200A9
:106060001363020013630200136302001363020050
:106070001363020013630200136302001363020040
:1060800013630200E56A0200136302001363020057
:106090005D6B020013630200616B02001363020078
:1060A0001363020013630200136302001363020010
:1060B00013630200136302000000000000000000F0
:1060C00013630200136302001363020013630200F0
:1060D0001363020013630200136302000000000058
:1060E00000000000000000000000000000000000B0
:1060F00000000000000000000000000000000000A0
:10610000000000000000000000000000000000008F
:10611000000000000000000000000000000000007F
:10612000000000000000000000000000000000006F
:10613000000000000000000000000000000000005F
:10614000000000000000000000000000000000004F
:10615000000000000000000000000000000000003F
:10616000000000000000000000000000000000002F
:10617000000000000000000000000000000000001F
:10618000000000000000000000000000000000000F
:1061900000000000000000000000000000000000FF
:1061A00000000000000000000000000000000000EF
:1061B00000000000000000000000000000000000DF
:1061C00000000000000000000000000000000000CF
:1061D00000000000000000000000000000000000BF
:1061E00000000000000000000000000000000000AF
:1061F000000000000000000000000000000000009F
:10620000DFF80CD000F03AFB00480047C1A50200BF
:106210000079002030B4044654E8000F0D4644E8ED
:106220000053002BF8D1156030BC704730B40446E1
:1062300054E8000F40EA010544E80053002BF7D171
:10624000156030BC704730B4044654E8000F00EAD3
:10625000010544E80053002BF7D1156030BC7047AE
:1062600030B4044654E8000F80EA010544E80053C6
:10627000002BF7D1156030BC704730B4044654E8A9
:10628000000F00EB010544E80053002BF7D1156027
:1062900030BC704730B4044654E8000FA0EB010551
:1062A00044E80053002BF7D1156030BC704770B440
:1062B00004464FF0000054E8006F0D68AE4207BF7F
:1062C00044E80023012044E800630E60002B1CBF5B
:1062D0000020F0E770BC704730B4044654E8000F6B
:1062E00088422CBF451A054644E80053002BF5D1DF
:1062F000156030BC704700000648804706480047DC
:10630000FEE7FEE7FEE7FEE7FEE7FEE7FEE7FEE765
:10631000FEE7FEE7656B0200016202002DE9F05F17
:106320000546002092469B46884606468146402404
:106330001BE0284641464746224600F07AF853467D
:106340005A46C01A914110D311461846224600F011
:1063500016F82D1A67EB01084F462246012000214E
:1063600000F00DF817EB00094E41201EA4F10104C6
:10637000DFDC484631462A464346BDE8F09F202AE6
:1063800004DB203A00FA02F1002070479140C2F18C
:10639000200320FA03F319439040704740EA0103B9
:1063A0009B0703D009E008C9121F08C0042AFAD2CB
:1063B00003E011F8013B00F8013B521EF9D270478F
:1063C000D2B201E000F8012B491EFBD27047002237
:1063D000F6E710B513460A4604461946FFF7F0FFE4
:1063E000204610BD0EB5C10F80EAE0700844CA0710
:1063F000002140F233438DE80E000A460B4600F0C0
:1064000037F803B000BD30B50B460146002020220E
:10641000012409E021FA02F59D4205D303FA02F5B1
:10642000491B04FA02F52844151EA2F10102F1DC11
:1064300030BD202A04DB203A21FA02F00021704707
:1064400021FA02F3D040C2F12002914008431946DC
:10645000704710B5141E73F1000408DA401C41F1B6
:10646000000192185B411A4301D120F0010010BDD8
:106470002DE9F04D92469B4611B1B1FA81F202E04E
:10648000B0FA80F220329046FFF779FF04460F46BB
:1064900040EA0A0041EA0B0153465A46084313D02A
:1064A000114653EA010019D0C8F140025046FFF7E7
:1064B000C0FF05460E46504659464246FFF75FFF6D
:1064C000084305D0012004E020463946BDE8F08DA0
:1064D0000020054346EAE0762C4337430A986305DB
:1064E000E40AA0EB08000022FD0A44EA47540A30FF
:1064F00002D500200146E9E7010510196941DDE9EF
:10650000084500196941BDE8F04DA2E72DE9FE4FAD
:10651000804681EA0300C00F0C46009021F0004144
:1065200023F00045B8EB0200A94105D240462146C0
:1065300090461C460B46024623F00040104347D0CD
:10654000270DC7F30A00C3F30A510290401A0190C5
:1065500040286BDAC3F3130040F4801B0098924686
:1065600020B10023D2EB030A63EB0B0B01985946D1
:10657000C0F140025046FFF702FF06460D46504666
:106580005946019A00F08CF910EB08006141002493
:1065900087EA115284EAE7731A4340D0009A62B343
:1065A000019A012A4FEA075215DC001B61EB020138
:1065B0004FF0004202EA0752CDE90042001C41F5CB
:1065C000801132462B46FFF753FF03B0BDE8F08F32
:1065D00040462146F9E7001B61EB0201001C41F532
:1065E000801300185B412018A2F5001747EB030148
:1065F00040EAD570B6196D4111E06D084FEA3606D4
:1066000045EAC0754FEA0752001B61EB0201001C0E
:1066100041F5801149084FEA3000001951413246D6
:106620002B4603B0BDE8F04FFFF713BF00980122DF
:1066300040000023D0EB020263EBE0730098214698
:106640004FEAE074B8EB000061EB0401E9E783F086
:1066500000435BE781F0004158E72DE9FE4F81EAF6
:10666000030404F0004421F0004100944FF0000BBB
:1066700023F0004350EA01045ED052EA03045BD0E9
:10668000C3F30A54C1F30A552C44A4F2F334019421
:10669000A0FB0254C1F3130141F48011C3F31303AF
:1066A00043F4801301FB024400FB034E840A970A63
:1066B00044EA815447EA8357A4FB076802958D0A90
:1066C00005FB07854FEA932C04FB0C542705029D1C
:1066D0004FEA065847EA1637B5EB08056EEB070C8C
:1066E000870E920E47EA811742EA8312A7FB020146
:1066F000B6EB0B0164EB00042B0D43EA0C335E1880
:1067000044EB1C50DA465146E7FB0201C5F3130483
:106710004FEA0B3343EA14534FEA0432019C43EA35
:106720000603A4F10C040294009CCDE900B4FFF729
:106730009FFE03B0BDE8F08F00200146F9E72DE988
:10674000F04D81EA030404F0004B21F000451446AB
:106750004FF0000A23F0004150EA050220D054EA2D
:1067600001021DD0C5F30A570246C5F31303C1F356
:106770001300C1F30A5640F4801543F48013A7EBCD
:106780000608101BD64608F2FD3873EB050002D34D
:1067900008F1010801E092185B41B8F1000F03DA3B
:1067A00000200146BDE8F08D00204FF48011064620
:1067B00084460EE0171B73EB050705D3121B63EB32
:1067C000050306434CEA010C49084FEA30009218D1
:1067D0005B4150EA0107EDD152EA030012D082EA90
:1067E000040083EA0501084305D0101BAB4106D223
:1067F0000122002306E000224FF0004302E06FF088
:10680000010253101AEB06004CEB085110EB0A0082
:1068100041EB0B01BDE8F04DFFF71BBEC1F30A527F
:10682000C1F3130140F2FF3341F480119A4202DABE
:1068300000200146704740F233439A42A2F23342AD
:1068400002DC5242FFF7F5BDFFF799BD30B5041EDB
:1068500071F1000404DB4FF00044404264EB01019D
:10686000141E73F1000405DB1C464FF00043524236
:1068700063EB0403994208BF904230BD064C074DBC
:1068800006E0E06840F0010394E807009847103400
:10689000AC42F6D3FFF7B8FCD0D50200F0D5020029
:1068A000202A06DBCB17203A41FA02F043EAE073D4
:1068B00006E041FA02F3D040C2F1200291400843C1
:1068C000194670472DE9F04700268AB0DFF850914D
:1068D000B0464FF48075012437460696284604F0EA
:1068E000FBFB38B1D9F80403204203D0284604F05A
:1068F000E9FB26432D1D64007F1CADB2082FEDD3AC
:106900004FF4BE74204604F0E7FB48B1204604F083
:10691000D9FB46F0004606AA0121002004F0BEFB88
:10692000404D16F0FF0F15D00127002437420DD03F
:1069300009EB8401D1F81005D1F81015C0F304203B
:1069400055F82420C1F3014102B190477F00641C37
:10695000082CEBD3002E5FDA4FF0FF30CDF810801B
:1069600054E0281910F8547F90F9000027F0C0086F
:10697000401C3BD007A9404604F08FF810B34FEA03
:106980009719404602F0EAFD55F820701FB1B9F1A1
:10699000030F03D006E0B9F1030F27D104A9404645
:1069A00004F083F84FF0A04101EB8800D0F8000715
:1069B00006A9C0F3014A404604F06FF818B1BAF1D5
:1069C000020F03D012E0BAF1030F0FD1B9F1030F98
:1069D00008D1BAF1020F1DD00221404604F034FB69
:1069E000761CF6B217B149464046B847641C052CE0
:1069F000B7D3002E10D06A460121002004F04EFBD0
:106A000006990098884207D00690049800263446DC
:106A10000790A6E70321E0E70AB0BDE8F087000091
:106A200000600040B036002000F01F0201219140BC
:106A30004009800000F1E020C0F88012704700F0AB
:106A40001F02012191404009800000F1E020C0F8C0
:106A50000011704700F01F020121914040098000A1
:106A600000F1E020C0F8001270474907090E002825
:106A700006DA00F00F0000F1E02080F8141D7047E6
:106A800000F1E02080F800147047000070B54FF46A
:106A90008076304604F062F9114CB50560B130469D
:106AA00004F063F90120C5F80803607920B90120DA
:106AB00060712168002088474FF48276304604F0E8
:106AC0004DF900280AD0304604F04FF90220C5F8ED
:106AD00008032168BDE870400120084770BD000030
:106AE000F82A002007480021C0F84011C0F84411DE
:106AF000C0F84811C0F84C11C0F80011C0F80411DA
:106B000006F066B800100140F8B51248124E04466F
:106B10004FF48C7104F049FC00281AD00025C4F809
:106B20001851D4F818010090F07F3446FF2806D0A1
:106B3000A17F11B104F099FA01E004F09DFA6577A4
:106B40002572D4E9002101B004F10800BDE8F0404D
:106B50001047F8BD003000407837002005F086BFB0
:106B600004F0C6BBF0B5B5480023021D0178101D26
:106B700001254FF0805406290BD11678360708D12D
:106B80000678C6F30316032E06D0042E04D0052E75
:106B900002D0062907D00EE0B4F82463A84FC6F34C
:106BA00004263E6002E01678360704D10678C6F364
:106BB0000316032E02D0062904D00FE0A24FA14EE7
:106BC0007E670EE01678360708D10678C6F30316FE
:106BD000032E06D0042E04D0052E02D0062907D09D
:106BE0000EE0D4F84462994FC6F342363E6002E0AC
:106BF0001678360704D10678C6F30316032E02D0A2
:106C0000062906D011E0924E376827F0807737606A
:106C10000EE01678360708D10678C6F30316032E61
:106C200006D0042E04D0052E02D006290AD011E089
:106C30004FF08046C6F80C31C6F81031834E361F2F
:106C4000336002E01678360704D10678C6F30316DF
:106C5000032E02D0062905D00CE07C4F03266437B2
:106C60003E600AE01678360704D10678C6F30316AC
:106C7000032E02D006290DD014E0764F05263E6083
:106C8000744E78363560734E083633603F263F1DAC
:106C90003E6002E01678360704D10678C6F3031684
:106CA000052E02D0062957D062E06B4E36686B4F36
:106CB0003E60694E361D36683F1D3E60664E0836A2
:106CC00036683F1D3E60644E0C3636683F1D3E60A0
:106CD000614E103636683F1D3E605F4E1436366892
:106CE0003F1D3E605C4E183636685C4F20373E6074
:106CF000594E1C3636683F1D3E60574E203636686A
:106D00003F1D3E60544E243636683F1D3E60524E55
:106D1000283636683F1D3E604F4E2C3636683F1D84
:106D20003E604D4E303636684C4F40373E604A4EDE
:106D3000343636683F1D3E60474E383636683F1D54
:106D40003E60454E3C3636683F1D3E60424E403602
:106D500036683F1D3E6002E01678360708D1067897
:106D6000C6F30316032E06D0042E04D0052E02D03F
:106D7000062907D019E0D4F85812394A01F04F011A
:106D8000116002E0117809070FD10078C0F30310F9
:106D9000032803D0042801D0052806D13148016812
:106DA000C90702D06FF001010160D4F83001062854
:106DB00008D1D4F83401062804D12B48016841F4E5
:106DC0008061016022487438016841F470010160FB
:106DD000BFF34F8FBFF36F8F4FF01021D1F8000238
:106DE000002803DBD1F80402002822DA1F4A1560CC
:106DF0001F480468002CFCD01524C1F80042056827
:106E0000002DFCD0C1F8044201680029FCD01360B9
:106E100001680029FCD0BFF34F8F0D48F03801689E
:106E2000144A01F4E06111430160BFF34F8F00BFCA
:106E3000FDE7124910480860F0BD0000E00F00F0C7
:106E4000403501400DF0ADBA00C007403C050040A0
:106E5000FCED00E0105600400404001020C5004086
:106E6000E40E0040000400403C17004004E50140EF
:106E700000E401400400FA050090D003682B0020D4
:106E80000148006800470000002B00200FB4054BAC
:106E900010B503A9044A029800F000F910BC5DF88F
:106EA00014FB000009A10200602B00200FB4084B66
:106EB00010B504A902AA039800F0F0F8044602A94C
:106EC000002000F082FC204610BC5DF814FB00009E
:106ED000CB77020002E008C8121F08C1002AFAD1CD
:106EE00070477047002001E001C1121F002AFBD14A
:106EF000704700000121202803DA81400548014045
:106F000003E0402802DA2038814009B101207047AF
:106F100000207047FC06FFBD2DE9FF5F82B0002115
:106F2000DDE90430020DDDF840B0034318D044F62B
:106F30001050A2F2FF3242431514119801281FD0BD
:106F4000A5EB0B00401C5FEA000A4FF000064E4F15
:106F5000DFF83891B046504615D5CAF1000413E069
:106F6000119801244AA3012801D16FEA0B0102986C
:106F7000119AC0E90031C0E9024206B0BDE8F09FB5
:106F8000CBF10000DFE704460021404A491842EBFC
:106F90000450CDE9001012E0E00707D032463B462E
:106FA00040464946FFF759FB8046894632463B46F4
:106FB00010461946FFF751FB06460F466410002C99
:106FC000EAD1DDE90401DDE90023BAF1000F06DAB8
:106FD000FFF743FB42464B46FFF73FFB05E0FFF759
:106FE000AEFB42464B46FFF7AAFB04460E46002284
:106FF000284BFFF72BFC03D84FF0FF30014607E08A
:107000000022254B20463146FFF780FAFFF706FCA9
:10701000102409E0002C0ADB0A220023FFF77EF986
:10702000039B30321A55641E50EA0102F2D1641CEF
:10703000039AC4F111031444119A012A03D00122C6
:1070400008430DD10AE0084304D000204FF0110B93
:10705000119072E7A3EB0B056D1E0DE05B4504DD9F
:107060004FF0000205F1010504E003DA4FF00002E1
:10707000A5F10105002AECD002981199C0E902316E
:10708000C0E9004579E70000000014400000F03F2F
:10709000300000000000F0430000E03F2DE9FF4F0A
:1070A00095B09B468946064600250FE2252877D1F4
:1070B00000242746F84A0121059400E0044316F80D
:1070C000013F203B01FA03F01042F7D130782A2823
:1070D00011D06FF02F033078A0F13002092A16D8B2
:1070E000059A44F0020402EB820203EB42021044D0
:1070F000761C0590EFE759F8042B0592002A03DA75
:10710000504244F40054059044F00204761C307858
:107110002E2816D116F8010F44F004042A280DD0A9
:107120006FF02F023078A0F13003092B09D807EB5C
:10713000870302EB4303C718761CF3E759F8047B77
:10714000761C30786C280FD006DC4C2817D06828C5
:107150000DD06A2814D104E0742810D07A280FD1F9
:107160000DE044F400140AE044F4801401E044F417
:1071700040147278824202D104F58014761C761C89
:10718000307866280BD013DC582877D009DC00282B
:1071900075D04528F6D04628F4D047281AD19DE16D
:1071A00018E0632835D0642879D0652812D195E19C
:1071B000702873D008DC6728F1D069286FD06E285A
:1071C0000DD06F2806D1B5E073282CD0752875D066
:1071D000782874D05A46179990476D1C75E1C4F30E
:1071E0000250022809D003280DD0D9F80010042835
:1071F0000DD00D6009F1040967E1D9F80010EA1714
:10720000C1E90052F6E7D9F800100D80F2E70D70E1
:10721000F0E719F8041B8DF8001000208DF801002C
:10722000EA46012003E059F804AB4FF0FF30610754
:107230004FF0000102D40DE008F101018846B94287
:107240000FDA8045F8DB1AF808100029F4D108E0BD
:1072500008F1010188468142FADB1AF8081000297A
:10726000F6D105985B46A0EB080721463846179AE9
:1072700000F094FA284400EB080507E04DE029E10E
:107280000DE01AF8010B5A4617999047B8F101081A
:10729000F7D25B4621463846179A13E142E00A22AC
:1072A0000092C4F302524FF0000A022A08D059F8A3
:1072B00004CB032A4FEAEC710AD00DE029E02AE062
:1072C00009F1070121F00702F2E802C1914609E045
:1072D0000FFA8CFC4FEAEC71042A03D14FFA8CFCB4
:1072E0004FEAEC71002907DA0A460021DCF1000CB4
:1072F00061EB02012D2202E0220504D52B228DF83C
:107300000420012203E0E20701D02022F7E79046A3
:1073100059E00A2102E010220DE010214FF0000A8E
:1073200000910BE010224FF0000A44F004040827FB
:10733000009203E008224FF0000A0092C4F30252C8
:10734000022A05D059F804CB0021032A08D009E00D
:1073500009F1070121F00702F2E802C1914605E0B8
:107360001FFA8CFC042A01D10CF0FF0C4FF000082E
:10737000220728D5702806D0009B83F0100353EA1B
:107380000A0305D00EE040228DF80420012208E017
:107390005CEA010206D030228DF804208DF8050049
:1073A00002229046009B83F0080353EA0A030AD1A5
:1073B0005CEA010201D1620705D530228DF8042074
:1073C0004FF001087F1E582804D034A003900EA867
:1073D00002900DE036A0F9E753466046009AFEF7AA
:1073E0009DFF84460398825C0298401E02900270C2
:1073F0005CEA0100F0D1029806A9081A00F1200AFF
:10740000600702D524F4803400E00127574502DDEF
:10741000A7EB0A0000E0002000EB0A0100900598AD
:107420004144401A0590E00306D45B462146179A72
:10743000059800F0B3F90544002706E001A85A4674
:10744000C05D179990476D1C7F1C4745F6DBE00334
:107450000CD55B462146179A059800F09FF9054424
:1074600004E030205A46179990476D1C0099481E39
:1074700000900029F5DC08E0029802995A4600784D
:10748000491C0291179990476D1CBAF10001AAF1AD
:10749000010AF1DC65E100000928010030313233D6
:1074A0003435363738396162636465660000000040
:1074B000303132333435363738394142434445462A
:1074C0000000000000F058F90544761C30780028D0
:1074D0007FF4ECAD19B02846BDE8F08F620700D408
:1074E000062709F1070222F0070CFCE80223E14617
:1074F00003F000485FEA080C02D00FF2702C0DE098
:107500005FEA045C02D50FF2682C07E05FEAC47CF6
:1075100002D00FF2602C01E0AFF2700C4FF0FF3898
:1075200023F00043CDF850C065280CD006DC452878
:1075300009D046281DD047283DD13DE0662818D007
:1075400067287ED138E00021112F01DB112000E0F7
:10755000781CCDE9000106A90EA8FFF7DDFCDDE9E6
:107560000F010E9A03910021009207F1010A049184
:107570004DE04FF000400097CDE9011006A90EA89C
:10758000FFF7CAFCDDE90F0203920E9B119900225E
:10759000DDF80CA00093049211B9791C00EB010AEC
:1075A000B7EB0A0004D4C0F1FF3007F1010A0490E0
:1075B000AAEB0700019044E0012F00DA0127002127
:1075C000112F01DD112000E03846CDE9000106A9A8
:1075D0000EA8FFF7A1FCDDE90F010E9A039100212F
:1075E00004910092BA4621070CD40399514500DA60
:1075F0008A46BAF1010F05DD009AAAF10101515C3A
:10760000302908D0B84202DA10F1040F06DA01215D
:10761000CDE9011015E0AAF10101E9E7002805DC38
:10762000049901440491AAEB000102E0411C514578
:1076300000DD8A460499401A401C01904FF000403A
:107640000290200704D40198504501DBCDF8048056
:1076500000208DF84F0002980DF14F07B0F1004F58
:1076600025D02B200E9002984FF0020800280CDA4B
:10767000404202902D200E9007E00A210298FEF76A
:10768000C2FE3031029007F8011DB8F10001A8F1E7
:107690000108F2DC02980028EFD1791E0E980870DC
:1076A000307800F0200040F0450007F8020D12A8E5
:1076B000C01B00F107081498007800B1012000EB0E
:1076C0000A01019801EBE07105984144401A401EFF
:1076D0000590E00306D45B462146179A059800F012
:1076E0005DF805441498007818B15A4617999047E8
:1076F0006D1CE00324D55B462146179A059800F0DF
:107700004DF805441CE00498002807DBDDE903017F
:10771000884203DD0098405C179901E017993020FA
:107720005A469047049805F10105401C04900198C1
:10773000401E019004D12E205A46179990476D1C87
:10774000BAF10001AAF1010ADDDC05E017F8010B2E
:107750005A46179990476D1CB8F10001A8F101082D
:10776000F4DC5B462146179A0598ABE62D00000035
:107770002B000000200000002DE9F0410446002508
:107780001E461746880404D405E039462020B04739
:107790006D1C641EF9D52846BDE8F0812DE9F04145
:1077A000044600251E469046C80301D5302700E058
:1077B0002027880404D505E041463846B0476D1CB3
:1077C000641EF9D52846BDE8F0810A68531C0B6099
:1077D0001070704710B501220221002001F028FD31
:1077E00008B1072810D107220221012001F020FD55
:1077F00008B1072808D100210A22084601F018FD27
:1078000008B1072800D1002010BD022001F01ABCE9
:1078100070B50024064D06E06868012110F83400B8
:1078200003F022FE641C28788442F5D3002070BD4A
:10783000082B0020F8B515460C460646052A01D24D
:107840000720F8BD03F00CFF18B903F0D1FE0028A3
:10785000F7D1124900224E600C708D60C1E90422FC
:10786000C1E906220E4D0DE006EBC4002968009127
:1078700081788DF8011000780A4A694603F046FEC7
:107880000028DED1641EE4B2EED2BDE8F840044820
:107890000021054A001D00F055B80000082B00200B
:1078A000C0D402000DA30200A59E020072B60948D2
:1078B0000068C00700D000BEBFF34F8F0548E43812
:1078C0000168054A01F4E06111430160BFF34F8F85
:1078D00000BFFDE7F0ED00E00400FA050EB5002161
:1078E0000091CDE901106A4644F20100FFF7DEFF86
:1078F0000EBD10B58268C368934203D002F0DDFB71
:10790000002010BD052010BD29B112B1531E134235
:1079100003D0092070470E2070470160838000214A
:107920008160C1600846704710B58268C3689A1AC2
:1079300083889A4203D802F0CAFB002010BD0420BD
:1079400010BD0000084B9B7823B12AB120B100681C
:10795000037C1BB108207047072070470023037485
:107960004174426118467047BC37002070B504F07E
:107970001FFB104800240B21047044700E4D8170D1
:1079800014206C602C706C70FFF74EF806211420E8
:10799000FFF76BF81420FFF752F80848046006213F
:1079A0001120FFF762F80548001F0068A86000205A
:1079B00070BD0000BC370020282B002008150140B6
:1079C0002DE9FC47DFF8789099F8023073B368B37B
:1079D000052902D20720BDE8FC87436933B3437C05
:1079E000012B25D0002704460025884616468DF831
:1079F0000050684600F0CEF801A805F027FCC8B199
:107A0000012101700F4944600968C0E90218C0E90A
:107A100004769DF8040089F801009DF8000000F04C
:107A2000DDF81420FFF716F82846D4E70820D2E73F
:107A30000F46D8E704259DF8000000F0CFF8F3E7E3
:107A4000BC370020041501400649897839B130B1AE
:107A5000416921B100210174022105F095B8082087
:107A600070470000BC37002070B50A4E01460A4836
:107A7000B578FFF73EFF04464DB10020B070711C91
:107A80000122C81D03F036FA08B1FFF727FF204690
:107A900070BD00003C2B0020C8380020F0B5244EFB
:107AA00089B01F460D00044672603FD0A88829683F
:107AB00082B22048FFF728FF002835D1A889A9689D
:107AC00082B21C481030FFF71FFF00282CD1202263
:107AD00019496846FEF762FC60690690207C00B197
:107AE00001208DF814008DF81C70607C00B10E2010
:107AF0008DF81500E0680290A0680390206801905E
:107B0000606800900A480D4A6946083003F0BEF9E3
:107B1000002809D1B0702068401C05D0044901221A
:107B2000491CC81D03F0E6F909B0F0BD0720FBE7CA
:107B30003C2B0020C8380020D8D40200F9CC020029
:107B400010B501461048FFF7EFFE040019D10F48A9
:107B50000F4A0178515C19B1001D04F0F9F802E0F8
:107B60000C3003F0DDFF60B9084907480839FFF71A
:107B7000C0FE30B9054901220839044803F0CAF9AA
:107B80000446204610BD0000D8380020442B0020B9
:107B9000EC2A002030B5EFF3108172B60D4A9468DC
:107BA000012324B10370002900D162B630BD936077
:107BB0004FF0E023D3F88051074C25401560C3F8FF
:107BC0008041D3F8844154605A17C3F884210022BD
:107BD0000270E8E7E8380020FC06FFBD0B498A6820
:107BE000002A11D000280FD1EFF3108072B60B6875
:107BF0004FF0E022C2F800314B68C2F80431002295
:107C00008A60002800D162B670470000E838002082
:107C10002DE9F041064608680C46411C4FF0A0478C
:107C20004FF0010506D005FA00F1C7F808152068E5
:107C300003F0ECF96068411C02D0002103F0D4F994
:107C40003168A069C1F82405607D227D3168104348
:107C5000C1F86C05D4E900123068C0F81425C0F8EA
:107C60000C15207D012815D1A068411C02D00021EF
:107C700003F0BAF9E068411C05D08540C7F8085503
:107C8000E06803F0C3F9D4E902123068C0F80825AF
:107C9000C0F81015BDE8F0812DE9F04106460868EE
:107CA0000C46411C4FF0A0474FF0010506D005FAE5
:107CB00000F1C7F80815206803F0B2F96068411CAC
:107CC00002D0002103F099F93168A069C1F82405B8
:107CD000607D217D32680843C2F86C05D4E900124A
:107CE0003068C0F80C15C0F81425207D012815D186
:107CF000A068411C02D0002103F07FF9E068411C1C
:107D000005D08540C7F80855E06803F089F9D4E943
:107D100002123068C0F80825C0F81015BDE8F081DF
:107D200070B51500044609D00020286034B12068E1
:107D300020B1A079800703D0072070BD0E2070BD50
:107D4000084600F02DFBC0B2142804D021798142EE
:107D500003D8042070BD052070BDE288216800FBB7
:107D600002102860002070BD2DE9FC47002517880F
:107D70000646158090F82D001446894630B13A46E3
:107D80002146484600F020FB051E09D1B0784FF08F
:107D90000C0A18B32088C846001DB84202D95046C4
:107DA000BDE8FC87684679DF0028F9D120880321E7
:107DB00008F8001020881921401C80B2208008F8A3
:107DC00000102088401C80B2208000EB0801BDF824
:107DD000000005F01FF9218808442080F078022275
:107DE000C8B1218896F9033001F1030C4846BC451F
:107DF000D5D8425421884FF0010C491C89B221800A
:107E000000F801C02188491C89B2218009F801309D
:107E10002088401C20807068B8B1218890F900301B
:107E200001F1030C4846BC45B9D8425421880A22C6
:107E3000491C89B2218042542188491C89B2218081
:107E400009F801302088401C2080308950B1CDE9EC
:107E500000474B460622022106F1080005F00EFA03
:107E6000051E9DD1308A50B1CDE900474B4607220F
:107E7000032106F1100005F001FA051E90D1308BA8
:107E800050B1CDE900474B461522142106F11800E8
:107E900005F0F4F9051E83D1306A30B13B46224625
:107EA000494601F084FF051EDBD1706A30B13B46C4
:107EB0002246494602F0BCFC051ED2D196F82C00A1
:107EC00038B13B4622464946304604F079F9051E52
:107ED000C7D1307838B13B4622464946304602F099
:107EE0005DFD051EBDD128465AE718B504460020A1
:107EF000ADF8000013466A46204600F006F8002858
:107F000002D0BDF80000204418BD70B588B182B120
:107F10000024158803E0065D641C3444A4B2A54225
:107F200003D8061976789E4201D08C42F3D38C4256
:107F300001D3002070BDA11C1180005D401E80B2E5
:107F400070BD80F8301070472DE9F0470D000446F1
:107F500006D02CB195F87A000026012803D006E05F
:107F60000E20BDE8F08795F89800012829D0D5F8B3
:107F7000A000042825D0D5F89C00042821D04FF07B
:107F80000109A6702C2205F17801201DFEF706FAE2
:107F900084F83060D5F8A4006063D5F8A800A06329
:107FA0004FF6FF70A4F8480204F50D70C4F84402BF
:107FB000C4F84A62A4F84E6284F85062207810B186
:107FC00004E00720CDE7FF2084F8540004F15501B8
:107FD000C4F8341294F82400EE274FF01F0801284B
:107FE0001FD0A4F8388200BF04F50E722846FFF7B0
:107FF000BBFE0028B5D115F13C0F18D004F2431197
:10800000C4F83C1294F8240001280DD0A4F8408252
:1080100004F5107205F13C00FFF7A6FE0028A0D180
:1080200009E0A4F83872DFE7A4F84072F0E7C4F87A
:108030003C62A4F8406284F85190208BA4F8480078
:1080400084F83C90266484F85060606960644D4612
:1080500004F13C02002104F1540072DF002880D1B9
:1080600025707EE710B50288102A1BD0112A20D077
:10807000262A1DD1007A0C46012801D0022817D1EA
:10808000A0780521401CB0FBF1F201FB1201204653
:1080900000F03BF800280BD0A16B002908D0BDE808
:1080A00010400847C27B012A02D18088A1F848020B
:1080B00010BD0C46002184F852128088B4F8481292
:1080C0008842F5D120790028F2D10121DFE77047FD
:1080D00010B5044690F8540074DF012084F8520271
:1080E000002084F8540284F850000621204601F054
:1080F000F7FF002808D1A178204600F006F810B15B
:10810000A16B01B18847002010BD2DE9F05F044646
:1081100000780F4698B1A7700025C4F84A52A4F819
:108120004E5284F85052A079012608B1012F09D08F
:10813000E07980B1012F05D0022F03D00BE0082099
:10814000BDE8F09F616B21B184F851620820884737
:1081500001E084F8515204F24B2100200A5C0AB17C
:10816000304603E0401C0628F8D300204FF00208F8
:108170004FF0030B012F06D0022F0CD0032F0FD08E
:10818000042F15D110E0A17929B194F8241011B968
:1081900008B130460DE0E17911B108B1404608E080
:1081A000207A08B1584604E0607A08B1042000E063
:1081B0002846A070616B41B1032801D0042804D186
:1081C000607910B194F85202A0B184F8535204F1CE
:1081D0003C0018210746FEF7FAF804F12C0084F859
:1081E0003C60814603F087FE58B194F82C0084F877
:1081F000510008E084F8545284F8536207208847FD
:10820000E5E784F8516094F8240050B1484603F043
:1082100072FE20B194F8280084F8520001E084F83E
:10822000526084F85050A27804F24A2104F50D7986
:108230004FF0060A052A62D2DFE802F07A030F2225
:10824000410084F83160C4F84452C4E9101584F840
:108250003C808020A4F8480053E084F8318094F8F2
:108260002420384612B10722027001E080F800B0E5
:10827000228A8281C4F844524160E168B96040E0DA
:108280006069B860208BB88194F824003D4610B135
:1082900084F83CA001E084F83C60204604F0B8FF7C
:1082A00050B185F814800421204601F019FF30BB3D
:1082B000052184F8311020E084F831B01DE0E06938
:1082C000B860208CB88194F824003D4610B184F841
:1082D0003CA001E084F83C60204604F099FF48B1DE
:1082E00085F814800421204601F0FAFE38B984F89C
:1082F00031A002E0042084F83100C4F84492A07850
:1083000078B13A4604F15400D4F8441272DF0028E0
:108310007FF416AF94F8301094F8540073DF0028FF
:10832000F6D1616B11B194F831008847002007E75E
:1083300084F83150F5E7000070B5040012D0014612
:108340001C221448FEF72AF81248134D05602068D5
:1083500050B17ADF002806D12068016829604068A2
:10836000686005E00E2070BD0B487BDF0028FAD165
:1083700008484FF6FF711438084A20F8041B0549D5
:10838000343901600021FFF7DDFA0028EBD003202B
:1083900070BD000008360020E42A0020A9D10200A8
:1083A00010B5044600F006F808B1204610BD1420B0
:1083B00010BD0000142801D3002070470146014879
:1083C00002F04ABB283600207CB5054608880C46DA
:1083D0000930904201D90C207CBD68466DDF002831
:1083E000FAD121880820685420881B21401C80B2C3
:1083F000208029542088401C80B220802844DDF849
:1084000001100160BDF8051081802088801D80B2B8
:1084100020809DF80010490800D0012129542088AF
:10842000401C208000207CBD38B5224D04460188C8
:10843000688821292AD00ADC102912D0112921D0DC
:10844000132922D100231A4685217FDF14E03B291E
:108450002BD0522924D0562917D1A088132176DF9A
:108460000AE0072000F006FF08B1FFF737FAA188FD
:108470006980114802F0FAFB002806D0BDE83840B8
:10848000FFF72CBA4FF6FF70688038BD00200090CF
:10849000A08869468FDF0028F7D0FFF71FFA38BDA4
:1084A00000231A461946B1DFE6E7A088132176DFDC
:1084B000E2E70000A02A00207C2E002010B51A4C14
:1084C0000188606810290ED011292BD1401E6060F0
:1084D00028D1FFF77FF9002824D02168002921D076
:1084E000BDE810400847D0B900210122084600F03D
:1084F0009FFE08B107280FD107220221012000F0BA
:1085000097FE08B1072807D104220221002000F0BD
:108510008FFE20B1072802D0216801B1884760682A
:10852000401C606010BD0000DC2A00202DE9F047EF
:1085300001883B4E40F2F3194FF6FF7510291BD00E
:1085400011293ED0122954D0502946D1C188F28930
:10855000841D914241D1618902293ED186883046ED
:1085600001F016FF050038D004F10C0000F0B4F95A
:10857000A8B3294630464EE0C17B878804460129CE
:108580002BD1A846284601F003FF050017D02F8005
:1085900000202872234843464A460168C5F80A105D
:1085A0004068C5F80E0004F1100105F10A0001F061
:1085B0003BFF6872F08900280FD129462AE0042089
:1085C00013E0808801F0E4FE040006D06068FFF745
:1085D0003BFA08B103F0A0FD2580BDE8F087FFE776
:1085E0006868FFF731FA0028F7D0BDE8F04703F0DC
:1085F00093BD87880646384601F0CAFE0400ECD0D9
:108600002B464A4606F1080104F10A0001F00CFF6E
:10861000607221463846BDE8F04701F00FBC00000B
:1086200008360020E42A00202DE9F04F074685880F
:1086300002883D48012197B08346102A09D0112AAB
:1086400049D01A2A6CD1387AB1EB101F45D20122D9
:1086500044E0354C083CA068C0430B9061680BA80F
:1086600002F00FFA0B990CA801F082FB2C220CA946
:108670006846FDF793FE0026E946A04610E000BFDD
:1086800009EB46005FF00004B0F804A008EB84009A
:108690005146001D02F0D5F9641C1D2CF6D3761C42
:1086A0000098B042ECD8142D05D317B00420BDE8D3
:1086B000F04FFFF713B92946584602F0D8F929467A
:1086C00008F1040002F0D3F9F87B012828D01648FD
:1086D0002946001D15E029461AE000220221B1EBCF
:1086E000101F01D2012600E000260F49083901F1D0
:1086F0001000041D294682B102F0B9F936B12946AD
:10870000204617B0BDE8F04F02F0B1B92946204627
:1087100017B0BDE8F04F02F094B902F092F9F5E716
:1087200017B0BDE8F08F00002C360020F0B585B002
:1087300016460F4604001D4614D004AA1946606967
:10874000FFF7EEFA00280BD1A5F57F40FF380BD0DC
:10875000049848B1007848B13088F42808D9072037
:1087600005B0F0BD0E20FBE70520F9E70820F7E78C
:1087700000200090019002900390A088ADF80000C6
:1087800001208DF80200CDE9026769462846AEDF78
:10879000E6E7000070B5334D04008EB02DCD08AE75
:1087A00086E82D005BD0E9B30868A061214608A8DF
:1087B00062DF002851D1207801258DF83200ADF814
:1087C0003050A21C0CA92846A8DF002845D1202142
:1087D0006846FDF7FCFD0220ADF8000020788DF81A
:1087E00002008DF80C509DF80D00F426ADF80460E1
:1087F00040F00C008DF81150ADF806508DF80D00CA
:108800008DF81250608804F10C02694600F0AEFE4B
:10881000002822D120216846FDF7D9FD0320ADF8BC
:10882000000000E01BE020788DF802008DF80C506D
:108830009DF80D008DF81150ADF8046040F0100067
:108840008DF81250ADF806508DF80D008DF81350CC
:108850006088221D694600F089FE0EB070BD0E20B2
:10886000FBE7000090D4020070B588B004460029F0
:1088700024D0002C22D008462188102920D050294D
:1088800024D057291AD10546A188406906AAFFF7C6
:1088900047FA002812D1069E307800280ED0182101
:1088A0006846FDF794FD01208DF800000195A08831
:1088B000ADF808000396A9696846884708B070BDFE
:1088C00008B02146BDE8704003F09EBA08B02146CA
:1088D000BDE8704003F0CDBA007800F001007047A9
:1088E0002DE9FF414FF000050E4607461400ADF894
:1088F0000450ADF808508DF80C500DD0A06958B157
:10890000016849B1C07950B13146384601F071FB78
:1089100004B02846BDE8F0814FF0FF35F8E7134674
:10892000324602A901A801F047FC0BE0214601A84C
:1089300000F01AFFA06903AA01A9037A384600943F
:1089400004F08EFBBDF80400BDF808108842EDD39A
:108950009DF80C003070A169BDF804004881D7E78C
:1089600038B504004FF000004FF0240525D0A16970
:108970000A6812B34881A169234602228881A1694D
:10898000C881A1690861A16908752220694600F0C3
:108990002CF89DF80110002801F007018DF8011056
:1089A000BDF800100BD1A2699088884200D991804F
:1089B000A2699379022B03D008E04FF0FF3038BD55
:1089C0001931814202D8908819309080A07801280E
:1089D00000D1A425A0692946838802686078E469EB
:1089E00001B0A446BDE83040604770B51C0005D01A
:1089F000E5691DB1A378012B03D004E04FF0FF35EA
:108A00000EE040F08000134666780A460146304684
:108A1000A8470546616A012088470DB16FF001053E
:108A2000284670BD38B50446032503F09FF9002899
:108A30001FD1A178012907D12346012269467F2051
:108A4000FFF7D3FF002814D10021217005E0234651
:108A5000012219460020FFF7C8FF6D1EEDB202D3B8
:108A60002178D129F3D110B92078D12802D06FF024
:108A7000020038BDFF20E070204600F00EFA38BD3D
:108A8000F8B50F464FF0000114008DF800104FF0BC
:108A9000470600F0FE052ED01346012269463046F7
:108AA000FFF7A3FF002825D135B19DF80000012F65
:108AB00024D0A8438DF800002346012269463046A1
:108AC00000F039F9002815D12346012269463046C5
:108AD000FFF78BFF00280DD19DF80010A36901F06E
:108AE0001002DA71A36901F0E00201F002011A72CA
:108AF000A2699171F8BD4FF0FF30F8BD2843D9E766
:108B000008B58DF80000462029B10B4601226946C0
:108B100000F011F908BD4FF0FF3008BDF8B506466A
:108B20000D4600207178441E07460E291CD2DFE84E
:108B300001F0071C2E2828343A4640224C6F84A5A9
:108B4000284603F013F970B96EB1341D294620464A
:108B500001F014FA002807D12A4621463046BDE824
:108B6000F84000F0C1BE2046F8BD29463046BDE8B9
:108B7000F84003F05FBD29463046BDE8F84003F0F9
:108B8000B8BC29463046BDE8F84003F0F3BD29469D
:108B90003046BDE8F84003F0B0BD29463046BDE898
:108BA000F84003F00BBD29463046BDE8F84003F01D
:108BB0004BBB29463046BDE8F84003F01FBC2946B0
:108BC0003046BDE8F84003F09DBB284603F0CEF8E0
:108BD0000028C8D1002EC6D08DF800702B46012287
:108BE00069465120FFF701FF20B99DF8000040F0D1
:108BF00010003AE00028B7D12946304603F026FE9F
:108C00000028B1D129463046BDE8F84001F080BEC9
:108C1000002DA8D0686A0028A5D08DF800702B46DA
:108C2000012269465120FFF7E0FE0028E2D1317AA7
:108C30009DF8000061F3451017E0002D93D0686A9D
:108C4000002890D08DF800702B46012269465120F3
:108C5000FFF7CBFE0028CDD19DF80000317A20F03F
:108C60004000C1F3400140EA81108DF800002B461E
:108C700001226946512000F05EF8BBE729463046E4
:108C8000BDE8F84003F0E2BDF8B5040015D0606A15
:108C900098B100208DF8000020796FF00305A0F155
:108CA0001001022928D8217A88421AD02146684624
:108CB00003F042F9060003D011E04FF0FF30F8BD99
:108CC00023460122211D7E2000F035F80646207A39
:108CD000102802D1616A052088472179217230006D
:108CE000EDD1207B0026142808D0152806D017289F
:108CF00004D02E463046F8BD2846F8BD217C884277
:108D0000F8D02346012204F10C017E2000F013F874
:108D10000646207C142802D0172803D008E05120F2
:108D2000616A04E0207B152802D1616A0A20884725
:108D3000207B2074DEE72DE9F0474FF000061C0091
:108D4000054690468946374608D0D4F820C0BCF185
:108D5000000F03D0A078012803D004E04FF0FF36C5
:108D600025E005F07F05207A112802D0207C152807
:108D700018D113460A4660782946E0470646616ADC
:108D80000120884710E0266A09EB0702607801237A
:108D90002946B0476D1C0646616AEDB2012088473E
:108DA0007F1CFFB24745EED30EB16FF0010630468F
:108DB000BDE8F08738B5040063D0606A002860D051
:108DC000002521466846009500F098FC002857D100
:108DD0002346012269464020FFF7ADFF00284FD10E
:108DE00061796172E179E172616A01208847234605
:108DF000012241200DF10101FFF79DFF00283FD125
:108E0000A179A17221466846009500F0BEFC0028B9
:108E100036D12346012269464220FFF78CFF002805
:108E20002ED1617B6174E17BE174616A0120884726
:108E30002346012243200DF10101FFF77CFF0028AA
:108E40001ED1A17B2046A174FFF71EFF002817D179
:108E500023468DF80050012269460220FFF7C5FD28
:108E60009DF80010C1F343018DF8001001290BD0CB
:108E700002290CD003290DD0072901D16FF0080079
:108E800038BD4FF0FF3038BD6FF0050038BD6FF0D2
:108E9000060038BD6FF0070038BD38B504004FF04C
:108EA000B6008DF800000DD0606A58B1234601224B
:108EB00069467E20FFF73FFF0546616A0F2088471D
:108EC0001DB11FE04FF0FF351CE0A078012807D14D
:108ED0002346012269467F20FFF787FD050011D157
:108EE0000220E07108216171102222710322A27117
:108EF000E0736173142020730020A0736068A06089
:108F0000E0682061284638BD2DE9FC41114F002062
:108F10001C4616467870054641F080008DF8040026
:108F2000601CC0B200900C4B012201A90B4801F05B
:108F3000A1FF78780028FCD00021074804E04218FF
:108F400052787254491C89B2A142F8D32846BDE830
:108F5000FC810000A02A002010330020A8D30200CA
:108F60002DE9F84F154F4FF000081C4692468946F0
:108F700087F801804646581C01F024FC09F07F0167
:108F800005460170002005E01AF800102A18401C60
:108F9000517080B2A042F7D3641CE2B2002329468C
:108FA0000748CDF8008001F065FF78780028FCD0F4
:108FB000284601F0B1F83046BDE8F88FA02A00201D
:108FC000A8D302000149085C7047000048D40200A1
:108FD0000649095C4FF0A040D0F81005C84010F0D9
:108FE000010000D0012080F00100704748D4020049
:108FF0002DE9FC410646C0074FF000050ED0104F8A
:1090000000240122385D009500231146019501F0EE
:1090100091FF641C042CF4D300F046F8B0070DD582
:10902000074E0024361D0022305D032300951146B3
:10903000019501F07FFF641C042CF4D3BDE8FC8192
:1090400044D4020007490B5C4FF0A041D1F804253D
:109050000120984020EA0203C1F808351040C1F809
:109060000C05704744D402000249085C012102F05B
:109070000AB8000044D402000249085C002102F052
:1090800002B8000044D402000649095C4FF0A04039
:10909000D0F80405C84010F0010000D0012080F095
:1090A0000100704744D4020010B500242046FFF7A9
:1090B000DBFF641C042CF9D310BD10B5002420463E
:1090C000FFF7DAFF641C042CF9D310BD10B502467B
:1090D000064B4FF0FF3000215C5C944201D1084602
:1090E00010BD491C0429F7D310BD000048D402006C
:1090F00070B50C4E0C004FF0000530600BD0012015
:1091000000F06AF808B1022004E0002000F064F8E2
:1091100000B10B202070706810B9FEF75BFB0546AC
:10912000284670BDDC2A002010B5002000F0DCF9D4
:1091300008B1062806D1012000F0D6F908B10628AA
:1091400000D1002010BD00002DE9F0470D468146FA
:10915000FFF7BCFF0446042836D2DFF874801B48B2
:109160001C4EA8F10C0725B3012D0ED0022D2BD1DA
:1091700004EB440030444578002D25D0B96800291F
:1091800022D02846BDE8F047084704EB4401755C4F
:109190000E44717849B10E4A4FF40041093A806893
:1091A000FEF70EFC08B987F80390B17808F80410B0
:1091B000E2E78068FEF748FC04EB4401314418F80C
:1091C00004008D78A842D7D0BDE8F0874CD40200C7
:1091D000D82A0020A8350020042801D2FFF7F8BEC5
:1091E000002070470146104810B54088042907D078
:1091F00007290ED00A2915D1BDE8104003F04CBB59
:10920000132176DF0CE000280CD0BDE81040FEF7FB
:1092100065BBA0F57F41FF3904D10448FEF758FF34
:109220000828F0D110BD0000A02A0020882E0020C0
:1092300070B50023042810D20D4D00EB4004012A24
:1092400002D101290CD00022094E00EB400030442D
:1092500061B1012906D0022906D00723184670BD46
:109260000E30C2B22A55F9E74270F7E78270F5E78F
:10927000A8350020044A014600201279D20702D006
:10928000084600F04DB87047CC2A002070B506465D
:109290001E480024C0E90161B00720D50025012245
:1092A00011462846FFF7C4FF6D1C0446042D02D268
:1092B000002CF4D013E094B940F266620421144803
:1092C000FEF7B8FA04000AD1FEF7A2FA040006D1AC
:1092D0000F48104A0021001FFEF734FB0446F00738
:1092E00012D00120FFF784FE74B909480A4A002110
:1092F0000C38FEF727FB040006D10548074A012178
:109300000838FEF71FFB0446204670BDCC2A00201B
:1093100058D40200EF9402009DA402000B780200D2
:109320002DE9F05F6E4C054600266078B34618B113
:1093300084F801B001F09AF86A4F4FF47A694FF45B
:10934000C87A4FF00108182D69D2DFE805F00C1338
:1093500013384754696E727B727BC584848484841D
:10936000B3B6B9BCC5C501F081F83868FEF76CFB2F
:1093700006465CE00020FFF787FE00284FF0000063
:1093800008D0FFF771FE022D02D14FF4E16008E032
:10939000484606E0FFF770FE022D01D1C82000E02C
:1093A0005046410CC0034FF4FA72801841F100019D
:1093B000257052000023FCF7B1FF01462AE000208F
:1093C000FFF762FE00284FF0000004D0FFF74CFECC
:1093D0004FF44870E5E7FFF74FFEDFE70020FFF7A7
:1093E00053FE00284FF0000002D0FFF73DFECFE70C
:1093F000FFF742FED4E70020FFF746FE00284FF0BB
:10940000000002D0FFF730FE01E0FFF735FE2570C7
:1094100041F69A1100223868FEF7D2FA064646E075
:109420000020FFF70FFE257008E0002051E02570B6
:109430003DE084F801800120FFF704FE002240F6A1
:10944000CD41E8E784F801800120FFF7FBFD002211
:109450004FF48041DFE77868FEF7F6FA0646D5F16B
:10946000110000D02EB10220FFF7FEFD84F802B0FB
:109470001DE0012816D980B2C8214843C117C9038D
:1094800041EA5041C0034FF4FA72801841F10001E3
:1094900052000023FCF742FF014600227868FEF7E5
:1094A0008FFA06460220FFF7E7FD84F80280304677
:1094B000BDE8F09F00F0DAFFB9E700F0D7FFB4E7AE
:1094C00000F0D4FF04E000F0D1FF0020FFF7D4FD4E
:1094D0000120FFF7D1FDAAE7FFF7EFFDA7E70000A6
:1094E000CC2A00204CD40200012103F02EBF0078CA
:1094F0000221FFF729BE000005494FF0FF3208287E
:1095000041F8202002D3084480F84C207047000026
:10951000B0360020F0B54FF0FF3512B10023082619
:1095200001E008230D260C4C05E000BF54F8237021
:109530007F1C04D05B1CB342F8D32846F0BD26182C
:109540005DB286F8345044F82310002AF5D1E118B2
:1095500081F84C00F1E70000B036002002490844D1
:1095600090F9340070470000B03600202DE9F04338
:109570008146887891B090460C4600B901208DF85C
:109580003E002088ADF83C0000250095607C6946CF
:1095900003F06AF96E46A07C711C03F065F9E07B6C
:1095A00000289DF8020002D040F0080001E020F001
:1095B00008008DF80200217C11B140F0100001E09C
:1095C00020F010008DF80200217B11B140F0010065
:1095D00001E020F001008DF80200217D09B1022197
:1095E00000E0012161F342008DF802001C2102A875
:1095F000FCF7EDFE607BC10601D4800617D50E9501
:109600000EAFE07C791C03F02FF99DF83800079726
:1096100020F00F00401C20F0F00010308DF83800D2
:109620009DF83A0020F00600801C8DF83A00607B1F
:109630008DF80800A07B8DF80900142109A8FCF71B
:10964000C6FE0FA8CDE90906A088ADF83000A068D5
:1096500020B1E088ADF82C00A0680D90A06998B307
:1096600001950088ADF81000A06901AD01A94088FE
:10967000ADF81200A069406806950390A069007BD0
:1096800003F0F2F8A069691C407B03F0EDF8A069D3
:10969000807A00289DF8060002D040F0080001E022
:1096A00020F008008DF80600A169C97A11B140F0D8
:1096B000100001E020F010008DF80600A169097A81
:1096C00019B140F0010002E00DE020F001008DF83A
:1096D0000600A169897B09B1022100E0012161F343
:1096E00042008DF80600E06900B10590434609AAE2
:1096F00002A94846AADF11B0BDE8F08370B50D4657
:109700000B460446014602224020FFF76EF900286E
:1097100029D16979001F0F2925D86A7A914206D08C
:10972000227801F00F0122F00F0211432170E97934
:10973000022918D8EA7A914203D0217821F07001E9
:109740002170A9790022641C0C290AD8A87A8142C8
:1097500008D0207801F00F0120F00F0001432170A4
:1097600000E00246104670BD10B58B6902889988EA
:10977000941C8C4208D21B689C5C802C04D11A4437
:109780005278002A00D1018010BD70B50D460B46FD
:109790000446014602224220FFF727F900282AD179
:1097A000697B001F0D2926D86A7C914206D0227859
:1097B00001F00F0122F00F0211432170E97B022911
:1097C00019D82278302322F0300203EA0111114324
:1097D00004F8011BA97B002204290AD8A87C814235
:1097E00008D0207801F0070120F007000143217024
:1097F00000E00246104670BD70B5084C050009D067
:1098000010342168002907D008682060496828467C
:109810008847F6E70834F4E770BD00009C36002066
:10982000054A012120B1012805D19170FFF7E4BF5D
:1098300051700020FAE770479C3600202DE9F05F58
:1098400026484168F1B3DFF898B00E688146DBF82E
:10985000004087688078E11B21F07F45ED1CB0B99E
:10986000DFF880804FF48030C8F84403C8F8040360
:109870001120FDF7D9F81120FDF7E1F84FF0010AAA
:10988000C8F800A02F2001F0E7FD89F802A0B5423A
:1098900000D23546124BE8193C3320F07F40186067
:1098A000DBF800105A46091B21F07F41001B20F015
:1098B0007F40C91C81420FD9106818602F2001F029
:1098C000CBFD00E004E0BDE8F05F1120FDF7C2B879
:1098D000BDE8F05F02F06CBBBDE8F09F282B0020D4
:1098E00004150140001001402DE9FC410E461446CC
:1098F0000746114602F0AAFF002857D100258DF82F
:1099000000502346012269466220FFF76EF870B9C5
:109910009DF8000010F0020F0BD020F002008DF82F
:1099200000002346012269466220FFF704FA00285E
:109930003CD12146384600F0ADFF002836D18DF8E5
:1099400000502346012269465920FFF74EF878B9A6
:109950009DF80000317820F08000890940EAC110AC
:109960008DF800002346012269465920FFF7E3F9EC
:1099700000281BD18DF800502346012269465F2044
:109980000195FFF732F8002810D19DF8000023461A
:1099900020F003008DF800008DF8040070788DF839
:1099A0000500022201A95F20FFF7C5F9BDE8FC818F
:1099B00038B501F055FE08B901F01AFE0848094A09
:1099C00069460068009003208DF801001B2001F01B
:1099D0009DFD044601211B2001F046FD204638BDB7
:1099E00090D30200A5A30200F8B5054600200E465C
:1099F0008DF800000B46012269465420FEF7F5FF62
:109A000000281DD12878AC1C01289DF8000018D032
:109A1000217820F02000C1F3001140EA411000BF7E
:109A20008DF80000218800F0F000C1F343110143DC
:109A30008DF800103346012269465420FFF77BF968
:109A4000F8BD217820F01000C1F3001140EA0110A8
:109A5000E6E7000038B5044600200D468DF800000A
:109A60000B46012269465320FEF7BFFF002825D18F
:109A70002178A01C01299DF8001020D0007821F049
:109A8000800141EAC01121F04001C0F3400241EAE7
:109A90008211C0F3800221F0200141EA421121F03D
:109AA0001001C0F3C00041EA001000BF8DF80000B3
:109AB0002B46012269465320FFF73DF938BD007857
:109AC00021F0080100F0010241EAC20121F0040185
:109AD000C0F3400241EA8201C0F3800221F002019A
:109AE00041EA420121F00101C0F3C0000843DDE773
:109AF0007CB5044600200D468DF800005F260B461D
:109B00000190012269463046FEF76FFF00282ED1F2
:109B10009DF80000218820F0FC00C90840EA81007F
:109B20008DF800002B46012269463046FFF703F905
:109B300000281CD162202B4601226946FEF755FF02
:109B4000002814D19DF80000218820F00100C1F305
:109B5000402108438DF800008DF80500A0788DF8AD
:109B6000040061202B46022201A9FFF7E4F87CBD26
:109B700038B5044600200D460B4600900222694687
:109B80006520FEF732FF00282FD19DF800002B46FC
:109B900020F00302207800F003011143C0F381029A
:109BA00021F00C0141EA820121F0F001000941EAB3
:109BB00000108DF800009DF8010020F03F02208881
:109BC000C0F305211143C0F3803221F0400141EA86
:109BD000821121F08001C00B41EAC0108DF8010014
:109BE000022269466520FFF7A6F838BD38B504465D
:109BF00040780D468DF800000B4601226946602032
:109C0000FFF799F800282AD12B46012269466220E5
:109C1000FEF7EBFE002822D19DF80000217820F00D
:109C20000C0001F0030140EA81008DF8000021786A
:109C300020F03000C1F3810140EA01108DF80000EE
:109C4000217820F00200C1F3401140EA41008DF874
:109C500000002B46012269466220FFF76CF838BDF0
:109C600038B50D46002104460091008810F0C00F61
:109C700008D0C0F38110012809D002280BD0032896
:109C800010D033E015208DF80000032007E02D20D0
:109C90008DF8000028E01D208DF8000007208DF8C9
:109CA000010023E02B46022269467A20FEF79DFE42
:109CB000E0B99DF80000217820F01800C1F34101BF
:109CC00040EAC1008DF80000217820F00700C1F3C0
:109CD000C20101438DF800109DF80100218820F099
:109CE0000700C1F3022101438DF801102B46022227
:109CF00069467A20FFF71FF838BDF8B507460020FF
:109D00000E46154613460090022269466320FEF770
:109D10006CFE00282BD178789DF80040032806D1EE
:109D2000308824F00701C0F3C21040EA0104317802
:109D30004023C1F3401003EA801024F04002104396
:109D4000890920F0800242EAC1108DF800009DF8D8
:109D50000110307821F01F0100F01F0008438DF83A
:109D6000010002222B4669466320FEF7E4FFF8BD9E
:109D700073B58CB00646002000900D9880B1002489
:109D80006D4621460DA800F067FE30B1009805EB46
:109D9000400084800098401C0090641C142CF0D378
:109DA0002C2269463046FCF7F9FA0EB070BD2DE959
:109DB000F04117880646B81D14460D46984202D950
:109DC0000C20BDE8F0813188072206290AD34FF420
:109DD000486C4FF6FF73614501D9994202D17088F2
:109DE000062801D21046ECE7604501D99842F9D126
:109DF000994203D0984201D08142F3D80520E8551A
:109E000020881221401C80B2208029542088401CC8
:109E100080B220804119308803F0FCF82188084482
:109E200080B220804119708803F0F4F8218808443A
:109E300020800020C5E7FDF751BD000038B54A7A03
:109E40000F4B62B100220A725969002906D0012223
:109E50008DF80020ADF802006846884738BD0A7AC0
:109E600062B19B684C68024619462046FDF7A8FD82
:109E70000028F3D0BDE8384002F04EB95B68F1E746
:109E8000083600201FB500220092ADF800100192A4
:109E9000ADF802100292039202AA694690DF04B064
:109EA00010BD00002DE9F0470025DFF88C803CE074
:109EB0006068002100EBC506012032789146FCF76E
:109EC0005EFAD4E9062300EA020701EA030C57EA26
:109ED0000C0728D082438B434846C4E9062301F08F
:109EE0007DFB32788246914601200021FCF747FA3B
:109EF000D4E9042300EA020401EA03074A46504673
:109F00000021FCF73CFA44404F403C430BD17078B1
:109F1000012801D0012100E00021726881EA0A01D4
:109F20000AB1484690476D1CEDB298F800004446CF
:109F30008542BDD3BDE8F087082B00200E4910B53F
:109F40000A784C780023A24212D0521CD2B20A7076
:109F5000022A00D10B70084A0B780C3252F82320E9
:109F600002608868104420F07F408860012010BDA6
:109F70000360002010BD0000282B0020F8B5044627
:109F80000D4600260B468DF80060012269465020E0
:109F9000FEF72BFD00282BD12178C8079DF8000083
:109FA0001AD020F00100C1F3400101438DF80010E8
:109FB00021F002002178C1F3800140EA41008DF8D0
:109FC0000000217820F00400C1F3C00140EA8100C4
:109FD0008DF80000EE7005E020F007008DF800001D
:109FE000FF20E8702B46012269465020FEF7A3FEB1
:109FF000F8BDFEB5064600208DF8080090691446AD
:10A000000D464089ADF8040049E01268525C491CD5
:10A0100002F0FC03ADF80410882B23D00CDC482B95
:10A0200030D004DC402B28D0442B33D120E0802BCF
:10A030002ED0842B2ED10BE0942B09D004DC8C2B5A
:10A0400006D0902B26D10AE0982B0ED09C2B21D144
:10A0500002AA01A93046009403F002F81AE0224651
:10A06000082111E0224606210EE022460E210BE0D7
:10A07000214601A803F075F80CE0214601A803F081
:10A0800085F807E02246012101A800F07DFC01E0EF
:10A09000ADF8040028789DF80810884205D0A26920
:10A0A000BDF8041090888842AFD89DF80800287049
:10A0B000A169BDF804004881FEBD826883881A400A
:10A0C00003689A5C0A708168491C81607047C268A5
:10A0D00083881A4003689954C168491CC16070475D
:10A0E00070B50D460446B0F83812D0F8340201229B
:10A0F000FDF7FBFE00B1057004F13C0204F50D71A3
:10A1000004F1540072DF70BD10B50446C0B2FDF713
:10A1100017FD204610BD000010B5002821D0114BBE
:10A120000022001F196803E0814203D80A464968EB
:10A130000029F9D152B11368841A9C4204D10068F5
:10A1400018441060104602E0506000E0186039B119
:10A1500002680B1A934203D10B681A4402604968E3
:10A16000416010BD6C2B002006484A8843889A4203
:10A1700007D10A88A2F52063773B02D18988C91EDE
:10A1800081807047A02A002010B50949094800F0D5
:10A19000A2FC08B1FDF7A2FBF721064800F08FFCF6
:10A1A000002803D0BDE81040FDF798BB10BD0000AB
:10A1B00069A10200682E002030B59C696489048082
:10A1C0009D692C7A402C0ED0C02C10D0602C12D05F
:10A1D000E02C15D0AA88028098690A88808882427B
:10A1E00000D9088030BD107800EB400006E0107800
:10A1F00000EB400007E01078C0EBC000400003E037
:10A20000107800EB800080000880E5E770B59CB016
:10A2100003208DF868003048FEF7A2FB2E4A1AA9E9
:10A22000A2F55170FEF75CFB064664222B49684696
:10A23000FCF7B4F864202A4CADF86C001BAA6388C4
:10A24000694604F10C00FEF771FA264DB5F90000DD
:10A25000FCF7C8F841EC100B23A153EC102B05F5CB
:10A260005B70FCF723FEB5F90200FCF7BBF841EC8C
:10A27000100B20A153EC102B05F56070FCF716FEB7
:10A28000B5F90400FCF7AEF841EC100B1CA153EC3F
:10A29000102B05F56570FCF709FE1420ADF864007D
:10A2A000638819AA05F55B7104F10C00FEF73EFA0C
:10A2B000638819AA05F5607104F10C00FEF736FAFF
:10A2C000638819AA05F5657104F10C00FEF72EFAF2
:10A2D0001CB0304670BD000004350020E0D3020001
:10A2E000A02A0020C0310020416363207820256629
:10A2F0000000000041636320792025660000000013
:10A30000416363207A202566000000002DE9F041BA
:10A310008046024601200021FCF731F81A4F05461D
:10A320000E467868FDF790FB00280CD1174CD4E955
:10A33000062110462A4001EA06031A4305D0A84325
:10A34000B143C4E90601BDE8F081404601F046F999
:10A3500030B1D4E9040128433143C4E9040105E0E4
:10A36000D4E90410A943B043C4E90410D4E90601B8
:10A3700028433143C4E90601A1687868BDE8F0418B
:10A380000022FDF71DBB0000C0D40200082B0020F6
:10A390000146034802888A4200D00020704700002E
:10A3A000F4350020FFF732BF70B50D460446006853
:10A3B0004FF4887101F014F84FF49071206801F0A7
:10A3C0000FF84FF49271206801F00AF84FF4A2716F
:10A3D000206801F005F820681249C0F804132068CD
:10A3E000690740F30730090E002806DA00F00F0075
:10A3F00000F1E02080F8141D03E000F1E02080F877
:10A4000000142068012140F3073000F01F02914042
:10A410004009800000F1E020C0F88012C0F800116F
:10A4200070BD000010030200F0B58488A5189442A6
:10A4300000D82246A41AC288D6189A4200D81346D9
:10A44000D21A4B880788BB420CD34088834209D874
:10A450008888A04206D3A84204D8C888904201D375
:10A46000B04201D90020F0BD0120F0BD0A4810B56E
:10A47000807860B1002401E0022C06D02046FEF76F
:10A48000F3FD641C042CF7D310BD0324F6E7BDE8EC
:10A490001040FEF709BE0000CC2A002003480179D5
:10A4A000C90702D00078FEF73BBF7047CC2A0020D6
:10A4B000F721018017214180002101714171FB21A9
:10A4C00081711B21C17170472DE9F047394E00277A
:10A4D00080463D46DFF8E090D6F804A057E003D070
:10A4E0000446D0F81C8035E099F8002002EB4201C8
:10A4F000521CD2B289F8002009EBC10199F8023050
:10A50000091D9A4201D189F8005048680A7804462A
:10A51000012A12D0022A02D0032A3BD108E002F01D
:10A5200003FB00B10127257434E00574C06900E025
:10A5300070680028F9D170602CE0207C50BB8868DE
:10A540006060C868A0600869E0604869A061F07850
:10A5500000B165606268B168184B501A20F07F4006
:10A56000984202D2A168084406E0881AA16820F047
:10A570007F40814202D9081A206000E025606560B2
:10A580000120A56020742046E56102F0AFFAB8F121
:10A590000000A4D199F8001099F801008142A3D1DC
:10A5A00017B97168514502D00120BDE8F08700203D
:10A5B000FBE70000282B0020BC370020FFFF7F00B6
:10A5C000ACB00120FEF714FDFFF7F2F902F0B0F98C
:10A5D00001F0AAFD182265496846FBF7DFFE6448D2
:10A5E000069064494FF48070CDE907010990072374
:10A5F000614A06A96846FDF751FA08B1FDF76EF900
:10A60000FDF7B4F908B1FDF769F95C490320FEF7DD
:10A610003DFE08B1FDF762F969460020FEF768FDCE
:10A6200008B1FDF75BF900F05FFD08B1FDF756F9E1
:10A6300000F024FE08B1FDF751F90024694601201D
:10A64000009400F093FD08B1FDF748F9684600F06A
:10A65000DBFD08B1FDF742F99DF8080048A120F0A4
:10A660000F00401C20F0F00010308DF8080012227E
:10A6700002A87CDF08B1FDF731F900941020ADF895
:10A6800000003C200194ADF80200ADF804404FF406
:10A69000C870ADF8060068467ADF08B1FDF71EF90C
:10A6A000FFF772FD3B48019001A93B4800F0E9FA31
:10A6B00008B1FDF713F93948009069463848FEF7AC
:10A6C00069F808B1FDF70AF9AC216846FBF77FFE8F
:10A6D00002208DF800008DF8024005208DF803005F
:10A6E0000120ADF84C002E498DF87C004020891FD8
:10A6F0002290149144F2506023902A4829902648D1
:10A7000069460C30FDF720FC08B1FDF7E7F8224858
:10A7100001210C30FDF715FC1C216846FBF757FEA4
:10A720004FF42030CDE900404FF470200290032018
:10A730008DF80C001C4805901C480690ADF80E40A2
:10A740008DF810406846FDF7F7FD08B1FDF7C6F833
:10A7500017A0FCF79BFB104803210C30FDF7D5FC3C
:10A7600008B1FDF7BBF800F0D3FCFCE7B8D302005A
:10A77000682C0020682D002081CC0200E5910200A9
:10A780004C756361446965676F456C696F5F5541DE
:10A790005254000055B102007C2E002085BD0200FD
:10A7A000AC2A0020C7BD0200EDBD0200379E0200AA
:10A7B0000D0A5541525420737461727465642E0DF4
:10A7C0000A000000F0B50B30154D20F00701002401
:10A7D000144A0FE003688B420BD38B4205D95E1AF3
:10A7E00043184768C3E9006700E04368136002C08C
:10A7F00004E0021D10680028ECD12046002802D198
:10A80000286808B10020F0BD064A07481060074AD2
:10A81000121A22F00702C0E9002401202860D7E7BD
:10A82000702B00206C2B00200439002000590020E0
:10A8300070B5144682880E4605462088111D0144D5
:10A84000921C994201D8FE2A01D90C2070BD521CDD
:10A8500032542088FF21401C80B22080315420884F
:10A86000401C80B220808119288802F0D3FB218807
:10A87000084480B22080AA8842B1A96841B130441E
:10A88000FBF78CFD2088A98808442080002070BD3B
:10A89000072070BDF8B5054600200E460B46009017
:10A8A000032269465520FEF7A0F8002812D16878E7
:10A8B00016499DF800409DF80220085C2B788443DF
:10A8C000824343B1012B09D0022B09D0032B0DD0B9
:10A8D0006FF00300F8BD8DF800400DE00443FAE787
:10A8E00002438DF802208DF8004007E004438DF804
:10A8F00000406878085C02438DF80220334603224A
:10A9000069465520FEF717FAF8BD0000C0D50200D1
:10A91000F8B5054600200E468DF800000B460122D2
:10A9200069465620FEF761F8002811D1697815486C
:10A93000425C9DF80000904320EA0214287840B160
:10A94000012809D002280CD003280ED06FF0030094
:10A95000F8BD8DF800400EE044EA02108DF80000CA
:10A9600009E022438DF8002005E042EA040040EAB5
:10A9700002118DF800103346012269465620FEF779
:10A98000DAF9F8BDC0D502009269038892881944AB
:10A99000914201D90280704701807047F8B50F4697
:10A9A000017814460546012901D1687830B1208824
:10A9B000821C9A4232D8012902D006E00720F8BD55
:10A9C00069780144891C994228D8181A801E86B2D9
:10A9D000ADF800602188B81C084469467DDF002876
:10A9E000EDD12978022904D06878BDF80020904282
:10A9F00005D3BDF80000B04201D809200AE00820C4
:10AA0000012905D16978B14202D8ADF8001001E002
:10AA1000ADF80060BDF80010FE2901D90C20F8BD8A
:10AA20002288491CB9542188491C89B22180785454
:10AA30002088401C2080BDF80010084420800020A1
:10AA4000F8BD01F01F0301229A40D243490900EBEF
:10AA50008100114600F015B84A0950F8220001F0B3
:10AA60001F0201219140084000D00120704701F0F1
:10AA70001F0301229A40490900EB8100114600F0B2
:10AA800006B808B56A46FBF7DEFB009808BD08B5B6
:10AA90006A46FBF7CBFB009808BDC20800F007032D
:10AAA0000120895C98400840704710B5C20800F04A
:10AAB0000703885C01249C402043885410BD28B1C2
:10AAC000A1F11702E12A03D3072070470E20704737
:10AAD00001800020704710B560B10161F72120F8B6
:10AAE000021B20F8021BFB2100F8021BFFF7E0FC11
:10AAF000002010BD0E2010BD2DE9F047B0F804A0D5
:10AB00008EB00C465FEA0A0957D10188564E0127DC
:10AB1000002524297BD006DC102909D0112929D051
:10AB2000232926D199E03A2928D0552921D147E077
:10AB300021792173C07BA61D012802D0022804D1EF
:10AB400001E0208800E06088308031887088814290
:10AB500008D94846A5DF10B1112802D002E077716C
:10AB600000E03771B179F07981426BD94846FFF73F
:10AB700089F967E0A01DFFF79BFC63E0224640894E
:10AB800034F8061F814200D808466080172800D29A
:10AB900017206080106970B1607960B1D6E900015A
:10ABA000CDE90001ADF802906088ADF804001369AA
:10ABB000694610469847657125710EB0BDE8F0876B
:10ABC000C08804F10608172800D21720B8F8001032
:10ABD000814200D80846A8F8020088F804502846A8
:10ABE000B8F80010B5DF98F8050058BB206948B3E5
:10ABF000D6E90201CDE90001ADF80290B8F80200F3
:10AC0000ADF804002046694622691AE0FFE7011DFD
:10AC10002C226846FBF7C2FBBDF80000BDF80420FB
:10AC200004EBC0014A73226962B1D6E90423CDE97D
:10AC30000B23ADF82E00487B8DF8300022692046AA
:10AC40000BA99047A07A0028B7D0E1885046A5DF2D
:10AC50000028B2D1A572E772AFE7017A207B884263
:10AC600084D2014682E7000078D4020020B1027845
:10AC7000DE2A03D0082070470E2070474180002054
:10AC8000704760B159B10278DE2A0AD00968416084
:10AC9000DE2101704FF6FF714180002070470E20C9
:10ACA0007047082070477FB5054600294DD0002D1C
:10ACB0004BD008780C46DE2847D1A88861888842A6
:10ACC00002D1204602F0B0FA2888012825D00228B7
:10ACD0003BD011283AD0512837D135F8040F61887C
:10ACE000884232D1A978A81C02292ED1017A0429E0
:10ACF00003D0062901D0052927D100210091022285
:10AD00008DF8002001914FF4C07202910391ADF8CB
:10AD10000420007A05280FD010E0297A2046012966
:10AD200013D1A988428891420FD10121017204B048
:10AD3000BDE8704002F078BAADF804102888694682
:10AD4000B0DF002801D0616888477FBDA88861888E
:10AD50008842FAD14FF6FF7060807FBD00F18040DD
:10AD60000068002800D00120704708B500F180403D
:10AD7000002101600068009008BD00002DE9F0414D
:10AD8000040007D0044E4FF47A47751C3846A84794
:10AD9000641EFAD1BDE8F081A0D3020070B50B4C5F
:10ADA000207808B185250FE00020A0606060206158
:10ADB000E060074800F032FB054600F0ABFA08B946
:10ADC00000F014FB01202070284670BD9C36002046
:10ADD0002198020038B500258DF800506846FCF730
:10ADE000D9FE074CE068401EE060E06810B900F052
:10ADF00025FBA5709DF80000FCF7F0FE38BD0000B3
:10AE00009C3600202DE9FF411C460378164D174E55
:10AE100045F823200C3545F82340F0CE8DE8F000AE
:10AE20000C788DF800404C788DF801408C788DF8C6
:10AE30000240CC788DF803400C798DF805404C79B0
:10AE40008DF806408C6802940C7B8DF80C40497B91
:10AE50008DF80D1002B1064A6946001D00F038FC5D
:10AE600004B0BDE8F081000060370020ACD40200DF
:10AE700079C902001FB5001D069C8DE81E00002246
:10AE8000694600F0E1FC04B010BD0000F0B50546D5
:10AE90000478154889B0164640F82420124A0869FB
:10AEA000121DA2F1080742F82400487F38552022DD
:10AEB0006846FBF773FA04942878385C48B10EB101
:10AEC0000A4A00E000226946281D00F041FE09B050
:10AED000F0BD0EB1064A00E00022694605F10C0003
:10AEE00000F0ECFCF3E70000F02A0020F1CE0200B5
:10AEF00099CD020030B40378054CE35C1BB130BC43
:10AF0000001D00F05BBE30BC0C3000F041BD000005
:10AF1000EC2A002030B40378054CE35C1BB130BC54
:10AF2000001D00F0CDBE30BC0C3000F0A7BD00000D
:10AF3000EC2A002070B541EA4201DDE904564FF0E9
:10AF4000A04441EA830141EA052104EB800041EA83
:10AF50000641C0F8001770BD70B541EA4201DDE955
:10AF600004564FF0A04441EA830141EA052104EB75
:10AF7000800041EA0641C0F8001770BD70B541EA93
:10AF80004201DDE904564FF0A04441EA830141EA61
:10AF9000052104EB800041EA0641C0F8001770BDAE
:10AFA00070B541EA4201DDE904564FF0A04441EAA0
:10AFB000830141EA052104EB800041EA0641C0F823
:10AFC000001770BD70B541EA4201DDE904564FF04B
:10AFD000A04441EA830141EA052104EB800041EAF3
:10AFE0000641C0F8001770BD1CB500220B46009248
:10AFF00011460192FFF7C2FF1CBD1CB500220B4693
:10B00000009211460192FFF7CBFF1CBD1CB5002139
:10B0100000910B46012201911146FFF7AFFF1CBDC5
:10B020001CB5002100910B46012201911146FFF74A
:10B03000B7FF1CBD1CB5002100910B4601220191F8
:10B040001146FFF7BFFF1CBD4FF0A04202EB80008E
:10B05000D0F8002722F44032C0F80027D0F80027AB
:10B0600042EA0141C0F8001770474FF0A0420121A9
:10B070008140C2F80C1570474FF0A0420121814079
:10B08000C2F80815704701224FF0A043824011B169
:10B09000C3F808257047C3F80C25704718B5084B4E
:10B0A0006C4601441B68009306E000BF54F8203052
:10B0B000D3F81035401C08C28142F7D818BD0000F3
:10B0C000A0D40200034908B50844002101600068CB
:10B0D000009008BD0060004002494058012800D09F
:10B0E0000020704700600040064910B500204870FD
:10B0F000091D0860BFF35F8F0349044800F02EF973
:10B10000002010BD582B002010D50200F43800207C
:10B1100008B500208DF800006846FCF73BFDF1EE15
:10B12000100A20F09F00E1EE100ABFF35F8F08497C
:10B130004020C1F880029DF80000FCF74FFD00F0B0
:10B14000E9F808B141DF08BD20BF40BF20BF08BDFE
:10B1500004E000E0FCF7C2BB20B1034909680160CC
:10B16000002070470E20704794D50200FEB50646B9
:10B170000D460846FFF7F0FF002844D10024009454
:10B180000194012706208DF80060ADF804000294B8
:10B190008DF80270694620202A6869DF00948DF8D6
:10B1A00001708DF80240019402948DF803406946C5
:10B1B00040202A6869DF00948DF80060F720ADF820
:10B1C000020001940294694623202A6869DF0094F2
:10B1D000019402948DF80070694601202A6869DFA5
:10B1E0004FF4B0600090019402946946A1202A684F
:10B1F00069DF0094019402948DF800406946A02014
:10B200002A6869DF0020FEBD60DF002802D1024A03
:10B210000121117070470000672B002030B51548E0
:10B22000ADF5017D0078002821D04FF4FA7500BFFC
:10B23000ADF8005280A9684661DF38B1052816D004
:10B240000DF5017DBDE83040FCF748BB6C460A496E
:10B250007DA800F083F806E0D0E900212046904761
:10B260007DA800F092F87F980028E1D0F4E70DF572
:10B27000017D30BD672B002098D502007CB5194CAC
:10B28000207808B108207CBD0120A070002000F0CB
:10B2900015FF112819D0002000F028FF12480026C1
:10B2A000006801908DF800606846FCF773FC0F4958
:10B2B00001A810DF05000AD0002020709DF80000D2
:10B2C000FCF78CFC2DB128467CBD00207CBD012004
:10B2D000F3E7A670667001F0FFFA012000F006FFA8
:10B2E000F3E70000642B00202CD50200AD780200AB
:10B2F0000EB50749684600F031F805E0D0E90010C6
:10B300008847684600F041F802980028F6D10EBD43
:10B3100048D502000148007870470000642B0020E7
:10B320001FB568464BDF30B1052814D004B0BDE826
:10B330001040FCF7D3BA084901A800F00FF806E066
:10B34000D0E900210098904701A800F01EF803986A
:10B350000028E6D0F4E71FBDB4D5020001600968FB
:10B360004160AFF3008010B5D0E9002153689942E5
:10B3700001D1002104E0D1E90034A34202D01946F2
:10B38000816010BD08314160F0E7816800290BD071
:10B39000026892680A44826041684B689A4203D10D
:10B3A00008314160FFF7DFBF70474058002800D0E8
:10B3B000012070474058002800D00120704708B590
:10B3C000002242504058009008BDD0F804030840C5
:10B3D00000D0012070474058002800D0012070475D
:10B3E00008B5002242504058009008BD0948006846
:10B3F000012110F0010F08D14FF0E020C02280F8A9
:10B400000024C0F88012C0F8001103490120086030
:10B410007047000000E100E01805004006490246C0
:10B4200000200B790BB1852070470A6001220A7158
:10B4300000224A7170470000F82A002004490120C8
:10B44000086004480168C1F300410029FAD170473F
:10B450000C00004018040040002802D0014980017F
:10B4600008477047D1D402002DE9F04188460546CF
:10B4700000F04AFD234E002828461AD0FEF76EF849
:10B48000304490F84C008009032802D001280ED0E7
:10B4900007E04FF0A040D0F81005E84010F0010F91
:10B4A00005D003212846BDE8F041FFF7CDBD0221BC
:10B4B000F8E700F035FD002822D02846FEF74EF8C8
:10B4C00004464FF4807000EB84000F4F81B207EB0D
:10B4D0008400D0F8102542F00102C0F8102508467B
:10B4E000FFF7F0FDB8F1000F0AD02846FEF736F856
:10B4F00056F82000002803D00120A040C7F804031C
:10B50000BDE8F081B0360020006000402DE9FC412C
:10B51000DFF8BC80044608EB0400002790F93400F3
:10B520001346C0170E46401C01D008274CE0B078E7
:10B530001946C0F340022046FDF7ECFF0546401CCB
:10B5400041D0B078410719D4C0070AD04FF0A040CD
:10B5500000EB8401D1F8000720F00200C1F80007D9
:10B5600007E000217378204600910A460191FFF719
:10B57000F3FC174920465931FFF797FAB078800756
:10B5800018D51448317800EB8500D0F81025124BFF
:10B590001A40C0F810254FF4F8524FF4403302EA35
:10B5A000042203EA01410A43D0F810150A43C0F807
:10B5B000102509E008EB0500327810F84C1F41EA2D
:10B5C0008211017000E004273846BDE8FC810000CC
:10B5D000B036002000600040FFE0FCFF4FF0A041CB
:10B5E000D1F81015C14011F0010000D001207047C2
:10B5F00070B5184D95F85D0008B1082070BD0020A9
:10B60000411E2A18401CC0B282F834102028F8D3FA
:10B6100000242046FDF770FF641CE4B20D2CF8D323
:10B6200000240D4945F8594FC02081F80004012637
:10B630004020891FC1F88002C1F800014FF4BE709C
:10B64000FFF740FD0549F007C1F804032E712046BD
:10B6500070BD0000B036002006E000E00060004051
:10B66000034890F85D00002800D0012070470000DA
:10B67000B03600200121B1EB507F01D1012070478D
:10B68000002070470121B1EB507F01D101207047AC
:10B690000020704738B50D4600F07EFC040014D041
:10B6A00000208DF800006846FCF774FA207928B174
:10B6B0009DF80000FCF792FA112038BD01202560AA
:10B6C00020719DF80000FCF789FA002038BD0000C9
:10B6D0002DE9FC470C46154601798046584A01EB96
:10B6E000C10002EB80069946307F10B10820BDE80A
:10B6F000FC87544AD8F80000074652F82110FFF79B
:10B70000C9FF08B11120F2E7C6E90059207B0128E2
:10B71000207802D8FFF7A9FC01E0FFF7ADFC4FF05D
:10B72000000ACDF800A0CDF804A020785346524678
:10B730000121FFF747FC60784FF0FF35FF2806D066
:10B740008146FFF792FC4846FFF774FC00E0A946EB
:10B75000A078FF2809D0002205460323CDF800A0D9
:10B760001146CDF804A0FFF72DFCA07886F8200044
:10B77000E078F077E078FF280BD0217911B1FFF75E
:10B7800074FC01E0FFF778FCE078FFF753FC2079C8
:10B79000B0772178C7F80815C7F80C95C7F8105589
:10B7A000A068C7F82405217B607B00B10120012936
:10B7B00004D0022905D0032908D105E040F0020099
:10B7C00004E040F0040001E040F00600C7F8540532
:10B7D000A079C7F8C005306810B14020C7F804034D
:10B7E0000720C7F800053068012118B3D8F8000019
:10B7F000627940F3073000284FEA421206DA00F07F
:10B800000F0000F1E02080F8142D03E000F1E020AB
:10B8100080F80024D8F8000040F3073000F01F0340
:10B8200001FA03F24009800000F1E020C0F8802214
:10B83000C0F80021504686F81DA0317757E7000078
:10B8400078370020BCD402002DE9F04105460F46B0
:10B850000079154900EBC00001EB80041646607FBB
:10B8600010B11120BDE8F081206820B116F0140F4E
:10B8700001D10120607797E80F0004F10C0888E8F7
:10B880000F00E07FFF2806D0A17F11B1FFF7F4FB86
:10B8900001E0FFF7EAFB33463A4621462868BDE857
:10B8A000F04101F085B800007837002001490248D6
:10B8B00001F08ABA10370020002000402DE9F04145
:10B8C0000546007916460F4600EB40012D4A01EB74
:10B8D000C00102EB810494F82A1011B10820BDE8E0
:10B8E000F081294951F820102868FFF7D3FE08B1EC
:10B8F0001120F4E739462846FCF78AF96660386972
:10B90000206030004FF001062FD03F7F4FF48E7142
:10B910002868FFF754FD4FF4A2712868FFF74FFD28
:10B9200028681A49C0F8041328684FEA471140F301
:10B930000730002806DA00F00F0000F1E02080F860
:10B94000141D03E000F1E02080F80014286840F3A3
:10B95000073000F01F0206FA02F14009800000F1F2
:10B96000E020C0F88012C0F8001128680421C0F857
:10B9700000150020A061E06184F8290044F8140F4C
:10B98000A675ACE710370020A4D4020080000200A6
:10B990002DE9F05F054600794FF4017600EB400396
:10B9A00003EBC000344B03EB80040020636813B149
:10B9B0002B68C3F80863A3694FF000096BB1E06915
:10B9C00038B1606810B12868C0F804631120BDE880
:10B9D000F09FE2610120216105E0C4F82490A2619A
:10B9E000E160C4F81C9094F82910014302D1284664
:10B9F00000F02CFB60680028286803D0C0F80463BE
:10BA00000020E4E74FF4A2763146FFF7D8FCB246B7
:10BA10004FF4927B59462868FFF7CCFC06464FF45A
:10BA200084712868FFF7C6FC804651462868FFF7F6
:10BA3000C1FC074648EA07003043EBD056EA07004E
:10BA400007D12146286800F0D1FAA169606A8142D5
:10BA5000E0D8C4F818900EB10320B8E70FB10F205A
:10BA6000B5E794F8291001200029296801D0086061
:10BA7000C6E74860C4E70000103700202DE9F04712
:10BA8000054600790B4600EB400101EBC00023495D
:10BA900001EB8004284600F043F810B11120BDE806
:10BAA000F0874FF00008C4F82080A360626184F83A
:10BAB00028804FF48E76474631462868FFF77FFC92
:10BAC00028684FF00109C0F808902146286801F065
:10BAD000B9F8606800BBD5F800A00EE094F8280023
